{
	"solidity-learn/modifier.sol": {
		"modifierTest": {
			"abi": [
				{
					"inputs": [
						{
							"internalType": "bool",
							"name": "status",
							"type": "bool"
						}
					],
					"name": "setPaused",
					"outputs": [],
					"stateMutability": "nonpayable",
					"type": "function"
				}
			],
			"devdoc": {
				"kind": "dev",
				"methods": {},
				"version": 1
			},
			"evm": {
				"assembly": "    /* \"solidity-learn/modifier.sol\":57:145  contract modifierTest{\r... */\n  mstore(0x40, 0x80)\n  callvalue\n  dup1\n  iszero\n  tag_1\n  jumpi\n  0x00\n  dup1\n  revert\ntag_1:\n  pop\n  dataSize(sub_0)\n  dup1\n  dataOffset(sub_0)\n  0x00\n  codecopy\n  0x00\n  return\nstop\n\nsub_0: assembly {\n        /* \"solidity-learn/modifier.sol\":57:145  contract modifierTest{\r... */\n      mstore(0x40, 0x80)\n      callvalue\n      dup1\n      iszero\n      tag_1\n      jumpi\n      0x00\n      dup1\n      revert\n    tag_1:\n      pop\n      jumpi(tag_2, lt(calldatasize, 0x04))\n      shr(0xe0, calldataload(0x00))\n      dup1\n      0x16c38b3c\n      eq\n      tag_3\n      jumpi\n    tag_2:\n      0x00\n      dup1\n      revert\n        /* \"solidity-learn/modifier.sol\":85:142  function setPaused(bool status)external{\r... */\n    tag_3:\n      tag_4\n      0x04\n      dup1\n      calldatasize\n      sub\n      dup2\n      add\n      swap1\n      tag_5\n      swap2\n      swap1\n      tag_6\n      jump\t// in\n    tag_5:\n      tag_7\n      jump\t// in\n    tag_4:\n      stop\n    tag_7:\n      pop\n      jump\t// out\n        /* \"#utility.yul\":7:140   */\n    tag_10:\n        /* \"#utility.yul\":50:55   */\n      0x00\n        /* \"#utility.yul\":88:94   */\n      dup2\n        /* \"#utility.yul\":75:95   */\n      calldataload\n        /* \"#utility.yul\":66:95   */\n      swap1\n      pop\n        /* \"#utility.yul\":104:134   */\n      tag_12\n        /* \"#utility.yul\":128:133   */\n      dup2\n        /* \"#utility.yul\":104:134   */\n      tag_13\n      jump\t// in\n    tag_12:\n        /* \"#utility.yul\":7:140   */\n      swap3\n      swap2\n      pop\n      pop\n      jump\t// out\n        /* \"#utility.yul\":146:469   */\n    tag_6:\n        /* \"#utility.yul\":202:208   */\n      0x00\n        /* \"#utility.yul\":251:253   */\n      0x20\n        /* \"#utility.yul\":239:248   */\n      dup3\n        /* \"#utility.yul\":230:237   */\n      dup5\n        /* \"#utility.yul\":226:249   */\n      sub\n        /* \"#utility.yul\":222:254   */\n      slt\n        /* \"#utility.yul\":219:338   */\n      iszero\n      tag_15\n      jumpi\n        /* \"#utility.yul\":257:336   */\n      tag_16\n      tag_17\n      jump\t// in\n    tag_16:\n        /* \"#utility.yul\":219:338   */\n    tag_15:\n        /* \"#utility.yul\":377:378   */\n      0x00\n        /* \"#utility.yul\":402:452   */\n      tag_18\n        /* \"#utility.yul\":444:451   */\n      dup5\n        /* \"#utility.yul\":435:441   */\n      dup3\n        /* \"#utility.yul\":424:433   */\n      dup6\n        /* \"#utility.yul\":420:442   */\n      add\n        /* \"#utility.yul\":402:452   */\n      tag_10\n      jump\t// in\n    tag_18:\n        /* \"#utility.yul\":392:452   */\n      swap2\n      pop\n        /* \"#utility.yul\":348:462   */\n      pop\n        /* \"#utility.yul\":146:469   */\n      swap3\n      swap2\n      pop\n      pop\n      jump\t// out\n        /* \"#utility.yul\":556:646   */\n    tag_21:\n        /* \"#utility.yul\":590:597   */\n      0x00\n        /* \"#utility.yul\":633:638   */\n      dup2\n        /* \"#utility.yul\":626:639   */\n      iszero\n        /* \"#utility.yul\":619:640   */\n      iszero\n        /* \"#utility.yul\":608:640   */\n      swap1\n      pop\n        /* \"#utility.yul\":556:646   */\n      swap2\n      swap1\n      pop\n      jump\t// out\n        /* \"#utility.yul\":775:892   */\n    tag_17:\n        /* \"#utility.yul\":884:885   */\n      0x00\n        /* \"#utility.yul\":881:882   */\n      dup1\n        /* \"#utility.yul\":874:886   */\n      revert\n        /* \"#utility.yul\":898:1014   */\n    tag_13:\n        /* \"#utility.yul\":968:989   */\n      tag_27\n        /* \"#utility.yul\":983:988   */\n      dup2\n        /* \"#utility.yul\":968:989   */\n      tag_21\n      jump\t// in\n    tag_27:\n        /* \"#utility.yul\":961:966   */\n      dup2\n        /* \"#utility.yul\":958:990   */\n      eq\n        /* \"#utility.yul\":948:1008   */\n      tag_28\n      jumpi\n        /* \"#utility.yul\":1004:1005   */\n      0x00\n        /* \"#utility.yul\":1001:1002   */\n      dup1\n        /* \"#utility.yul\":994:1006   */\n      revert\n        /* \"#utility.yul\":948:1008   */\n    tag_28:\n        /* \"#utility.yul\":898:1014   */\n      pop\n      jump\t// out\n\n    auxdata: 0xa26469706673582212203d204c827c60ea827907b0000eab33aec704680c555a4062c02ac0fd45d9cbd664736f6c63430008070033\n}\n",
				"bytecode": {
					"linkReferences": {},
					"object": "608060405234801561001057600080fd5b5060de8061001f6000396000f3fe6080604052348015600f57600080fd5b506004361060285760003560e01c806316c38b3c14602d575b600080fd5b60436004803603810190603f9190605b565b6045565b005b50565b6000813590506055816094565b92915050565b600060208284031215606e57606d608f565b5b6000607a848285016048565b91505092915050565b60008115159050919050565b600080fd5b609b816083565b811460a557600080fd5b5056fea26469706673582212203d204c827c60ea827907b0000eab33aec704680c555a4062c02ac0fd45d9cbd664736f6c63430008070033",
					"opcodes": "PUSH1 0x80 PUSH1 0x40 MSTORE CALLVALUE DUP1 ISZERO PUSH2 0x10 JUMPI PUSH1 0x0 DUP1 REVERT JUMPDEST POP PUSH1 0xDE DUP1 PUSH2 0x1F PUSH1 0x0 CODECOPY PUSH1 0x0 RETURN INVALID PUSH1 0x80 PUSH1 0x40 MSTORE CALLVALUE DUP1 ISZERO PUSH1 0xF JUMPI PUSH1 0x0 DUP1 REVERT JUMPDEST POP PUSH1 0x4 CALLDATASIZE LT PUSH1 0x28 JUMPI PUSH1 0x0 CALLDATALOAD PUSH1 0xE0 SHR DUP1 PUSH4 0x16C38B3C EQ PUSH1 0x2D JUMPI JUMPDEST PUSH1 0x0 DUP1 REVERT JUMPDEST PUSH1 0x43 PUSH1 0x4 DUP1 CALLDATASIZE SUB DUP2 ADD SWAP1 PUSH1 0x3F SWAP2 SWAP1 PUSH1 0x5B JUMP JUMPDEST PUSH1 0x45 JUMP JUMPDEST STOP JUMPDEST POP JUMP JUMPDEST PUSH1 0x0 DUP2 CALLDATALOAD SWAP1 POP PUSH1 0x55 DUP2 PUSH1 0x94 JUMP JUMPDEST SWAP3 SWAP2 POP POP JUMP JUMPDEST PUSH1 0x0 PUSH1 0x20 DUP3 DUP5 SUB SLT ISZERO PUSH1 0x6E JUMPI PUSH1 0x6D PUSH1 0x8F JUMP JUMPDEST JUMPDEST PUSH1 0x0 PUSH1 0x7A DUP5 DUP3 DUP6 ADD PUSH1 0x48 JUMP JUMPDEST SWAP2 POP POP SWAP3 SWAP2 POP POP JUMP JUMPDEST PUSH1 0x0 DUP2 ISZERO ISZERO SWAP1 POP SWAP2 SWAP1 POP JUMP JUMPDEST PUSH1 0x0 DUP1 REVERT JUMPDEST PUSH1 0x9B DUP2 PUSH1 0x83 JUMP JUMPDEST DUP2 EQ PUSH1 0xA5 JUMPI PUSH1 0x0 DUP1 REVERT JUMPDEST POP JUMP INVALID LOG2 PUSH5 0x6970667358 0x22 SLT KECCAK256 RETURNDATASIZE KECCAK256 0x4C DUP3 PUSH29 0x60EA827907B0000EAB33AEC704680C555A4062C02AC0FD45D9CBD66473 PUSH16 0x6C634300080700330000000000000000 "
				},
				"gasEstimates": {
					"creation": {
						"codeDepositCost": "44400",
						"executionCost": "93",
						"totalCost": "44493"
					},
					"external": {
						"setPaused(bool)": "390"
					}
				},
				"methodIdentifiers": {
					"setPaused(bool)": "16c38b3c"
				}
			},
			"storageLayout": {
				"storage": [],
				"types": null
			},
			"userdoc": {
				"kind": "user",
				"methods": {},
				"version": 1
			}
		}
	}
}