{
	"solidity-learn/forandwhileloop.sol": {
		"forandwhile": {
			"abi": [
				{
					"inputs": [],
					"name": "forloop",
					"outputs": [
						{
							"internalType": "uint256",
							"name": "",
							"type": "uint256"
						}
					],
					"stateMutability": "pure",
					"type": "function"
				}
			],
			"devdoc": {
				"kind": "dev",
				"methods": {},
				"version": 1
			},
			"evm": {
				"assembly": "    /* \"solidity-learn/forandwhileloop.sol\":57:254  contract forandwhile{\r... */\n  mstore(0x40, 0x80)\n  callvalue\n  dup1\n  iszero\n  tag_1\n  jumpi\n  0x00\n  dup1\n  revert\ntag_1:\n  pop\n  dataSize(sub_0)\n  dup1\n  dataOffset(sub_0)\n  0x00\n  codecopy\n  0x00\n  return\nstop\n\nsub_0: assembly {\n        /* \"solidity-learn/forandwhileloop.sol\":57:254  contract forandwhile{\r... */\n      mstore(0x40, 0x80)\n      callvalue\n      dup1\n      iszero\n      tag_1\n      jumpi\n      0x00\n      dup1\n      revert\n    tag_1:\n      pop\n      jumpi(tag_2, lt(calldatasize, 0x04))\n      shr(0xe0, calldataload(0x00))\n      dup1\n      0xbc68f960\n      eq\n      tag_3\n      jumpi\n    tag_2:\n      0x00\n      dup1\n      revert\n        /* \"solidity-learn/forandwhileloop.sol\":84:245  function forloop() external pure returns(uint){\r... */\n    tag_3:\n      tag_4\n      tag_5\n      jump\t// in\n    tag_4:\n      mload(0x40)\n      tag_6\n      swap2\n      swap1\n      tag_7\n      jump\t// in\n    tag_6:\n      mload(0x40)\n      dup1\n      swap2\n      sub\n      swap1\n      return\n    tag_5:\n        /* \"solidity-learn/forandwhileloop.sol\":125:129  uint */\n      0x00\n        /* \"solidity-learn/forandwhileloop.sol\":141:147  uint s */\n      dup1\n        /* \"solidity-learn/forandwhileloop.sol\":150:151  0 */\n      0x00\n        /* \"solidity-learn/forandwhileloop.sol\":141:151  uint s = 0 */\n      swap1\n      pop\n        /* \"solidity-learn/forandwhileloop.sol\":166:172  uint i */\n      0x00\n        /* \"solidity-learn/forandwhileloop.sol\":162:219  for(uint i =0; i<1000;i++){\r... */\n    tag_9:\n        /* \"solidity-learn/forandwhileloop.sol\":179:183  1000 */\n      0x03e8\n        /* \"solidity-learn/forandwhileloop.sol\":177:178  i */\n      dup2\n        /* \"solidity-learn/forandwhileloop.sol\":177:183  i<1000 */\n      lt\n        /* \"solidity-learn/forandwhileloop.sol\":162:219  for(uint i =0; i<1000;i++){\r... */\n      iszero\n      tag_10\n      jumpi\n        /* \"solidity-learn/forandwhileloop.sol\":206:207  i */\n      dup1\n        /* \"solidity-learn/forandwhileloop.sol\":203:207  s+=i */\n      dup3\n      tag_12\n      swap2\n      swap1\n      tag_13\n      jump\t// in\n    tag_12:\n      swap2\n      pop\n        /* \"solidity-learn/forandwhileloop.sol\":184:187  i++ */\n      dup1\n      dup1\n      tag_14\n      swap1\n      tag_15\n      jump\t// in\n    tag_14:\n      swap2\n      pop\n      pop\n        /* \"solidity-learn/forandwhileloop.sol\":162:219  for(uint i =0; i<1000;i++){\r... */\n      jump(tag_9)\n    tag_10:\n      pop\n        /* \"solidity-learn/forandwhileloop.sol\":236:237  s */\n      dup1\n        /* \"solidity-learn/forandwhileloop.sol\":229:237  return s */\n      swap2\n      pop\n      pop\n        /* \"solidity-learn/forandwhileloop.sol\":84:245  function forloop() external pure returns(uint){\r... */\n      swap1\n      jump\t// out\n        /* \"#utility.yul\":7:125   */\n    tag_17:\n        /* \"#utility.yul\":94:118   */\n      tag_19\n        /* \"#utility.yul\":112:117   */\n      dup2\n        /* \"#utility.yul\":94:118   */\n      tag_20\n      jump\t// in\n    tag_19:\n        /* \"#utility.yul\":89:92   */\n      dup3\n        /* \"#utility.yul\":82:119   */\n      mstore\n        /* \"#utility.yul\":7:125   */\n      pop\n      pop\n      jump\t// out\n        /* \"#utility.yul\":131:353   */\n    tag_7:\n        /* \"#utility.yul\":224:228   */\n      0x00\n        /* \"#utility.yul\":262:264   */\n      0x20\n        /* \"#utility.yul\":251:260   */\n      dup3\n        /* \"#utility.yul\":247:265   */\n      add\n        /* \"#utility.yul\":239:265   */\n      swap1\n      pop\n        /* \"#utility.yul\":275:346   */\n      tag_22\n        /* \"#utility.yul\":343:344   */\n      0x00\n        /* \"#utility.yul\":332:341   */\n      dup4\n        /* \"#utility.yul\":328:345   */\n      add\n        /* \"#utility.yul\":319:325   */\n      dup5\n        /* \"#utility.yul\":275:346   */\n      tag_17\n      jump\t// in\n    tag_22:\n        /* \"#utility.yul\":131:353   */\n      swap3\n      swap2\n      pop\n      pop\n      jump\t// out\n        /* \"#utility.yul\":359:664   */\n    tag_13:\n        /* \"#utility.yul\":399:402   */\n      0x00\n        /* \"#utility.yul\":418:438   */\n      tag_24\n        /* \"#utility.yul\":436:437   */\n      dup3\n        /* \"#utility.yul\":418:438   */\n      tag_20\n      jump\t// in\n    tag_24:\n        /* \"#utility.yul\":413:438   */\n      swap2\n      pop\n        /* \"#utility.yul\":452:472   */\n      tag_25\n        /* \"#utility.yul\":470:471   */\n      dup4\n        /* \"#utility.yul\":452:472   */\n      tag_20\n      jump\t// in\n    tag_25:\n        /* \"#utility.yul\":447:472   */\n      swap3\n      pop\n        /* \"#utility.yul\":606:607   */\n      dup3\n        /* \"#utility.yul\":538:604   */\n      0xffffffffffffffffffffffffffffffffffffffffffffffffffffffffffffffff\n        /* \"#utility.yul\":534:608   */\n      sub\n        /* \"#utility.yul\":531:532   */\n      dup3\n        /* \"#utility.yul\":528:609   */\n      gt\n        /* \"#utility.yul\":525:632   */\n      iszero\n      tag_26\n      jumpi\n        /* \"#utility.yul\":612:630   */\n      tag_27\n      tag_28\n      jump\t// in\n    tag_27:\n        /* \"#utility.yul\":525:632   */\n    tag_26:\n        /* \"#utility.yul\":656:657   */\n      dup3\n        /* \"#utility.yul\":653:654   */\n      dup3\n        /* \"#utility.yul\":649:658   */\n      add\n        /* \"#utility.yul\":642:658   */\n      swap1\n      pop\n        /* \"#utility.yul\":359:664   */\n      swap3\n      swap2\n      pop\n      pop\n      jump\t// out\n        /* \"#utility.yul\":670:747   */\n    tag_20:\n        /* \"#utility.yul\":707:714   */\n      0x00\n        /* \"#utility.yul\":736:741   */\n      dup2\n        /* \"#utility.yul\":725:741   */\n      swap1\n      pop\n        /* \"#utility.yul\":670:747   */\n      swap2\n      swap1\n      pop\n      jump\t// out\n        /* \"#utility.yul\":753:986   */\n    tag_15:\n        /* \"#utility.yul\":792:795   */\n      0x00\n        /* \"#utility.yul\":815:839   */\n      tag_31\n        /* \"#utility.yul\":833:838   */\n      dup3\n        /* \"#utility.yul\":815:839   */\n      tag_20\n      jump\t// in\n    tag_31:\n        /* \"#utility.yul\":806:839   */\n      swap2\n      pop\n        /* \"#utility.yul\":861:927   */\n      0xffffffffffffffffffffffffffffffffffffffffffffffffffffffffffffffff\n        /* \"#utility.yul\":854:859   */\n      dup3\n        /* \"#utility.yul\":851:928   */\n      eq\n        /* \"#utility.yul\":848:951   */\n      iszero\n      tag_32\n      jumpi\n        /* \"#utility.yul\":931:949   */\n      tag_33\n      tag_28\n      jump\t// in\n    tag_33:\n        /* \"#utility.yul\":848:951   */\n    tag_32:\n        /* \"#utility.yul\":978:979   */\n      0x01\n        /* \"#utility.yul\":971:976   */\n      dup3\n        /* \"#utility.yul\":967:980   */\n      add\n        /* \"#utility.yul\":960:980   */\n      swap1\n      pop\n        /* \"#utility.yul\":753:986   */\n      swap2\n      swap1\n      pop\n      jump\t// out\n        /* \"#utility.yul\":992:1172   */\n    tag_28:\n        /* \"#utility.yul\":1040:1117   */\n      0x4e487b7100000000000000000000000000000000000000000000000000000000\n        /* \"#utility.yul\":1037:1038   */\n      0x00\n        /* \"#utility.yul\":1030:1118   */\n      mstore\n        /* \"#utility.yul\":1137:1141   */\n      0x11\n        /* \"#utility.yul\":1134:1135   */\n      0x04\n        /* \"#utility.yul\":1127:1142   */\n      mstore\n        /* \"#utility.yul\":1161:1165   */\n      0x24\n        /* \"#utility.yul\":1158:1159   */\n      0x00\n        /* \"#utility.yul\":1151:1166   */\n      revert\n\n    auxdata: 0xa2646970667358221220f2d95d543c58faa32b7612f5b81cfdcb7ba831c1546cf0061aa2ec15fdb87e0864736f6c63430008070033\n}\n",
				"bytecode": {
					"linkReferences": {},
					"object": "608060405234801561001057600080fd5b506101c3806100206000396000f3fe608060405234801561001057600080fd5b506004361061002b5760003560e01c8063bc68f96014610030575b600080fd5b61003861004e565b604051610045919061009a565b60405180910390f35b6000806000905060005b6103e881101561008357808261006e91906100b5565b9150808061007b90610115565b915050610058565b508091505090565b6100948161010b565b82525050565b60006020820190506100af600083018461008b565b92915050565b60006100c08261010b565b91506100cb8361010b565b9250827fffffffffffffffffffffffffffffffffffffffffffffffffffffffffffffffff03821115610100576100ff61015e565b5b828201905092915050565b6000819050919050565b60006101208261010b565b91507fffffffffffffffffffffffffffffffffffffffffffffffffffffffffffffffff8214156101535761015261015e565b5b600182019050919050565b7f4e487b7100000000000000000000000000000000000000000000000000000000600052601160045260246000fdfea2646970667358221220f2d95d543c58faa32b7612f5b81cfdcb7ba831c1546cf0061aa2ec15fdb87e0864736f6c63430008070033",
					"opcodes": "PUSH1 0x80 PUSH1 0x40 MSTORE CALLVALUE DUP1 ISZERO PUSH2 0x10 JUMPI PUSH1 0x0 DUP1 REVERT JUMPDEST POP PUSH2 0x1C3 DUP1 PUSH2 0x20 PUSH1 0x0 CODECOPY PUSH1 0x0 RETURN INVALID PUSH1 0x80 PUSH1 0x40 MSTORE CALLVALUE DUP1 ISZERO PUSH2 0x10 JUMPI PUSH1 0x0 DUP1 REVERT JUMPDEST POP PUSH1 0x4 CALLDATASIZE LT PUSH2 0x2B JUMPI PUSH1 0x0 CALLDATALOAD PUSH1 0xE0 SHR DUP1 PUSH4 0xBC68F960 EQ PUSH2 0x30 JUMPI JUMPDEST PUSH1 0x0 DUP1 REVERT JUMPDEST PUSH2 0x38 PUSH2 0x4E JUMP JUMPDEST PUSH1 0x40 MLOAD PUSH2 0x45 SWAP2 SWAP1 PUSH2 0x9A JUMP JUMPDEST PUSH1 0x40 MLOAD DUP1 SWAP2 SUB SWAP1 RETURN JUMPDEST PUSH1 0x0 DUP1 PUSH1 0x0 SWAP1 POP PUSH1 0x0 JUMPDEST PUSH2 0x3E8 DUP2 LT ISZERO PUSH2 0x83 JUMPI DUP1 DUP3 PUSH2 0x6E SWAP2 SWAP1 PUSH2 0xB5 JUMP JUMPDEST SWAP2 POP DUP1 DUP1 PUSH2 0x7B SWAP1 PUSH2 0x115 JUMP JUMPDEST SWAP2 POP POP PUSH2 0x58 JUMP JUMPDEST POP DUP1 SWAP2 POP POP SWAP1 JUMP JUMPDEST PUSH2 0x94 DUP2 PUSH2 0x10B JUMP JUMPDEST DUP3 MSTORE POP POP JUMP JUMPDEST PUSH1 0x0 PUSH1 0x20 DUP3 ADD SWAP1 POP PUSH2 0xAF PUSH1 0x0 DUP4 ADD DUP5 PUSH2 0x8B JUMP JUMPDEST SWAP3 SWAP2 POP POP JUMP JUMPDEST PUSH1 0x0 PUSH2 0xC0 DUP3 PUSH2 0x10B JUMP JUMPDEST SWAP2 POP PUSH2 0xCB DUP4 PUSH2 0x10B JUMP JUMPDEST SWAP3 POP DUP3 PUSH32 0xFFFFFFFFFFFFFFFFFFFFFFFFFFFFFFFFFFFFFFFFFFFFFFFFFFFFFFFFFFFFFFFF SUB DUP3 GT ISZERO PUSH2 0x100 JUMPI PUSH2 0xFF PUSH2 0x15E JUMP JUMPDEST JUMPDEST DUP3 DUP3 ADD SWAP1 POP SWAP3 SWAP2 POP POP JUMP JUMPDEST PUSH1 0x0 DUP2 SWAP1 POP SWAP2 SWAP1 POP JUMP JUMPDEST PUSH1 0x0 PUSH2 0x120 DUP3 PUSH2 0x10B JUMP JUMPDEST SWAP2 POP PUSH32 0xFFFFFFFFFFFFFFFFFFFFFFFFFFFFFFFFFFFFFFFFFFFFFFFFFFFFFFFFFFFFFFFF DUP3 EQ ISZERO PUSH2 0x153 JUMPI PUSH2 0x152 PUSH2 0x15E JUMP JUMPDEST JUMPDEST PUSH1 0x1 DUP3 ADD SWAP1 POP SWAP2 SWAP1 POP JUMP JUMPDEST PUSH32 0x4E487B7100000000000000000000000000000000000000000000000000000000 PUSH1 0x0 MSTORE PUSH1 0x11 PUSH1 0x4 MSTORE PUSH1 0x24 PUSH1 0x0 REVERT INVALID LOG2 PUSH5 0x6970667358 0x22 SLT KECCAK256 CALLCODE 0xD9 0x5D SLOAD EXTCODECOPY PC STATICCALL LOG3 0x2B PUSH23 0x12F5B81CFDCB7BA831C1546CF0061AA2EC15FDB87E0864 PUSH20 0x6F6C634300080700330000000000000000000000 "
				},
				"gasEstimates": {
					"creation": {
						"codeDepositCost": "90200",
						"executionCost": "141",
						"totalCost": "90341"
					},
					"external": {
						"forloop()": "infinite"
					}
				},
				"methodIdentifiers": {
					"forloop()": "bc68f960"
				}
			},
			"storageLayout": {
				"storage": [],
				"types": null
			},
			"userdoc": {
				"kind": "user",
				"methods": {},
				"version": 1
			}
		}
	}
}