{
	"solidity-learn/globalvariables.sol": {
		"GlobalVariable": {
			"abi": [
				{
					"inputs": [],
					"name": "globalvariable",
					"outputs": [
						{
							"internalType": "address",
							"name": "",
							"type": "address"
						},
						{
							"internalType": "uint256",
							"name": "",
							"type": "uint256"
						},
						{
							"internalType": "uint256",
							"name": "",
							"type": "uint256"
						}
					],
					"stateMutability": "view",
					"type": "function"
				}
			],
			"devdoc": {
				"kind": "dev",
				"methods": {},
				"version": 1
			},
			"evm": {
				"assembly": "    /* \"solidity-learn/globalvariables.sol\":57:290  contract GlobalVariable {\r... */\n  mstore(0x40, 0x80)\n  callvalue\n  dup1\n  iszero\n  tag_1\n  jumpi\n  0x00\n  dup1\n  revert\ntag_1:\n  pop\n  dataSize(sub_0)\n  dup1\n  dataOffset(sub_0)\n  0x00\n  codecopy\n  0x00\n  return\nstop\n\nsub_0: assembly {\n        /* \"solidity-learn/globalvariables.sol\":57:290  contract GlobalVariable {\r... */\n      mstore(0x40, 0x80)\n      callvalue\n      dup1\n      iszero\n      tag_1\n      jumpi\n      0x00\n      dup1\n      revert\n    tag_1:\n      pop\n      jumpi(tag_2, lt(calldatasize, 0x04))\n      shr(0xe0, calldataload(0x00))\n      dup1\n      0x9d9c61a6\n      eq\n      tag_3\n      jumpi\n    tag_2:\n      0x00\n      dup1\n      revert\n        /* \"solidity-learn/globalvariables.sol\":90:287  function globalvariable() external view returns(address,uint,uint){\r... */\n    tag_3:\n      tag_4\n      tag_5\n      jump\t// in\n    tag_4:\n      mload(0x40)\n      tag_6\n      swap4\n      swap3\n      swap2\n      swap1\n      tag_7\n      jump\t// in\n    tag_6:\n      mload(0x40)\n      dup1\n      swap2\n      sub\n      swap1\n      return\n    tag_5:\n        /* \"solidity-learn/globalvariables.sol\":138:145  address */\n      0x00\n        /* \"solidity-learn/globalvariables.sol\":146:150  uint */\n      dup1\n        /* \"solidity-learn/globalvariables.sol\":151:155  uint */\n      0x00\n        /* \"solidity-learn/globalvariables.sol\":167:181  address sender */\n      dup1\n        /* \"solidity-learn/globalvariables.sol\":184:194  msg.sender */\n      caller\n        /* \"solidity-learn/globalvariables.sol\":167:194  address sender = msg.sender */\n      swap1\n      pop\n        /* \"solidity-learn/globalvariables.sol\":205:219  uint timestamp */\n      0x00\n        /* \"solidity-learn/globalvariables.sol\":222:237  block.timestamp */\n      timestamp\n        /* \"solidity-learn/globalvariables.sol\":205:237  uint timestamp = block.timestamp */\n      swap1\n      pop\n        /* \"solidity-learn/globalvariables.sol\":248:264  uint blockNumber */\n      0x00\n        /* \"solidity-learn/globalvariables.sol\":267:279  block.number */\n      number\n        /* \"solidity-learn/globalvariables.sol\":248:279  uint blockNumber = block.number */\n      swap1\n      pop\n        /* \"solidity-learn/globalvariables.sol\":156:287  {\r... */\n      pop\n      pop\n      pop\n        /* \"solidity-learn/globalvariables.sol\":90:287  function globalvariable() external view returns(address,uint,uint){\r... */\n      swap1\n      swap2\n      swap3\n      jump\t// out\n        /* \"#utility.yul\":7:125   */\n    tag_10:\n        /* \"#utility.yul\":94:118   */\n      tag_12\n        /* \"#utility.yul\":112:117   */\n      dup2\n        /* \"#utility.yul\":94:118   */\n      tag_13\n      jump\t// in\n    tag_12:\n        /* \"#utility.yul\":89:92   */\n      dup3\n        /* \"#utility.yul\":82:119   */\n      mstore\n        /* \"#utility.yul\":7:125   */\n      pop\n      pop\n      jump\t// out\n        /* \"#utility.yul\":131:249   */\n    tag_14:\n        /* \"#utility.yul\":218:242   */\n      tag_16\n        /* \"#utility.yul\":236:241   */\n      dup2\n        /* \"#utility.yul\":218:242   */\n      tag_17\n      jump\t// in\n    tag_16:\n        /* \"#utility.yul\":213:216   */\n      dup3\n        /* \"#utility.yul\":206:243   */\n      mstore\n        /* \"#utility.yul\":131:249   */\n      pop\n      pop\n      jump\t// out\n        /* \"#utility.yul\":255:697   */\n    tag_7:\n        /* \"#utility.yul\":404:408   */\n      0x00\n        /* \"#utility.yul\":442:444   */\n      0x60\n        /* \"#utility.yul\":431:440   */\n      dup3\n        /* \"#utility.yul\":427:445   */\n      add\n        /* \"#utility.yul\":419:445   */\n      swap1\n      pop\n        /* \"#utility.yul\":455:526   */\n      tag_19\n        /* \"#utility.yul\":523:524   */\n      0x00\n        /* \"#utility.yul\":512:521   */\n      dup4\n        /* \"#utility.yul\":508:525   */\n      add\n        /* \"#utility.yul\":499:505   */\n      dup7\n        /* \"#utility.yul\":455:526   */\n      tag_10\n      jump\t// in\n    tag_19:\n        /* \"#utility.yul\":536:608   */\n      tag_20\n        /* \"#utility.yul\":604:606   */\n      0x20\n        /* \"#utility.yul\":593:602   */\n      dup4\n        /* \"#utility.yul\":589:607   */\n      add\n        /* \"#utility.yul\":580:586   */\n      dup6\n        /* \"#utility.yul\":536:608   */\n      tag_14\n      jump\t// in\n    tag_20:\n        /* \"#utility.yul\":618:690   */\n      tag_21\n        /* \"#utility.yul\":686:688   */\n      0x40\n        /* \"#utility.yul\":675:684   */\n      dup4\n        /* \"#utility.yul\":671:689   */\n      add\n        /* \"#utility.yul\":662:668   */\n      dup5\n        /* \"#utility.yul\":618:690   */\n      tag_14\n      jump\t// in\n    tag_21:\n        /* \"#utility.yul\":255:697   */\n      swap5\n      swap4\n      pop\n      pop\n      pop\n      pop\n      jump\t// out\n        /* \"#utility.yul\":703:799   */\n    tag_13:\n        /* \"#utility.yul\":740:747   */\n      0x00\n        /* \"#utility.yul\":769:793   */\n      tag_23\n        /* \"#utility.yul\":787:792   */\n      dup3\n        /* \"#utility.yul\":769:793   */\n      tag_24\n      jump\t// in\n    tag_23:\n        /* \"#utility.yul\":758:793   */\n      swap1\n      pop\n        /* \"#utility.yul\":703:799   */\n      swap2\n      swap1\n      pop\n      jump\t// out\n        /* \"#utility.yul\":805:931   */\n    tag_24:\n        /* \"#utility.yul\":842:849   */\n      0x00\n        /* \"#utility.yul\":882:924   */\n      0xffffffffffffffffffffffffffffffffffffffff\n        /* \"#utility.yul\":875:880   */\n      dup3\n        /* \"#utility.yul\":871:925   */\n      and\n        /* \"#utility.yul\":860:925   */\n      swap1\n      pop\n        /* \"#utility.yul\":805:931   */\n      swap2\n      swap1\n      pop\n      jump\t// out\n        /* \"#utility.yul\":937:1014   */\n    tag_17:\n        /* \"#utility.yul\":974:981   */\n      0x00\n        /* \"#utility.yul\":1003:1008   */\n      dup2\n        /* \"#utility.yul\":992:1008   */\n      swap1\n      pop\n        /* \"#utility.yul\":937:1014   */\n      swap2\n      swap1\n      pop\n      jump\t// out\n\n    auxdata: 0xa2646970667358221220ba3a07852a88b9d2a14da77bf17ce8531d6ee3aa6eee99de4ddeb4a9a154bf2a64736f6c63430008070033\n}\n",
				"bytecode": {
					"linkReferences": {},
					"object": "608060405234801561001057600080fd5b5061011f806100206000396000f3fe6080604052348015600f57600080fd5b506004361060285760003560e01c80639d9c61a614602d575b600080fd5b60336049565b604051604093929190607e565b60405180910390f35b60008060008033905060004290506000439050505050909192565b606b8160af565b82525050565b60788160df565b82525050565b6000606082019050609160008301866064565b609c60208301856071565b60a760408301846071565b949350505050565b600060b88260bf565b9050919050565b600073ffffffffffffffffffffffffffffffffffffffff82169050919050565b600081905091905056fea2646970667358221220ba3a07852a88b9d2a14da77bf17ce8531d6ee3aa6eee99de4ddeb4a9a154bf2a64736f6c63430008070033",
					"opcodes": "PUSH1 0x80 PUSH1 0x40 MSTORE CALLVALUE DUP1 ISZERO PUSH2 0x10 JUMPI PUSH1 0x0 DUP1 REVERT JUMPDEST POP PUSH2 0x11F DUP1 PUSH2 0x20 PUSH1 0x0 CODECOPY PUSH1 0x0 RETURN INVALID PUSH1 0x80 PUSH1 0x40 MSTORE CALLVALUE DUP1 ISZERO PUSH1 0xF JUMPI PUSH1 0x0 DUP1 REVERT JUMPDEST POP PUSH1 0x4 CALLDATASIZE LT PUSH1 0x28 JUMPI PUSH1 0x0 CALLDATALOAD PUSH1 0xE0 SHR DUP1 PUSH4 0x9D9C61A6 EQ PUSH1 0x2D JUMPI JUMPDEST PUSH1 0x0 DUP1 REVERT JUMPDEST PUSH1 0x33 PUSH1 0x49 JUMP JUMPDEST PUSH1 0x40 MLOAD PUSH1 0x40 SWAP4 SWAP3 SWAP2 SWAP1 PUSH1 0x7E JUMP JUMPDEST PUSH1 0x40 MLOAD DUP1 SWAP2 SUB SWAP1 RETURN JUMPDEST PUSH1 0x0 DUP1 PUSH1 0x0 DUP1 CALLER SWAP1 POP PUSH1 0x0 TIMESTAMP SWAP1 POP PUSH1 0x0 NUMBER SWAP1 POP POP POP POP SWAP1 SWAP2 SWAP3 JUMP JUMPDEST PUSH1 0x6B DUP2 PUSH1 0xAF JUMP JUMPDEST DUP3 MSTORE POP POP JUMP JUMPDEST PUSH1 0x78 DUP2 PUSH1 0xDF JUMP JUMPDEST DUP3 MSTORE POP POP JUMP JUMPDEST PUSH1 0x0 PUSH1 0x60 DUP3 ADD SWAP1 POP PUSH1 0x91 PUSH1 0x0 DUP4 ADD DUP7 PUSH1 0x64 JUMP JUMPDEST PUSH1 0x9C PUSH1 0x20 DUP4 ADD DUP6 PUSH1 0x71 JUMP JUMPDEST PUSH1 0xA7 PUSH1 0x40 DUP4 ADD DUP5 PUSH1 0x71 JUMP JUMPDEST SWAP5 SWAP4 POP POP POP POP JUMP JUMPDEST PUSH1 0x0 PUSH1 0xB8 DUP3 PUSH1 0xBF JUMP JUMPDEST SWAP1 POP SWAP2 SWAP1 POP JUMP JUMPDEST PUSH1 0x0 PUSH20 0xFFFFFFFFFFFFFFFFFFFFFFFFFFFFFFFFFFFFFFFF DUP3 AND SWAP1 POP SWAP2 SWAP1 POP JUMP JUMPDEST PUSH1 0x0 DUP2 SWAP1 POP SWAP2 SWAP1 POP JUMP INVALID LOG2 PUSH5 0x6970667358 0x22 SLT KECCAK256 0xBA GASPRICE SMOD DUP6 0x2A DUP9 0xB9 0xD2 LOG1 0x4D 0xA7 PUSH28 0xF17CE8531D6EE3AA6EEE99DE4DDEB4A9A154BF2A64736F6C63430008 SMOD STOP CALLER "
				},
				"gasEstimates": {
					"creation": {
						"codeDepositCost": "57400",
						"executionCost": "105",
						"totalCost": "57505"
					},
					"external": {
						"globalvariable()": "infinite"
					}
				},
				"methodIdentifiers": {
					"globalvariable()": "9d9c61a6"
				}
			},
			"storageLayout": {
				"storage": [],
				"types": null
			},
			"userdoc": {
				"kind": "user",
				"methods": {},
				"version": 1
			}
		}
	}
}