{
	"solidity-learn/modifier.sol": {
		"modifierTest": {
			"abi": [
				{
					"inputs": [],
					"name": "count",
					"outputs": [
						{
							"internalType": "uint256",
							"name": "",
							"type": "uint256"
						}
					],
					"stateMutability": "view",
					"type": "function"
				},
				{
					"inputs": [],
					"name": "dec",
					"outputs": [],
					"stateMutability": "nonpayable",
					"type": "function"
				},
				{
					"inputs": [
						{
							"internalType": "uint256",
							"name": "x",
							"type": "uint256"
						}
					],
					"name": "inc",
					"outputs": [],
					"stateMutability": "nonpayable",
					"type": "function"
				},
				{
					"inputs": [],
					"name": "paused",
					"outputs": [
						{
							"internalType": "bool",
							"name": "",
							"type": "bool"
						}
					],
					"stateMutability": "view",
					"type": "function"
				},
				{
					"inputs": [
						{
							"internalType": "bool",
							"name": "status",
							"type": "bool"
						}
					],
					"name": "setPaused",
					"outputs": [],
					"stateMutability": "nonpayable",
					"type": "function"
				}
			],
			"devdoc": {
				"kind": "dev",
				"methods": {},
				"version": 1
			},
			"evm": {
				"assembly": "    /* \"solidity-learn/modifier.sol\":57:542  contract modifierTest{\r... */\n  mstore(0x40, 0x80)\n  callvalue\n  dup1\n  iszero\n  tag_1\n  jumpi\n  0x00\n  dup1\n  revert\ntag_1:\n  pop\n  dataSize(sub_0)\n  dup1\n  dataOffset(sub_0)\n  0x00\n  codecopy\n  0x00\n  return\nstop\n\nsub_0: assembly {\n        /* \"solidity-learn/modifier.sol\":57:542  contract modifierTest{\r... */\n      mstore(0x40, 0x80)\n      callvalue\n      dup1\n      iszero\n      tag_1\n      jumpi\n      0x00\n      dup1\n      revert\n    tag_1:\n      pop\n      jumpi(tag_2, lt(calldatasize, 0x04))\n      shr(0xe0, calldataload(0x00))\n      dup1\n      0x06661abd\n      eq\n      tag_3\n      jumpi\n      dup1\n      0x16c38b3c\n      eq\n      tag_4\n      jumpi\n      dup1\n      0x5c975abb\n      eq\n      tag_5\n      jumpi\n      dup1\n      0x812600df\n      eq\n      tag_6\n      jumpi\n      dup1\n      0xb3bcfa82\n      eq\n      tag_7\n      jumpi\n    tag_2:\n      0x00\n      dup1\n      revert\n        /* \"solidity-learn/modifier.sol\":110:127  uint public count */\n    tag_3:\n      tag_8\n      tag_9\n      jump\t// in\n    tag_8:\n      mload(0x40)\n      tag_10\n      swap2\n      swap1\n      tag_11\n      jump\t// in\n    tag_10:\n      mload(0x40)\n      dup1\n      swap2\n      sub\n      swap1\n      return\n        /* \"solidity-learn/modifier.sol\":134:208  function setPaused(bool status)external{\r... */\n    tag_4:\n      tag_12\n      0x04\n      dup1\n      calldatasize\n      sub\n      dup2\n      add\n      swap1\n      tag_13\n      swap2\n      swap1\n      tag_14\n      jump\t// in\n    tag_13:\n      tag_15\n      jump\t// in\n    tag_12:\n      stop\n        /* \"solidity-learn/modifier.sol\":85:103  bool public paused */\n    tag_5:\n      tag_16\n      tag_17\n      jump\t// in\n    tag_16:\n      mload(0x40)\n      tag_18\n      swap2\n      swap1\n      tag_19\n      jump\t// in\n    tag_18:\n      mload(0x40)\n      dup1\n      swap2\n      sub\n      swap1\n      return\n        /* \"solidity-learn/modifier.sol\":393:464  function inc(uint x) external whenNotPaused  {\r... */\n    tag_6:\n      tag_20\n      0x04\n      dup1\n      calldatasize\n      sub\n      dup2\n      add\n      swap1\n      tag_21\n      swap2\n      swap1\n      tag_22\n      jump\t// in\n    tag_21:\n      tag_23\n      jump\t// in\n    tag_20:\n      stop\n        /* \"solidity-learn/modifier.sol\":471:535  function dec() external whenNotPaused {\r... */\n    tag_7:\n      tag_24\n      tag_25\n      jump\t// in\n    tag_24:\n      stop\n        /* \"solidity-learn/modifier.sol\":110:127  uint public count */\n    tag_9:\n      sload(0x01)\n      dup2\n      jump\t// out\n        /* \"solidity-learn/modifier.sol\":134:208  function setPaused(bool status)external{\r... */\n    tag_15:\n        /* \"solidity-learn/modifier.sol\":194:200  status */\n      dup1\n        /* \"solidity-learn/modifier.sol\":184:190  paused */\n      0x00\n      dup1\n        /* \"solidity-learn/modifier.sol\":184:200  paused =  status */\n      0x0100\n      exp\n      dup2\n      sload\n      dup2\n      0xff\n      mul\n      not\n      and\n      swap1\n      dup4\n      iszero\n      iszero\n      mul\n      or\n      swap1\n      sstore\n      pop\n        /* \"solidity-learn/modifier.sol\":134:208  function setPaused(bool status)external{\r... */\n      pop\n      jump\t// out\n        /* \"solidity-learn/modifier.sol\":85:103  bool public paused */\n    tag_17:\n      0x00\n      dup1\n      sload\n      swap1\n      0x0100\n      exp\n      swap1\n      div\n      0xff\n      and\n      dup2\n      jump\t// out\n        /* \"solidity-learn/modifier.sol\":393:464  function inc(uint x) external whenNotPaused  {\r... */\n    tag_23:\n        /* \"solidity-learn/modifier.sol\":260:266  paused */\n      0x00\n      dup1\n      sload\n      swap1\n      0x0100\n      exp\n      swap1\n      div\n      0xff\n      and\n        /* \"solidity-learn/modifier.sol\":259:266  !paused */\n      iszero\n        /* \"solidity-learn/modifier.sol\":251:276  require(!paused,\"paused\") */\n      tag_28\n      jumpi\n      mload(0x40)\n      0x08c379a000000000000000000000000000000000000000000000000000000000\n      dup2\n      mstore\n      0x04\n      add\n      tag_29\n      swap1\n      tag_30\n      jump\t// in\n    tag_29:\n      mload(0x40)\n      dup1\n      swap2\n      sub\n      swap1\n      revert\n    tag_28:\n        /* \"solidity-learn/modifier.sol\":449:454  count */\n      0x01\n      0x00\n        /* \"solidity-learn/modifier.sol\":449:456  count++ */\n      dup2\n      sload\n      dup1\n      swap3\n      swap2\n      swap1\n      tag_32\n      swap1\n      tag_33\n      jump\t// in\n    tag_32:\n      swap2\n      swap1\n      pop\n      sstore\n      pop\n        /* \"solidity-learn/modifier.sol\":393:464  function inc(uint x) external whenNotPaused  {\r... */\n      pop\n      jump\t// out\n        /* \"solidity-learn/modifier.sol\":471:535  function dec() external whenNotPaused {\r... */\n    tag_25:\n        /* \"solidity-learn/modifier.sol\":260:266  paused */\n      0x00\n      dup1\n      sload\n      swap1\n      0x0100\n      exp\n      swap1\n      div\n      0xff\n      and\n        /* \"solidity-learn/modifier.sol\":259:266  !paused */\n      iszero\n        /* \"solidity-learn/modifier.sol\":251:276  require(!paused,\"paused\") */\n      tag_35\n      jumpi\n      mload(0x40)\n      0x08c379a000000000000000000000000000000000000000000000000000000000\n      dup2\n      mstore\n      0x04\n      add\n      tag_36\n      swap1\n      tag_30\n      jump\t// in\n    tag_36:\n      mload(0x40)\n      dup1\n      swap2\n      sub\n      swap1\n      revert\n    tag_35:\n        /* \"solidity-learn/modifier.sol\":520:525  count */\n      0x01\n      0x00\n        /* \"solidity-learn/modifier.sol\":520:527  count++ */\n      dup2\n      sload\n      dup1\n      swap3\n      swap2\n      swap1\n      tag_38\n      swap1\n      tag_33\n      jump\t// in\n    tag_38:\n      swap2\n      swap1\n      pop\n      sstore\n      pop\n        /* \"solidity-learn/modifier.sol\":471:535  function dec() external whenNotPaused {\r... */\n      jump\t// out\n        /* \"#utility.yul\":7:140   */\n    tag_40:\n        /* \"#utility.yul\":50:55   */\n      0x00\n        /* \"#utility.yul\":88:94   */\n      dup2\n        /* \"#utility.yul\":75:95   */\n      calldataload\n        /* \"#utility.yul\":66:95   */\n      swap1\n      pop\n        /* \"#utility.yul\":104:134   */\n      tag_42\n        /* \"#utility.yul\":128:133   */\n      dup2\n        /* \"#utility.yul\":104:134   */\n      tag_43\n      jump\t// in\n    tag_42:\n        /* \"#utility.yul\":7:140   */\n      swap3\n      swap2\n      pop\n      pop\n      jump\t// out\n        /* \"#utility.yul\":146:285   */\n    tag_44:\n        /* \"#utility.yul\":192:197   */\n      0x00\n        /* \"#utility.yul\":230:236   */\n      dup2\n        /* \"#utility.yul\":217:237   */\n      calldataload\n        /* \"#utility.yul\":208:237   */\n      swap1\n      pop\n        /* \"#utility.yul\":246:279   */\n      tag_46\n        /* \"#utility.yul\":273:278   */\n      dup2\n        /* \"#utility.yul\":246:279   */\n      tag_47\n      jump\t// in\n    tag_46:\n        /* \"#utility.yul\":146:285   */\n      swap3\n      swap2\n      pop\n      pop\n      jump\t// out\n        /* \"#utility.yul\":291:614   */\n    tag_14:\n        /* \"#utility.yul\":347:353   */\n      0x00\n        /* \"#utility.yul\":396:398   */\n      0x20\n        /* \"#utility.yul\":384:393   */\n      dup3\n        /* \"#utility.yul\":375:382   */\n      dup5\n        /* \"#utility.yul\":371:394   */\n      sub\n        /* \"#utility.yul\":367:399   */\n      slt\n        /* \"#utility.yul\":364:483   */\n      iszero\n      tag_49\n      jumpi\n        /* \"#utility.yul\":402:481   */\n      tag_50\n      tag_51\n      jump\t// in\n    tag_50:\n        /* \"#utility.yul\":364:483   */\n    tag_49:\n        /* \"#utility.yul\":522:523   */\n      0x00\n        /* \"#utility.yul\":547:597   */\n      tag_52\n        /* \"#utility.yul\":589:596   */\n      dup5\n        /* \"#utility.yul\":580:586   */\n      dup3\n        /* \"#utility.yul\":569:578   */\n      dup6\n        /* \"#utility.yul\":565:587   */\n      add\n        /* \"#utility.yul\":547:597   */\n      tag_40\n      jump\t// in\n    tag_52:\n        /* \"#utility.yul\":537:597   */\n      swap2\n      pop\n        /* \"#utility.yul\":493:607   */\n      pop\n        /* \"#utility.yul\":291:614   */\n      swap3\n      swap2\n      pop\n      pop\n      jump\t// out\n        /* \"#utility.yul\":620:949   */\n    tag_22:\n        /* \"#utility.yul\":679:685   */\n      0x00\n        /* \"#utility.yul\":728:730   */\n      0x20\n        /* \"#utility.yul\":716:725   */\n      dup3\n        /* \"#utility.yul\":707:714   */\n      dup5\n        /* \"#utility.yul\":703:726   */\n      sub\n        /* \"#utility.yul\":699:731   */\n      slt\n        /* \"#utility.yul\":696:815   */\n      iszero\n      tag_54\n      jumpi\n        /* \"#utility.yul\":734:813   */\n      tag_55\n      tag_51\n      jump\t// in\n    tag_55:\n        /* \"#utility.yul\":696:815   */\n    tag_54:\n        /* \"#utility.yul\":854:855   */\n      0x00\n        /* \"#utility.yul\":879:932   */\n      tag_56\n        /* \"#utility.yul\":924:931   */\n      dup5\n        /* \"#utility.yul\":915:921   */\n      dup3\n        /* \"#utility.yul\":904:913   */\n      dup6\n        /* \"#utility.yul\":900:922   */\n      add\n        /* \"#utility.yul\":879:932   */\n      tag_44\n      jump\t// in\n    tag_56:\n        /* \"#utility.yul\":869:932   */\n      swap2\n      pop\n        /* \"#utility.yul\":825:942   */\n      pop\n        /* \"#utility.yul\":620:949   */\n      swap3\n      swap2\n      pop\n      pop\n      jump\t// out\n        /* \"#utility.yul\":955:1064   */\n    tag_57:\n        /* \"#utility.yul\":1036:1057   */\n      tag_59\n        /* \"#utility.yul\":1051:1056   */\n      dup2\n        /* \"#utility.yul\":1036:1057   */\n      tag_60\n      jump\t// in\n    tag_59:\n        /* \"#utility.yul\":1031:1034   */\n      dup3\n        /* \"#utility.yul\":1024:1058   */\n      mstore\n        /* \"#utility.yul\":955:1064   */\n      pop\n      pop\n      jump\t// out\n        /* \"#utility.yul\":1070:1435   */\n    tag_61:\n        /* \"#utility.yul\":1212:1215   */\n      0x00\n        /* \"#utility.yul\":1233:1299   */\n      tag_63\n        /* \"#utility.yul\":1297:1298   */\n      0x06\n        /* \"#utility.yul\":1292:1295   */\n      dup4\n        /* \"#utility.yul\":1233:1299   */\n      tag_64\n      jump\t// in\n    tag_63:\n        /* \"#utility.yul\":1226:1299   */\n      swap2\n      pop\n        /* \"#utility.yul\":1308:1401   */\n      tag_65\n        /* \"#utility.yul\":1397:1400   */\n      dup3\n        /* \"#utility.yul\":1308:1401   */\n      tag_66\n      jump\t// in\n    tag_65:\n        /* \"#utility.yul\":1426:1428   */\n      0x20\n        /* \"#utility.yul\":1421:1424   */\n      dup3\n        /* \"#utility.yul\":1417:1429   */\n      add\n        /* \"#utility.yul\":1410:1429   */\n      swap1\n      pop\n        /* \"#utility.yul\":1070:1435   */\n      swap2\n      swap1\n      pop\n      jump\t// out\n        /* \"#utility.yul\":1441:1559   */\n    tag_67:\n        /* \"#utility.yul\":1528:1552   */\n      tag_69\n        /* \"#utility.yul\":1546:1551   */\n      dup2\n        /* \"#utility.yul\":1528:1552   */\n      tag_70\n      jump\t// in\n    tag_69:\n        /* \"#utility.yul\":1523:1526   */\n      dup3\n        /* \"#utility.yul\":1516:1553   */\n      mstore\n        /* \"#utility.yul\":1441:1559   */\n      pop\n      pop\n      jump\t// out\n        /* \"#utility.yul\":1565:1775   */\n    tag_19:\n        /* \"#utility.yul\":1652:1656   */\n      0x00\n        /* \"#utility.yul\":1690:1692   */\n      0x20\n        /* \"#utility.yul\":1679:1688   */\n      dup3\n        /* \"#utility.yul\":1675:1693   */\n      add\n        /* \"#utility.yul\":1667:1693   */\n      swap1\n      pop\n        /* \"#utility.yul\":1703:1768   */\n      tag_72\n        /* \"#utility.yul\":1765:1766   */\n      0x00\n        /* \"#utility.yul\":1754:1763   */\n      dup4\n        /* \"#utility.yul\":1750:1767   */\n      add\n        /* \"#utility.yul\":1741:1747   */\n      dup5\n        /* \"#utility.yul\":1703:1768   */\n      tag_57\n      jump\t// in\n    tag_72:\n        /* \"#utility.yul\":1565:1775   */\n      swap3\n      swap2\n      pop\n      pop\n      jump\t// out\n        /* \"#utility.yul\":1781:2200   */\n    tag_30:\n        /* \"#utility.yul\":1947:1951   */\n      0x00\n        /* \"#utility.yul\":1985:1987   */\n      0x20\n        /* \"#utility.yul\":1974:1983   */\n      dup3\n        /* \"#utility.yul\":1970:1988   */\n      add\n        /* \"#utility.yul\":1962:1988   */\n      swap1\n      pop\n        /* \"#utility.yul\":2034:2043   */\n      dup2\n        /* \"#utility.yul\":2028:2032   */\n      dup2\n        /* \"#utility.yul\":2024:2044   */\n      sub\n        /* \"#utility.yul\":2020:2021   */\n      0x00\n        /* \"#utility.yul\":2009:2018   */\n      dup4\n        /* \"#utility.yul\":2005:2022   */\n      add\n        /* \"#utility.yul\":1998:2045   */\n      mstore\n        /* \"#utility.yul\":2062:2193   */\n      tag_74\n        /* \"#utility.yul\":2188:2192   */\n      dup2\n        /* \"#utility.yul\":2062:2193   */\n      tag_61\n      jump\t// in\n    tag_74:\n        /* \"#utility.yul\":2054:2193   */\n      swap1\n      pop\n        /* \"#utility.yul\":1781:2200   */\n      swap2\n      swap1\n      pop\n      jump\t// out\n        /* \"#utility.yul\":2206:2428   */\n    tag_11:\n        /* \"#utility.yul\":2299:2303   */\n      0x00\n        /* \"#utility.yul\":2337:2339   */\n      0x20\n        /* \"#utility.yul\":2326:2335   */\n      dup3\n        /* \"#utility.yul\":2322:2340   */\n      add\n        /* \"#utility.yul\":2314:2340   */\n      swap1\n      pop\n        /* \"#utility.yul\":2350:2421   */\n      tag_76\n        /* \"#utility.yul\":2418:2419   */\n      0x00\n        /* \"#utility.yul\":2407:2416   */\n      dup4\n        /* \"#utility.yul\":2403:2420   */\n      add\n        /* \"#utility.yul\":2394:2400   */\n      dup5\n        /* \"#utility.yul\":2350:2421   */\n      tag_67\n      jump\t// in\n    tag_76:\n        /* \"#utility.yul\":2206:2428   */\n      swap3\n      swap2\n      pop\n      pop\n      jump\t// out\n        /* \"#utility.yul\":2515:2684   */\n    tag_64:\n        /* \"#utility.yul\":2599:2610   */\n      0x00\n        /* \"#utility.yul\":2633:2639   */\n      dup3\n        /* \"#utility.yul\":2628:2631   */\n      dup3\n        /* \"#utility.yul\":2621:2640   */\n      mstore\n        /* \"#utility.yul\":2673:2677   */\n      0x20\n        /* \"#utility.yul\":2668:2671   */\n      dup3\n        /* \"#utility.yul\":2664:2678   */\n      add\n        /* \"#utility.yul\":2649:2678   */\n      swap1\n      pop\n        /* \"#utility.yul\":2515:2684   */\n      swap3\n      swap2\n      pop\n      pop\n      jump\t// out\n        /* \"#utility.yul\":2690:2780   */\n    tag_60:\n        /* \"#utility.yul\":2724:2731   */\n      0x00\n        /* \"#utility.yul\":2767:2772   */\n      dup2\n        /* \"#utility.yul\":2760:2773   */\n      iszero\n        /* \"#utility.yul\":2753:2774   */\n      iszero\n        /* \"#utility.yul\":2742:2774   */\n      swap1\n      pop\n        /* \"#utility.yul\":2690:2780   */\n      swap2\n      swap1\n      pop\n      jump\t// out\n        /* \"#utility.yul\":2786:2863   */\n    tag_70:\n        /* \"#utility.yul\":2823:2830   */\n      0x00\n        /* \"#utility.yul\":2852:2857   */\n      dup2\n        /* \"#utility.yul\":2841:2857   */\n      swap1\n      pop\n        /* \"#utility.yul\":2786:2863   */\n      swap2\n      swap1\n      pop\n      jump\t// out\n        /* \"#utility.yul\":2869:3102   */\n    tag_33:\n        /* \"#utility.yul\":2908:2911   */\n      0x00\n        /* \"#utility.yul\":2931:2955   */\n      tag_83\n        /* \"#utility.yul\":2949:2954   */\n      dup3\n        /* \"#utility.yul\":2931:2955   */\n      tag_70\n      jump\t// in\n    tag_83:\n        /* \"#utility.yul\":2922:2955   */\n      swap2\n      pop\n        /* \"#utility.yul\":2977:3043   */\n      0xffffffffffffffffffffffffffffffffffffffffffffffffffffffffffffffff\n        /* \"#utility.yul\":2970:2975   */\n      dup3\n        /* \"#utility.yul\":2967:3044   */\n      eq\n        /* \"#utility.yul\":2964:3067   */\n      iszero\n      tag_84\n      jumpi\n        /* \"#utility.yul\":3047:3065   */\n      tag_85\n      tag_86\n      jump\t// in\n    tag_85:\n        /* \"#utility.yul\":2964:3067   */\n    tag_84:\n        /* \"#utility.yul\":3094:3095   */\n      0x01\n        /* \"#utility.yul\":3087:3092   */\n      dup3\n        /* \"#utility.yul\":3083:3096   */\n      add\n        /* \"#utility.yul\":3076:3096   */\n      swap1\n      pop\n        /* \"#utility.yul\":2869:3102   */\n      swap2\n      swap1\n      pop\n      jump\t// out\n        /* \"#utility.yul\":3108:3288   */\n    tag_86:\n        /* \"#utility.yul\":3156:3233   */\n      0x4e487b7100000000000000000000000000000000000000000000000000000000\n        /* \"#utility.yul\":3153:3154   */\n      0x00\n        /* \"#utility.yul\":3146:3234   */\n      mstore\n        /* \"#utility.yul\":3253:3257   */\n      0x11\n        /* \"#utility.yul\":3250:3251   */\n      0x04\n        /* \"#utility.yul\":3243:3258   */\n      mstore\n        /* \"#utility.yul\":3277:3281   */\n      0x24\n        /* \"#utility.yul\":3274:3275   */\n      0x00\n        /* \"#utility.yul\":3267:3282   */\n      revert\n        /* \"#utility.yul\":3417:3534   */\n    tag_51:\n        /* \"#utility.yul\":3526:3527   */\n      0x00\n        /* \"#utility.yul\":3523:3524   */\n      dup1\n        /* \"#utility.yul\":3516:3528   */\n      revert\n        /* \"#utility.yul\":3540:3696   */\n    tag_66:\n        /* \"#utility.yul\":3680:3688   */\n      0x7061757365640000000000000000000000000000000000000000000000000000\n        /* \"#utility.yul\":3676:3677   */\n      0x00\n        /* \"#utility.yul\":3668:3674   */\n      dup3\n        /* \"#utility.yul\":3664:3678   */\n      add\n        /* \"#utility.yul\":3657:3689   */\n      mstore\n        /* \"#utility.yul\":3540:3696   */\n      pop\n      jump\t// out\n        /* \"#utility.yul\":3702:3818   */\n    tag_43:\n        /* \"#utility.yul\":3772:3793   */\n      tag_93\n        /* \"#utility.yul\":3787:3792   */\n      dup2\n        /* \"#utility.yul\":3772:3793   */\n      tag_60\n      jump\t// in\n    tag_93:\n        /* \"#utility.yul\":3765:3770   */\n      dup2\n        /* \"#utility.yul\":3762:3794   */\n      eq\n        /* \"#utility.yul\":3752:3812   */\n      tag_94\n      jumpi\n        /* \"#utility.yul\":3808:3809   */\n      0x00\n        /* \"#utility.yul\":3805:3806   */\n      dup1\n        /* \"#utility.yul\":3798:3810   */\n      revert\n        /* \"#utility.yul\":3752:3812   */\n    tag_94:\n        /* \"#utility.yul\":3702:3818   */\n      pop\n      jump\t// out\n        /* \"#utility.yul\":3824:3946   */\n    tag_47:\n        /* \"#utility.yul\":3897:3921   */\n      tag_96\n        /* \"#utility.yul\":3915:3920   */\n      dup2\n        /* \"#utility.yul\":3897:3921   */\n      tag_70\n      jump\t// in\n    tag_96:\n        /* \"#utility.yul\":3890:3895   */\n      dup2\n        /* \"#utility.yul\":3887:3922   */\n      eq\n        /* \"#utility.yul\":3877:3940   */\n      tag_97\n      jumpi\n        /* \"#utility.yul\":3936:3937   */\n      0x00\n        /* \"#utility.yul\":3933:3934   */\n      dup1\n        /* \"#utility.yul\":3926:3938   */\n      revert\n        /* \"#utility.yul\":3877:3940   */\n    tag_97:\n        /* \"#utility.yul\":3824:3946   */\n      pop\n      jump\t// out\n\n    auxdata: 0xa264697066735822122029de8605fe9baead34a1f040164e2a80bcd87daf077637e7db06e841649a819f64736f6c63430008070033\n}\n",
				"bytecode": {
					"linkReferences": {},
					"object": "608060405234801561001057600080fd5b5061042a806100206000396000f3fe608060405234801561001057600080fd5b50600436106100575760003560e01c806306661abd1461005c57806316c38b3c1461007a5780635c975abb14610096578063812600df146100b4578063b3bcfa82146100d0575b600080fd5b6100646100da565b60405161007191906102de565b60405180910390f35b610094600480360381019061008f9190610208565b6100e0565b005b61009e6100fc565b6040516100ab91906102a3565b60405180910390f35b6100ce60048036038101906100c99190610235565b61010d565b005b6100d8610176565b005b60015481565b806000806101000a81548160ff02191690831515021790555050565b60008054906101000a900460ff1681565b60008054906101000a900460ff161561015b576040517f08c379a0000000000000000000000000000000000000000000000000000000008152600401610152906102be565b60405180910390fd5b6001600081548092919061016e90610320565b919050555050565b60008054906101000a900460ff16156101c4576040517f08c379a00000000000000000000000000000000000000000000000000000000081526004016101bb906102be565b60405180910390fd5b600160008154809291906101d790610320565b9190505550565b6000813590506101ed816103c6565b92915050565b600081359050610202816103dd565b92915050565b60006020828403121561021e5761021d610398565b5b600061022c848285016101de565b91505092915050565b60006020828403121561024b5761024a610398565b5b6000610259848285016101f3565b91505092915050565b61026b8161030a565b82525050565b600061027e6006836102f9565b91506102898261039d565b602082019050919050565b61029d81610316565b82525050565b60006020820190506102b86000830184610262565b92915050565b600060208201905081810360008301526102d781610271565b9050919050565b60006020820190506102f36000830184610294565b92915050565b600082825260208201905092915050565b60008115159050919050565b6000819050919050565b600061032b82610316565b91507fffffffffffffffffffffffffffffffffffffffffffffffffffffffffffffffff82141561035e5761035d610369565b5b600182019050919050565b7f4e487b7100000000000000000000000000000000000000000000000000000000600052601160045260246000fd5b600080fd5b7f7061757365640000000000000000000000000000000000000000000000000000600082015250565b6103cf8161030a565b81146103da57600080fd5b50565b6103e681610316565b81146103f157600080fd5b5056fea264697066735822122029de8605fe9baead34a1f040164e2a80bcd87daf077637e7db06e841649a819f64736f6c63430008070033",
					"opcodes": "PUSH1 0x80 PUSH1 0x40 MSTORE CALLVALUE DUP1 ISZERO PUSH2 0x10 JUMPI PUSH1 0x0 DUP1 REVERT JUMPDEST POP PUSH2 0x42A DUP1 PUSH2 0x20 PUSH1 0x0 CODECOPY PUSH1 0x0 RETURN INVALID PUSH1 0x80 PUSH1 0x40 MSTORE CALLVALUE DUP1 ISZERO PUSH2 0x10 JUMPI PUSH1 0x0 DUP1 REVERT JUMPDEST POP PUSH1 0x4 CALLDATASIZE LT PUSH2 0x57 JUMPI PUSH1 0x0 CALLDATALOAD PUSH1 0xE0 SHR DUP1 PUSH4 0x6661ABD EQ PUSH2 0x5C JUMPI DUP1 PUSH4 0x16C38B3C EQ PUSH2 0x7A JUMPI DUP1 PUSH4 0x5C975ABB EQ PUSH2 0x96 JUMPI DUP1 PUSH4 0x812600DF EQ PUSH2 0xB4 JUMPI DUP1 PUSH4 0xB3BCFA82 EQ PUSH2 0xD0 JUMPI JUMPDEST PUSH1 0x0 DUP1 REVERT JUMPDEST PUSH2 0x64 PUSH2 0xDA JUMP JUMPDEST PUSH1 0x40 MLOAD PUSH2 0x71 SWAP2 SWAP1 PUSH2 0x2DE JUMP JUMPDEST PUSH1 0x40 MLOAD DUP1 SWAP2 SUB SWAP1 RETURN JUMPDEST PUSH2 0x94 PUSH1 0x4 DUP1 CALLDATASIZE SUB DUP2 ADD SWAP1 PUSH2 0x8F SWAP2 SWAP1 PUSH2 0x208 JUMP JUMPDEST PUSH2 0xE0 JUMP JUMPDEST STOP JUMPDEST PUSH2 0x9E PUSH2 0xFC JUMP JUMPDEST PUSH1 0x40 MLOAD PUSH2 0xAB SWAP2 SWAP1 PUSH2 0x2A3 JUMP JUMPDEST PUSH1 0x40 MLOAD DUP1 SWAP2 SUB SWAP1 RETURN JUMPDEST PUSH2 0xCE PUSH1 0x4 DUP1 CALLDATASIZE SUB DUP2 ADD SWAP1 PUSH2 0xC9 SWAP2 SWAP1 PUSH2 0x235 JUMP JUMPDEST PUSH2 0x10D JUMP JUMPDEST STOP JUMPDEST PUSH2 0xD8 PUSH2 0x176 JUMP JUMPDEST STOP JUMPDEST PUSH1 0x1 SLOAD DUP2 JUMP JUMPDEST DUP1 PUSH1 0x0 DUP1 PUSH2 0x100 EXP DUP2 SLOAD DUP2 PUSH1 0xFF MUL NOT AND SWAP1 DUP4 ISZERO ISZERO MUL OR SWAP1 SSTORE POP POP JUMP JUMPDEST PUSH1 0x0 DUP1 SLOAD SWAP1 PUSH2 0x100 EXP SWAP1 DIV PUSH1 0xFF AND DUP2 JUMP JUMPDEST PUSH1 0x0 DUP1 SLOAD SWAP1 PUSH2 0x100 EXP SWAP1 DIV PUSH1 0xFF AND ISZERO PUSH2 0x15B JUMPI PUSH1 0x40 MLOAD PUSH32 0x8C379A000000000000000000000000000000000000000000000000000000000 DUP2 MSTORE PUSH1 0x4 ADD PUSH2 0x152 SWAP1 PUSH2 0x2BE JUMP JUMPDEST PUSH1 0x40 MLOAD DUP1 SWAP2 SUB SWAP1 REVERT JUMPDEST PUSH1 0x1 PUSH1 0x0 DUP2 SLOAD DUP1 SWAP3 SWAP2 SWAP1 PUSH2 0x16E SWAP1 PUSH2 0x320 JUMP JUMPDEST SWAP2 SWAP1 POP SSTORE POP POP JUMP JUMPDEST PUSH1 0x0 DUP1 SLOAD SWAP1 PUSH2 0x100 EXP SWAP1 DIV PUSH1 0xFF AND ISZERO PUSH2 0x1C4 JUMPI PUSH1 0x40 MLOAD PUSH32 0x8C379A000000000000000000000000000000000000000000000000000000000 DUP2 MSTORE PUSH1 0x4 ADD PUSH2 0x1BB SWAP1 PUSH2 0x2BE JUMP JUMPDEST PUSH1 0x40 MLOAD DUP1 SWAP2 SUB SWAP1 REVERT JUMPDEST PUSH1 0x1 PUSH1 0x0 DUP2 SLOAD DUP1 SWAP3 SWAP2 SWAP1 PUSH2 0x1D7 SWAP1 PUSH2 0x320 JUMP JUMPDEST SWAP2 SWAP1 POP SSTORE POP JUMP JUMPDEST PUSH1 0x0 DUP2 CALLDATALOAD SWAP1 POP PUSH2 0x1ED DUP2 PUSH2 0x3C6 JUMP JUMPDEST SWAP3 SWAP2 POP POP JUMP JUMPDEST PUSH1 0x0 DUP2 CALLDATALOAD SWAP1 POP PUSH2 0x202 DUP2 PUSH2 0x3DD JUMP JUMPDEST SWAP3 SWAP2 POP POP JUMP JUMPDEST PUSH1 0x0 PUSH1 0x20 DUP3 DUP5 SUB SLT ISZERO PUSH2 0x21E JUMPI PUSH2 0x21D PUSH2 0x398 JUMP JUMPDEST JUMPDEST PUSH1 0x0 PUSH2 0x22C DUP5 DUP3 DUP6 ADD PUSH2 0x1DE JUMP JUMPDEST SWAP2 POP POP SWAP3 SWAP2 POP POP JUMP JUMPDEST PUSH1 0x0 PUSH1 0x20 DUP3 DUP5 SUB SLT ISZERO PUSH2 0x24B JUMPI PUSH2 0x24A PUSH2 0x398 JUMP JUMPDEST JUMPDEST PUSH1 0x0 PUSH2 0x259 DUP5 DUP3 DUP6 ADD PUSH2 0x1F3 JUMP JUMPDEST SWAP2 POP POP SWAP3 SWAP2 POP POP JUMP JUMPDEST PUSH2 0x26B DUP2 PUSH2 0x30A JUMP JUMPDEST DUP3 MSTORE POP POP JUMP JUMPDEST PUSH1 0x0 PUSH2 0x27E PUSH1 0x6 DUP4 PUSH2 0x2F9 JUMP JUMPDEST SWAP2 POP PUSH2 0x289 DUP3 PUSH2 0x39D JUMP JUMPDEST PUSH1 0x20 DUP3 ADD SWAP1 POP SWAP2 SWAP1 POP JUMP JUMPDEST PUSH2 0x29D DUP2 PUSH2 0x316 JUMP JUMPDEST DUP3 MSTORE POP POP JUMP JUMPDEST PUSH1 0x0 PUSH1 0x20 DUP3 ADD SWAP1 POP PUSH2 0x2B8 PUSH1 0x0 DUP4 ADD DUP5 PUSH2 0x262 JUMP JUMPDEST SWAP3 SWAP2 POP POP JUMP JUMPDEST PUSH1 0x0 PUSH1 0x20 DUP3 ADD SWAP1 POP DUP2 DUP2 SUB PUSH1 0x0 DUP4 ADD MSTORE PUSH2 0x2D7 DUP2 PUSH2 0x271 JUMP JUMPDEST SWAP1 POP SWAP2 SWAP1 POP JUMP JUMPDEST PUSH1 0x0 PUSH1 0x20 DUP3 ADD SWAP1 POP PUSH2 0x2F3 PUSH1 0x0 DUP4 ADD DUP5 PUSH2 0x294 JUMP JUMPDEST SWAP3 SWAP2 POP POP JUMP JUMPDEST PUSH1 0x0 DUP3 DUP3 MSTORE PUSH1 0x20 DUP3 ADD SWAP1 POP SWAP3 SWAP2 POP POP JUMP JUMPDEST PUSH1 0x0 DUP2 ISZERO ISZERO SWAP1 POP SWAP2 SWAP1 POP JUMP JUMPDEST PUSH1 0x0 DUP2 SWAP1 POP SWAP2 SWAP1 POP JUMP JUMPDEST PUSH1 0x0 PUSH2 0x32B DUP3 PUSH2 0x316 JUMP JUMPDEST SWAP2 POP PUSH32 0xFFFFFFFFFFFFFFFFFFFFFFFFFFFFFFFFFFFFFFFFFFFFFFFFFFFFFFFFFFFFFFFF DUP3 EQ ISZERO PUSH2 0x35E JUMPI PUSH2 0x35D PUSH2 0x369 JUMP JUMPDEST JUMPDEST PUSH1 0x1 DUP3 ADD SWAP1 POP SWAP2 SWAP1 POP JUMP JUMPDEST PUSH32 0x4E487B7100000000000000000000000000000000000000000000000000000000 PUSH1 0x0 MSTORE PUSH1 0x11 PUSH1 0x4 MSTORE PUSH1 0x24 PUSH1 0x0 REVERT JUMPDEST PUSH1 0x0 DUP1 REVERT JUMPDEST PUSH32 0x7061757365640000000000000000000000000000000000000000000000000000 PUSH1 0x0 DUP3 ADD MSTORE POP JUMP JUMPDEST PUSH2 0x3CF DUP2 PUSH2 0x30A JUMP JUMPDEST DUP2 EQ PUSH2 0x3DA JUMPI PUSH1 0x0 DUP1 REVERT JUMPDEST POP JUMP JUMPDEST PUSH2 0x3E6 DUP2 PUSH2 0x316 JUMP JUMPDEST DUP2 EQ PUSH2 0x3F1 JUMPI PUSH1 0x0 DUP1 REVERT JUMPDEST POP JUMP INVALID LOG2 PUSH5 0x6970667358 0x22 SLT KECCAK256 0x29 0xDE DUP7 SDIV INVALID SWAP12 0xAE 0xAD CALLVALUE LOG1 CREATE BLOCKHASH AND 0x4E 0x2A DUP1 0xBC 0xD8 PUSH30 0xAF077637E7DB06E841649A819F64736F6C63430008070033000000000000 "
				},
				"gasEstimates": {
					"creation": {
						"codeDepositCost": "213200",
						"executionCost": "257",
						"totalCost": "213457"
					},
					"external": {
						"count()": "2407",
						"dec()": "26723",
						"inc(uint256)": "infinite",
						"paused()": "2490",
						"setPaused(bool)": "24679"
					}
				},
				"methodIdentifiers": {
					"count()": "06661abd",
					"dec()": "b3bcfa82",
					"inc(uint256)": "812600df",
					"paused()": "5c975abb",
					"setPaused(bool)": "16c38b3c"
				}
			},
			"storageLayout": {
				"storage": [
					{
						"astId": 3,
						"contract": "solidity-learn/modifier.sol:modifierTest",
						"label": "paused",
						"offset": 0,
						"slot": "0",
						"type": "t_bool"
					},
					{
						"astId": 5,
						"contract": "solidity-learn/modifier.sol:modifierTest",
						"label": "count",
						"offset": 0,
						"slot": "1",
						"type": "t_uint256"
					}
				],
				"types": {
					"t_bool": {
						"encoding": "inplace",
						"label": "bool",
						"numberOfBytes": "1"
					},
					"t_uint256": {
						"encoding": "inplace",
						"label": "uint256",
						"numberOfBytes": "32"
					}
				}
			},
			"userdoc": {
				"kind": "user",
				"methods": {},
				"version": 1
			}
		}
	}
}