{
	"solidity-learn/helloworld.sol": {
		"HelloWorld": {
			"abi": [
				{
					"inputs": [],
					"name": "myString",
					"outputs": [
						{
							"internalType": "string",
							"name": "",
							"type": "string"
						}
					],
					"stateMutability": "view",
					"type": "function"
				},
				{
					"inputs": [],
					"name": "test",
					"outputs": [
						{
							"internalType": "uint40",
							"name": "",
							"type": "uint40"
						}
					],
					"stateMutability": "view",
					"type": "function"
				}
			],
			"devdoc": {
				"kind": "dev",
				"methods": {},
				"version": 1
			},
			"evm": {
				"assembly": "    /* \"solidity-learn/helloworld.sol\":55:153  contract HelloWorld{\r... */\n  mstore(0x40, 0x80)\n    /* \"solidity-learn/helloworld.sol\":81:119  string public myString = \"hello world\" */\n  mload(0x40)\n  dup1\n  0x40\n  add\n  0x40\n  mstore\n  dup1\n  0x0b\n  dup2\n  mstore\n  0x20\n  add\n  0x68656c6c6f20776f726c64000000000000000000000000000000000000000000\n  dup2\n  mstore\n  pop\n  0x00\n  swap1\n  dup1\n  mload\n  swap1\n  0x20\n  add\n  swap1\n  tag_1\n  swap3\n  swap2\n  swap1\n  tag_2\n  jump\t// in\ntag_1:\n  pop\n    /* \"solidity-learn/helloworld.sol\":148:149  1 */\n  0x01\n    /* \"solidity-learn/helloworld.sol\":127:149  uint40 public test = 1 */\n  dup1\n  exp(0x0100, 0x00)\n  dup2\n  sload\n  dup2\n  0xffffffffff\n  mul\n  not\n  and\n  swap1\n  dup4\n  0xffffffffff\n  and\n  mul\n  or\n  swap1\n  sstore\n  pop\n    /* \"solidity-learn/helloworld.sol\":55:153  contract HelloWorld{\r... */\n  callvalue\n  dup1\n  iszero\n  tag_3\n  jumpi\n  0x00\n  dup1\n  revert\ntag_3:\n  pop\n  jump(tag_4)\ntag_2:\n  dup3\n  dup1\n  sload\n  tag_5\n  swap1\n  tag_6\n  jump\t// in\ntag_5:\n  swap1\n  0x00\n  mstore\n  keccak256(0x00, 0x20)\n  swap1\n  0x1f\n  add\n  0x20\n  swap1\n  div\n  dup2\n  add\n  swap3\n  dup3\n  tag_8\n  jumpi\n  0x00\n  dup6\n  sstore\n  jump(tag_7)\ntag_8:\n  dup3\n  0x1f\n  lt\n  tag_9\n  jumpi\n  dup1\n  mload\n  not(0xff)\n  and\n  dup4\n  dup1\n  add\n  or\n  dup6\n  sstore\n  jump(tag_7)\ntag_9:\n  dup3\n  dup1\n  add\n  0x01\n  add\n  dup6\n  sstore\n  dup3\n  iszero\n  tag_7\n  jumpi\n  swap2\n  dup3\n  add\ntag_10:\n  dup3\n  dup2\n  gt\n  iszero\n  tag_11\n  jumpi\n  dup3\n  mload\n  dup3\n  sstore\n  swap2\n  0x20\n  add\n  swap2\n  swap1\n  0x01\n  add\n  swap1\n  jump(tag_10)\ntag_11:\ntag_7:\n  pop\n  swap1\n  pop\n  tag_12\n  swap2\n  swap1\n  tag_13\n  jump\t// in\ntag_12:\n  pop\n  swap1\n  jump\t// out\ntag_13:\ntag_14:\n  dup1\n  dup3\n  gt\n  iszero\n  tag_15\n  jumpi\n  0x00\n  dup2\n  0x00\n  swap1\n  sstore\n  pop\n  0x01\n  add\n  jump(tag_14)\ntag_15:\n  pop\n  swap1\n  jump\t// out\n    /* \"#utility.yul\":7:327   */\ntag_6:\n    /* \"#utility.yul\":51:57   */\n  0x00\n    /* \"#utility.yul\":88:89   */\n  0x02\n    /* \"#utility.yul\":82:86   */\n  dup3\n    /* \"#utility.yul\":78:90   */\n  div\n    /* \"#utility.yul\":68:90   */\n  swap1\n  pop\n    /* \"#utility.yul\":135:136   */\n  0x01\n    /* \"#utility.yul\":129:133   */\n  dup3\n    /* \"#utility.yul\":125:137   */\n  and\n    /* \"#utility.yul\":156:174   */\n  dup1\n    /* \"#utility.yul\":146:227   */\n  tag_18\n  jumpi\n    /* \"#utility.yul\":212:216   */\n  0x7f\n    /* \"#utility.yul\":204:210   */\n  dup3\n    /* \"#utility.yul\":200:217   */\n  and\n    /* \"#utility.yul\":190:217   */\n  swap2\n  pop\n    /* \"#utility.yul\":146:227   */\ntag_18:\n    /* \"#utility.yul\":274:276   */\n  0x20\n    /* \"#utility.yul\":266:272   */\n  dup3\n    /* \"#utility.yul\":263:277   */\n  lt\n    /* \"#utility.yul\":243:261   */\n  dup2\n    /* \"#utility.yul\":240:278   */\n  eq\n    /* \"#utility.yul\":237:321   */\n  iszero\n  tag_19\n  jumpi\n    /* \"#utility.yul\":293:311   */\n  tag_20\n  tag_21\n  jump\t// in\ntag_20:\n    /* \"#utility.yul\":237:321   */\ntag_19:\n    /* \"#utility.yul\":58:327   */\n  pop\n    /* \"#utility.yul\":7:327   */\n  swap2\n  swap1\n  pop\n  jump\t// out\n    /* \"#utility.yul\":333:513   */\ntag_21:\n    /* \"#utility.yul\":381:458   */\n  0x4e487b7100000000000000000000000000000000000000000000000000000000\n    /* \"#utility.yul\":378:379   */\n  0x00\n    /* \"#utility.yul\":371:459   */\n  mstore\n    /* \"#utility.yul\":478:482   */\n  0x22\n    /* \"#utility.yul\":475:476   */\n  0x04\n    /* \"#utility.yul\":468:483   */\n  mstore\n    /* \"#utility.yul\":502:506   */\n  0x24\n    /* \"#utility.yul\":499:500   */\n  0x00\n    /* \"#utility.yul\":492:507   */\n  revert\n    /* \"solidity-learn/helloworld.sol\":55:153  contract HelloWorld{\r... */\ntag_4:\n  dataSize(sub_0)\n  dup1\n  dataOffset(sub_0)\n  0x00\n  codecopy\n  0x00\n  return\nstop\n\nsub_0: assembly {\n        /* \"solidity-learn/helloworld.sol\":55:153  contract HelloWorld{\r... */\n      mstore(0x40, 0x80)\n      callvalue\n      dup1\n      iszero\n      tag_1\n      jumpi\n      0x00\n      dup1\n      revert\n    tag_1:\n      pop\n      jumpi(tag_2, lt(calldatasize, 0x04))\n      shr(0xe0, calldataload(0x00))\n      dup1\n      0x492bfa18\n      eq\n      tag_3\n      jumpi\n      dup1\n      0xf8a8fd6d\n      eq\n      tag_4\n      jumpi\n    tag_2:\n      0x00\n      dup1\n      revert\n        /* \"solidity-learn/helloworld.sol\":81:119  string public myString = \"hello world\" */\n    tag_3:\n      tag_5\n      tag_6\n      jump\t// in\n    tag_5:\n      mload(0x40)\n      tag_7\n      swap2\n      swap1\n      tag_8\n      jump\t// in\n    tag_7:\n      mload(0x40)\n      dup1\n      swap2\n      sub\n      swap1\n      return\n        /* \"solidity-learn/helloworld.sol\":127:149  uint40 public test = 1 */\n    tag_4:\n      tag_9\n      tag_10\n      jump\t// in\n    tag_9:\n      mload(0x40)\n      tag_11\n      swap2\n      swap1\n      tag_12\n      jump\t// in\n    tag_11:\n      mload(0x40)\n      dup1\n      swap2\n      sub\n      swap1\n      return\n        /* \"solidity-learn/helloworld.sol\":81:119  string public myString = \"hello world\" */\n    tag_6:\n      0x00\n      dup1\n      sload\n      tag_13\n      swap1\n      tag_14\n      jump\t// in\n    tag_13:\n      dup1\n      0x1f\n      add\n      0x20\n      dup1\n      swap2\n      div\n      mul\n      0x20\n      add\n      mload(0x40)\n      swap1\n      dup2\n      add\n      0x40\n      mstore\n      dup1\n      swap3\n      swap2\n      swap1\n      dup2\n      dup2\n      mstore\n      0x20\n      add\n      dup3\n      dup1\n      sload\n      tag_15\n      swap1\n      tag_14\n      jump\t// in\n    tag_15:\n      dup1\n      iszero\n      tag_16\n      jumpi\n      dup1\n      0x1f\n      lt\n      tag_17\n      jumpi\n      0x0100\n      dup1\n      dup4\n      sload\n      div\n      mul\n      dup4\n      mstore\n      swap2\n      0x20\n      add\n      swap2\n      jump(tag_16)\n    tag_17:\n      dup3\n      add\n      swap2\n      swap1\n      0x00\n      mstore\n      keccak256(0x00, 0x20)\n      swap1\n    tag_18:\n      dup2\n      sload\n      dup2\n      mstore\n      swap1\n      0x01\n      add\n      swap1\n      0x20\n      add\n      dup1\n      dup4\n      gt\n      tag_18\n      jumpi\n      dup3\n      swap1\n      sub\n      0x1f\n      and\n      dup3\n      add\n      swap2\n    tag_16:\n      pop\n      pop\n      pop\n      pop\n      pop\n      dup2\n      jump\t// out\n        /* \"solidity-learn/helloworld.sol\":127:149  uint40 public test = 1 */\n    tag_10:\n      0x01\n      0x00\n      swap1\n      sload\n      swap1\n      0x0100\n      exp\n      swap1\n      div\n      0xffffffffff\n      and\n      dup2\n      jump\t// out\n        /* \"#utility.yul\":7:371   */\n    tag_20:\n        /* \"#utility.yul\":95:98   */\n      0x00\n        /* \"#utility.yul\":123:162   */\n      tag_22\n        /* \"#utility.yul\":156:161   */\n      dup3\n        /* \"#utility.yul\":123:162   */\n      tag_23\n      jump\t// in\n    tag_22:\n        /* \"#utility.yul\":178:249   */\n      tag_24\n        /* \"#utility.yul\":242:248   */\n      dup2\n        /* \"#utility.yul\":237:240   */\n      dup6\n        /* \"#utility.yul\":178:249   */\n      tag_25\n      jump\t// in\n    tag_24:\n        /* \"#utility.yul\":171:249   */\n      swap4\n      pop\n        /* \"#utility.yul\":258:310   */\n      tag_26\n        /* \"#utility.yul\":303:309   */\n      dup2\n        /* \"#utility.yul\":298:301   */\n      dup6\n        /* \"#utility.yul\":291:295   */\n      0x20\n        /* \"#utility.yul\":284:289   */\n      dup7\n        /* \"#utility.yul\":280:296   */\n      add\n        /* \"#utility.yul\":258:310   */\n      tag_27\n      jump\t// in\n    tag_26:\n        /* \"#utility.yul\":335:364   */\n      tag_28\n        /* \"#utility.yul\":357:363   */\n      dup2\n        /* \"#utility.yul\":335:364   */\n      tag_29\n      jump\t// in\n    tag_28:\n        /* \"#utility.yul\":330:333   */\n      dup5\n        /* \"#utility.yul\":326:365   */\n      add\n        /* \"#utility.yul\":319:365   */\n      swap2\n      pop\n        /* \"#utility.yul\":99:371   */\n      pop\n        /* \"#utility.yul\":7:371   */\n      swap3\n      swap2\n      pop\n      pop\n      jump\t// out\n        /* \"#utility.yul\":377:492   */\n    tag_30:\n        /* \"#utility.yul\":462:485   */\n      tag_32\n        /* \"#utility.yul\":479:484   */\n      dup2\n        /* \"#utility.yul\":462:485   */\n      tag_33\n      jump\t// in\n    tag_32:\n        /* \"#utility.yul\":457:460   */\n      dup3\n        /* \"#utility.yul\":450:486   */\n      mstore\n        /* \"#utility.yul\":377:492   */\n      pop\n      pop\n      jump\t// out\n        /* \"#utility.yul\":498:811   */\n    tag_8:\n        /* \"#utility.yul\":611:615   */\n      0x00\n        /* \"#utility.yul\":649:651   */\n      0x20\n        /* \"#utility.yul\":638:647   */\n      dup3\n        /* \"#utility.yul\":634:652   */\n      add\n        /* \"#utility.yul\":626:652   */\n      swap1\n      pop\n        /* \"#utility.yul\":698:707   */\n      dup2\n        /* \"#utility.yul\":692:696   */\n      dup2\n        /* \"#utility.yul\":688:708   */\n      sub\n        /* \"#utility.yul\":684:685   */\n      0x00\n        /* \"#utility.yul\":673:682   */\n      dup4\n        /* \"#utility.yul\":669:686   */\n      add\n        /* \"#utility.yul\":662:709   */\n      mstore\n        /* \"#utility.yul\":726:804   */\n      tag_35\n        /* \"#utility.yul\":799:803   */\n      dup2\n        /* \"#utility.yul\":790:796   */\n      dup5\n        /* \"#utility.yul\":726:804   */\n      tag_20\n      jump\t// in\n    tag_35:\n        /* \"#utility.yul\":718:804   */\n      swap1\n      pop\n        /* \"#utility.yul\":498:811   */\n      swap3\n      swap2\n      pop\n      pop\n      jump\t// out\n        /* \"#utility.yul\":817:1035   */\n    tag_12:\n        /* \"#utility.yul\":908:912   */\n      0x00\n        /* \"#utility.yul\":946:948   */\n      0x20\n        /* \"#utility.yul\":935:944   */\n      dup3\n        /* \"#utility.yul\":931:949   */\n      add\n        /* \"#utility.yul\":923:949   */\n      swap1\n      pop\n        /* \"#utility.yul\":959:1028   */\n      tag_37\n        /* \"#utility.yul\":1025:1026   */\n      0x00\n        /* \"#utility.yul\":1014:1023   */\n      dup4\n        /* \"#utility.yul\":1010:1027   */\n      add\n        /* \"#utility.yul\":1001:1007   */\n      dup5\n        /* \"#utility.yul\":959:1028   */\n      tag_30\n      jump\t// in\n    tag_37:\n        /* \"#utility.yul\":817:1035   */\n      swap3\n      swap2\n      pop\n      pop\n      jump\t// out\n        /* \"#utility.yul\":1041:1140   */\n    tag_23:\n        /* \"#utility.yul\":1093:1099   */\n      0x00\n        /* \"#utility.yul\":1127:1132   */\n      dup2\n        /* \"#utility.yul\":1121:1133   */\n      mload\n        /* \"#utility.yul\":1111:1133   */\n      swap1\n      pop\n        /* \"#utility.yul\":1041:1140   */\n      swap2\n      swap1\n      pop\n      jump\t// out\n        /* \"#utility.yul\":1146:1315   */\n    tag_25:\n        /* \"#utility.yul\":1230:1241   */\n      0x00\n        /* \"#utility.yul\":1264:1270   */\n      dup3\n        /* \"#utility.yul\":1259:1262   */\n      dup3\n        /* \"#utility.yul\":1252:1271   */\n      mstore\n        /* \"#utility.yul\":1304:1308   */\n      0x20\n        /* \"#utility.yul\":1299:1302   */\n      dup3\n        /* \"#utility.yul\":1295:1309   */\n      add\n        /* \"#utility.yul\":1280:1309   */\n      swap1\n      pop\n        /* \"#utility.yul\":1146:1315   */\n      swap3\n      swap2\n      pop\n      pop\n      jump\t// out\n        /* \"#utility.yul\":1321:1416   */\n    tag_33:\n        /* \"#utility.yul\":1357:1364   */\n      0x00\n        /* \"#utility.yul\":1397:1409   */\n      0xffffffffff\n        /* \"#utility.yul\":1390:1395   */\n      dup3\n        /* \"#utility.yul\":1386:1410   */\n      and\n        /* \"#utility.yul\":1375:1410   */\n      swap1\n      pop\n        /* \"#utility.yul\":1321:1416   */\n      swap2\n      swap1\n      pop\n      jump\t// out\n        /* \"#utility.yul\":1422:1729   */\n    tag_27:\n        /* \"#utility.yul\":1490:1491   */\n      0x00\n        /* \"#utility.yul\":1500:1613   */\n    tag_42:\n        /* \"#utility.yul\":1514:1520   */\n      dup4\n        /* \"#utility.yul\":1511:1512   */\n      dup2\n        /* \"#utility.yul\":1508:1521   */\n      lt\n        /* \"#utility.yul\":1500:1613   */\n      iszero\n      tag_44\n      jumpi\n        /* \"#utility.yul\":1599:1600   */\n      dup1\n        /* \"#utility.yul\":1594:1597   */\n      dup3\n        /* \"#utility.yul\":1590:1601   */\n      add\n        /* \"#utility.yul\":1584:1602   */\n      mload\n        /* \"#utility.yul\":1580:1581   */\n      dup2\n        /* \"#utility.yul\":1575:1578   */\n      dup5\n        /* \"#utility.yul\":1571:1582   */\n      add\n        /* \"#utility.yul\":1564:1603   */\n      mstore\n        /* \"#utility.yul\":1536:1538   */\n      0x20\n        /* \"#utility.yul\":1533:1534   */\n      dup2\n        /* \"#utility.yul\":1529:1539   */\n      add\n        /* \"#utility.yul\":1524:1539   */\n      swap1\n      pop\n        /* \"#utility.yul\":1500:1613   */\n      jump(tag_42)\n    tag_44:\n        /* \"#utility.yul\":1631:1637   */\n      dup4\n        /* \"#utility.yul\":1628:1629   */\n      dup2\n        /* \"#utility.yul\":1625:1638   */\n      gt\n        /* \"#utility.yul\":1622:1723   */\n      iszero\n      tag_45\n      jumpi\n        /* \"#utility.yul\":1711:1712   */\n      0x00\n        /* \"#utility.yul\":1702:1708   */\n      dup5\n        /* \"#utility.yul\":1697:1700   */\n      dup5\n        /* \"#utility.yul\":1693:1709   */\n      add\n        /* \"#utility.yul\":1686:1713   */\n      mstore\n        /* \"#utility.yul\":1622:1723   */\n    tag_45:\n        /* \"#utility.yul\":1471:1729   */\n      pop\n        /* \"#utility.yul\":1422:1729   */\n      pop\n      pop\n      pop\n      jump\t// out\n        /* \"#utility.yul\":1735:2055   */\n    tag_14:\n        /* \"#utility.yul\":1779:1785   */\n      0x00\n        /* \"#utility.yul\":1816:1817   */\n      0x02\n        /* \"#utility.yul\":1810:1814   */\n      dup3\n        /* \"#utility.yul\":1806:1818   */\n      div\n        /* \"#utility.yul\":1796:1818   */\n      swap1\n      pop\n        /* \"#utility.yul\":1863:1864   */\n      0x01\n        /* \"#utility.yul\":1857:1861   */\n      dup3\n        /* \"#utility.yul\":1853:1865   */\n      and\n        /* \"#utility.yul\":1884:1902   */\n      dup1\n        /* \"#utility.yul\":1874:1955   */\n      tag_47\n      jumpi\n        /* \"#utility.yul\":1940:1944   */\n      0x7f\n        /* \"#utility.yul\":1932:1938   */\n      dup3\n        /* \"#utility.yul\":1928:1945   */\n      and\n        /* \"#utility.yul\":1918:1945   */\n      swap2\n      pop\n        /* \"#utility.yul\":1874:1955   */\n    tag_47:\n        /* \"#utility.yul\":2002:2004   */\n      0x20\n        /* \"#utility.yul\":1994:2000   */\n      dup3\n        /* \"#utility.yul\":1991:2005   */\n      lt\n        /* \"#utility.yul\":1971:1989   */\n      dup2\n        /* \"#utility.yul\":1968:2006   */\n      eq\n        /* \"#utility.yul\":1965:2049   */\n      iszero\n      tag_48\n      jumpi\n        /* \"#utility.yul\":2021:2039   */\n      tag_49\n      tag_50\n      jump\t// in\n    tag_49:\n        /* \"#utility.yul\":1965:2049   */\n    tag_48:\n        /* \"#utility.yul\":1786:2055   */\n      pop\n        /* \"#utility.yul\":1735:2055   */\n      swap2\n      swap1\n      pop\n      jump\t// out\n        /* \"#utility.yul\":2061:2241   */\n    tag_50:\n        /* \"#utility.yul\":2109:2186   */\n      0x4e487b7100000000000000000000000000000000000000000000000000000000\n        /* \"#utility.yul\":2106:2107   */\n      0x00\n        /* \"#utility.yul\":2099:2187   */\n      mstore\n        /* \"#utility.yul\":2206:2210   */\n      0x22\n        /* \"#utility.yul\":2203:2204   */\n      0x04\n        /* \"#utility.yul\":2196:2211   */\n      mstore\n        /* \"#utility.yul\":2230:2234   */\n      0x24\n        /* \"#utility.yul\":2227:2228   */\n      0x00\n        /* \"#utility.yul\":2220:2235   */\n      revert\n        /* \"#utility.yul\":2247:2349   */\n    tag_29:\n        /* \"#utility.yul\":2288:2294   */\n      0x00\n        /* \"#utility.yul\":2339:2341   */\n      0x1f\n        /* \"#utility.yul\":2335:2342   */\n      not\n        /* \"#utility.yul\":2330:2332   */\n      0x1f\n        /* \"#utility.yul\":2323:2328   */\n      dup4\n        /* \"#utility.yul\":2319:2333   */\n      add\n        /* \"#utility.yul\":2315:2343   */\n      and\n        /* \"#utility.yul\":2305:2343   */\n      swap1\n      pop\n        /* \"#utility.yul\":2247:2349   */\n      swap2\n      swap1\n      pop\n      jump\t// out\n\n    auxdata: 0xa2646970667358221220437e632280b89baefd85bedfd6b4953ba5398c382cce89522f15ebd4b543285264736f6c63430008070033\n}\n",
				"bytecode": {
					"linkReferences": {},
					"object": "60806040526040518060400160405280600b81526020017f68656c6c6f20776f726c640000000000000000000000000000000000000000008152506000908051906020019061004f929190610085565b5060018060006101000a81548164ffffffffff021916908364ffffffffff16021790555034801561007f57600080fd5b50610189565b82805461009190610128565b90600052602060002090601f0160209004810192826100b357600085556100fa565b82601f106100cc57805160ff19168380011785556100fa565b828001600101855582156100fa579182015b828111156100f95782518255916020019190600101906100de565b5b509050610107919061010b565b5090565b5b8082111561012457600081600090555060010161010c565b5090565b6000600282049050600182168061014057607f821691505b602082108114156101545761015361015a565b5b50919050565b7f4e487b7100000000000000000000000000000000000000000000000000000000600052602260045260246000fd5b6102a9806101986000396000f3fe608060405234801561001057600080fd5b50600436106100365760003560e01c8063492bfa181461003b578063f8a8fd6d14610059575b600080fd5b610043610077565b6040516100509190610164565b60405180910390f35b610061610105565b60405161006e9190610186565b60405180910390f35b6000805461008490610201565b80601f01602080910402602001604051908101604052809291908181526020018280546100b090610201565b80156100fd5780601f106100d2576101008083540402835291602001916100fd565b820191906000526020600020905b8154815290600101906020018083116100e057829003601f168201915b505050505081565b600160009054906101000a900464ffffffffff1681565b6000610127826101a1565b61013181856101ac565b93506101418185602086016101ce565b61014a81610262565b840191505092915050565b61015e816101bd565b82525050565b6000602082019050818103600083015261017e818461011c565b905092915050565b600060208201905061019b6000830184610155565b92915050565b600081519050919050565b600082825260208201905092915050565b600064ffffffffff82169050919050565b60005b838110156101ec5780820151818401526020810190506101d1565b838111156101fb576000848401525b50505050565b6000600282049050600182168061021957607f821691505b6020821081141561022d5761022c610233565b5b50919050565b7f4e487b7100000000000000000000000000000000000000000000000000000000600052602260045260246000fd5b6000601f19601f830116905091905056fea2646970667358221220437e632280b89baefd85bedfd6b4953ba5398c382cce89522f15ebd4b543285264736f6c63430008070033",
					"opcodes": "PUSH1 0x80 PUSH1 0x40 MSTORE PUSH1 0x40 MLOAD DUP1 PUSH1 0x40 ADD PUSH1 0x40 MSTORE DUP1 PUSH1 0xB DUP2 MSTORE PUSH1 0x20 ADD PUSH32 0x68656C6C6F20776F726C64000000000000000000000000000000000000000000 DUP2 MSTORE POP PUSH1 0x0 SWAP1 DUP1 MLOAD SWAP1 PUSH1 0x20 ADD SWAP1 PUSH2 0x4F SWAP3 SWAP2 SWAP1 PUSH2 0x85 JUMP JUMPDEST POP PUSH1 0x1 DUP1 PUSH1 0x0 PUSH2 0x100 EXP DUP2 SLOAD DUP2 PUSH5 0xFFFFFFFFFF MUL NOT AND SWAP1 DUP4 PUSH5 0xFFFFFFFFFF AND MUL OR SWAP1 SSTORE POP CALLVALUE DUP1 ISZERO PUSH2 0x7F JUMPI PUSH1 0x0 DUP1 REVERT JUMPDEST POP PUSH2 0x189 JUMP JUMPDEST DUP3 DUP1 SLOAD PUSH2 0x91 SWAP1 PUSH2 0x128 JUMP JUMPDEST SWAP1 PUSH1 0x0 MSTORE PUSH1 0x20 PUSH1 0x0 KECCAK256 SWAP1 PUSH1 0x1F ADD PUSH1 0x20 SWAP1 DIV DUP2 ADD SWAP3 DUP3 PUSH2 0xB3 JUMPI PUSH1 0x0 DUP6 SSTORE PUSH2 0xFA JUMP JUMPDEST DUP3 PUSH1 0x1F LT PUSH2 0xCC JUMPI DUP1 MLOAD PUSH1 0xFF NOT AND DUP4 DUP1 ADD OR DUP6 SSTORE PUSH2 0xFA JUMP JUMPDEST DUP3 DUP1 ADD PUSH1 0x1 ADD DUP6 SSTORE DUP3 ISZERO PUSH2 0xFA JUMPI SWAP2 DUP3 ADD JUMPDEST DUP3 DUP2 GT ISZERO PUSH2 0xF9 JUMPI DUP3 MLOAD DUP3 SSTORE SWAP2 PUSH1 0x20 ADD SWAP2 SWAP1 PUSH1 0x1 ADD SWAP1 PUSH2 0xDE JUMP JUMPDEST JUMPDEST POP SWAP1 POP PUSH2 0x107 SWAP2 SWAP1 PUSH2 0x10B JUMP JUMPDEST POP SWAP1 JUMP JUMPDEST JUMPDEST DUP1 DUP3 GT ISZERO PUSH2 0x124 JUMPI PUSH1 0x0 DUP2 PUSH1 0x0 SWAP1 SSTORE POP PUSH1 0x1 ADD PUSH2 0x10C JUMP JUMPDEST POP SWAP1 JUMP JUMPDEST PUSH1 0x0 PUSH1 0x2 DUP3 DIV SWAP1 POP PUSH1 0x1 DUP3 AND DUP1 PUSH2 0x140 JUMPI PUSH1 0x7F DUP3 AND SWAP2 POP JUMPDEST PUSH1 0x20 DUP3 LT DUP2 EQ ISZERO PUSH2 0x154 JUMPI PUSH2 0x153 PUSH2 0x15A JUMP JUMPDEST JUMPDEST POP SWAP2 SWAP1 POP JUMP JUMPDEST PUSH32 0x4E487B7100000000000000000000000000000000000000000000000000000000 PUSH1 0x0 MSTORE PUSH1 0x22 PUSH1 0x4 MSTORE PUSH1 0x24 PUSH1 0x0 REVERT JUMPDEST PUSH2 0x2A9 DUP1 PUSH2 0x198 PUSH1 0x0 CODECOPY PUSH1 0x0 RETURN INVALID PUSH1 0x80 PUSH1 0x40 MSTORE CALLVALUE DUP1 ISZERO PUSH2 0x10 JUMPI PUSH1 0x0 DUP1 REVERT JUMPDEST POP PUSH1 0x4 CALLDATASIZE LT PUSH2 0x36 JUMPI PUSH1 0x0 CALLDATALOAD PUSH1 0xE0 SHR DUP1 PUSH4 0x492BFA18 EQ PUSH2 0x3B JUMPI DUP1 PUSH4 0xF8A8FD6D EQ PUSH2 0x59 JUMPI JUMPDEST PUSH1 0x0 DUP1 REVERT JUMPDEST PUSH2 0x43 PUSH2 0x77 JUMP JUMPDEST PUSH1 0x40 MLOAD PUSH2 0x50 SWAP2 SWAP1 PUSH2 0x164 JUMP JUMPDEST PUSH1 0x40 MLOAD DUP1 SWAP2 SUB SWAP1 RETURN JUMPDEST PUSH2 0x61 PUSH2 0x105 JUMP JUMPDEST PUSH1 0x40 MLOAD PUSH2 0x6E SWAP2 SWAP1 PUSH2 0x186 JUMP JUMPDEST PUSH1 0x40 MLOAD DUP1 SWAP2 SUB SWAP1 RETURN JUMPDEST PUSH1 0x0 DUP1 SLOAD PUSH2 0x84 SWAP1 PUSH2 0x201 JUMP JUMPDEST DUP1 PUSH1 0x1F ADD PUSH1 0x20 DUP1 SWAP2 DIV MUL PUSH1 0x20 ADD PUSH1 0x40 MLOAD SWAP1 DUP2 ADD PUSH1 0x40 MSTORE DUP1 SWAP3 SWAP2 SWAP1 DUP2 DUP2 MSTORE PUSH1 0x20 ADD DUP3 DUP1 SLOAD PUSH2 0xB0 SWAP1 PUSH2 0x201 JUMP JUMPDEST DUP1 ISZERO PUSH2 0xFD JUMPI DUP1 PUSH1 0x1F LT PUSH2 0xD2 JUMPI PUSH2 0x100 DUP1 DUP4 SLOAD DIV MUL DUP4 MSTORE SWAP2 PUSH1 0x20 ADD SWAP2 PUSH2 0xFD JUMP JUMPDEST DUP3 ADD SWAP2 SWAP1 PUSH1 0x0 MSTORE PUSH1 0x20 PUSH1 0x0 KECCAK256 SWAP1 JUMPDEST DUP2 SLOAD DUP2 MSTORE SWAP1 PUSH1 0x1 ADD SWAP1 PUSH1 0x20 ADD DUP1 DUP4 GT PUSH2 0xE0 JUMPI DUP3 SWAP1 SUB PUSH1 0x1F AND DUP3 ADD SWAP2 JUMPDEST POP POP POP POP POP DUP2 JUMP JUMPDEST PUSH1 0x1 PUSH1 0x0 SWAP1 SLOAD SWAP1 PUSH2 0x100 EXP SWAP1 DIV PUSH5 0xFFFFFFFFFF AND DUP2 JUMP JUMPDEST PUSH1 0x0 PUSH2 0x127 DUP3 PUSH2 0x1A1 JUMP JUMPDEST PUSH2 0x131 DUP2 DUP6 PUSH2 0x1AC JUMP JUMPDEST SWAP4 POP PUSH2 0x141 DUP2 DUP6 PUSH1 0x20 DUP7 ADD PUSH2 0x1CE JUMP JUMPDEST PUSH2 0x14A DUP2 PUSH2 0x262 JUMP JUMPDEST DUP5 ADD SWAP2 POP POP SWAP3 SWAP2 POP POP JUMP JUMPDEST PUSH2 0x15E DUP2 PUSH2 0x1BD JUMP JUMPDEST DUP3 MSTORE POP POP JUMP JUMPDEST PUSH1 0x0 PUSH1 0x20 DUP3 ADD SWAP1 POP DUP2 DUP2 SUB PUSH1 0x0 DUP4 ADD MSTORE PUSH2 0x17E DUP2 DUP5 PUSH2 0x11C JUMP JUMPDEST SWAP1 POP SWAP3 SWAP2 POP POP JUMP JUMPDEST PUSH1 0x0 PUSH1 0x20 DUP3 ADD SWAP1 POP PUSH2 0x19B PUSH1 0x0 DUP4 ADD DUP5 PUSH2 0x155 JUMP JUMPDEST SWAP3 SWAP2 POP POP JUMP JUMPDEST PUSH1 0x0 DUP2 MLOAD SWAP1 POP SWAP2 SWAP1 POP JUMP JUMPDEST PUSH1 0x0 DUP3 DUP3 MSTORE PUSH1 0x20 DUP3 ADD SWAP1 POP SWAP3 SWAP2 POP POP JUMP JUMPDEST PUSH1 0x0 PUSH5 0xFFFFFFFFFF DUP3 AND SWAP1 POP SWAP2 SWAP1 POP JUMP JUMPDEST PUSH1 0x0 JUMPDEST DUP4 DUP2 LT ISZERO PUSH2 0x1EC JUMPI DUP1 DUP3 ADD MLOAD DUP2 DUP5 ADD MSTORE PUSH1 0x20 DUP2 ADD SWAP1 POP PUSH2 0x1D1 JUMP JUMPDEST DUP4 DUP2 GT ISZERO PUSH2 0x1FB JUMPI PUSH1 0x0 DUP5 DUP5 ADD MSTORE JUMPDEST POP POP POP POP JUMP JUMPDEST PUSH1 0x0 PUSH1 0x2 DUP3 DIV SWAP1 POP PUSH1 0x1 DUP3 AND DUP1 PUSH2 0x219 JUMPI PUSH1 0x7F DUP3 AND SWAP2 POP JUMPDEST PUSH1 0x20 DUP3 LT DUP2 EQ ISZERO PUSH2 0x22D JUMPI PUSH2 0x22C PUSH2 0x233 JUMP JUMPDEST JUMPDEST POP SWAP2 SWAP1 POP JUMP JUMPDEST PUSH32 0x4E487B7100000000000000000000000000000000000000000000000000000000 PUSH1 0x0 MSTORE PUSH1 0x22 PUSH1 0x4 MSTORE PUSH1 0x24 PUSH1 0x0 REVERT JUMPDEST PUSH1 0x0 PUSH1 0x1F NOT PUSH1 0x1F DUP4 ADD AND SWAP1 POP SWAP2 SWAP1 POP JUMP INVALID LOG2 PUSH5 0x6970667358 0x22 SLT KECCAK256 NUMBER PUSH31 0x632280B89BAEFD85BEDFD6B4953BA5398C382CCE89522F15EBD4B543285264 PUSH20 0x6F6C634300080700330000000000000000000000 "
				},
				"gasEstimates": {
					"creation": {
						"codeDepositCost": "136200",
						"executionCost": "infinite",
						"totalCost": "infinite"
					},
					"external": {
						"myString()": "infinite",
						"test()": "2471"
					}
				},
				"methodIdentifiers": {
					"myString()": "492bfa18",
					"test()": "f8a8fd6d"
				}
			},
			"storageLayout": {
				"storage": [
					{
						"astId": 4,
						"contract": "solidity-learn/helloworld.sol:HelloWorld",
						"label": "myString",
						"offset": 0,
						"slot": "0",
						"type": "t_string_storage"
					},
					{
						"astId": 7,
						"contract": "solidity-learn/helloworld.sol:HelloWorld",
						"label": "test",
						"offset": 0,
						"slot": "1",
						"type": "t_uint40"
					}
				],
				"types": {
					"t_string_storage": {
						"encoding": "bytes",
						"label": "string",
						"numberOfBytes": "32"
					},
					"t_uint40": {
						"encoding": "inplace",
						"label": "uint40",
						"numberOfBytes": "5"
					}
				}
			},
			"userdoc": {
				"kind": "user",
				"methods": {},
				"version": 1
			}
		}
	}
}