{
	"solidity-learn/error.sol": {
		"ErrorContract": {
			"abi": [
				{
					"inputs": [
						{
							"internalType": "uint256",
							"name": "i",
							"type": "uint256"
						}
					],
					"name": "requireError",
					"outputs": [],
					"stateMutability": "pure",
					"type": "function"
				},
				{
					"inputs": [
						{
							"internalType": "uint256",
							"name": "i",
							"type": "uint256"
						}
					],
					"name": "revertError",
					"outputs": [],
					"stateMutability": "pure",
					"type": "function"
				}
			],
			"devdoc": {
				"kind": "dev",
				"methods": {},
				"version": 1
			},
			"evm": {
				"assembly": "    /* \"solidity-learn/error.sol\":57:380  contract ErrorContract{\r... */\n  mstore(0x40, 0x80)\n  callvalue\n  dup1\n  iszero\n  tag_1\n  jumpi\n  0x00\n  dup1\n  revert\ntag_1:\n  pop\n  dataSize(sub_0)\n  dup1\n  dataOffset(sub_0)\n  0x00\n  codecopy\n  0x00\n  return\nstop\n\nsub_0: assembly {\n        /* \"solidity-learn/error.sol\":57:380  contract ErrorContract{\r... */\n      mstore(0x40, 0x80)\n      callvalue\n      dup1\n      iszero\n      tag_1\n      jumpi\n      0x00\n      dup1\n      revert\n    tag_1:\n      pop\n      jumpi(tag_2, lt(calldatasize, 0x04))\n      shr(0xe0, calldataload(0x00))\n      dup1\n      0x08ceafde\n      eq\n      tag_3\n      jumpi\n      dup1\n      0xfcf0f4c1\n      eq\n      tag_4\n      jumpi\n    tag_2:\n      0x00\n      dup1\n      revert\n        /* \"solidity-learn/error.sol\":129:236  function requireError(uint i) external pure{\r... */\n    tag_3:\n      tag_5\n      0x04\n      dup1\n      calldatasize\n      sub\n      dup2\n      add\n      swap1\n      tag_6\n      swap2\n      swap1\n      tag_7\n      jump\t// in\n    tag_6:\n      tag_8\n      jump\t// in\n    tag_5:\n      stop\n        /* \"solidity-learn/error.sol\":244:377  function revertError(uint i)external pure{\r... */\n    tag_4:\n      tag_9\n      0x04\n      dup1\n      calldatasize\n      sub\n      dup2\n      add\n      swap1\n      tag_10\n      swap2\n      swap1\n      tag_7\n      jump\t// in\n    tag_10:\n      tag_11\n      jump\t// in\n    tag_9:\n      stop\n        /* \"solidity-learn/error.sol\":129:236  function requireError(uint i) external pure{\r... */\n    tag_8:\n        /* \"solidity-learn/error.sol\":195:197  10 */\n      0x0a\n        /* \"solidity-learn/error.sol\":191:192  i */\n      dup2\n        /* \"solidity-learn/error.sol\":191:197  i < 10 */\n      lt\n        /* \"solidity-learn/error.sol\":183:228  require(i < 10,\"I cannot be greater than 10\") */\n      tag_13\n      jumpi\n      mload(0x40)\n      0x08c379a000000000000000000000000000000000000000000000000000000000\n      dup2\n      mstore\n      0x04\n      add\n      tag_14\n      swap1\n      tag_15\n      jump\t// in\n    tag_14:\n      mload(0x40)\n      dup1\n      swap2\n      sub\n      swap1\n      revert\n    tag_13:\n        /* \"solidity-learn/error.sol\":129:236  function requireError(uint i) external pure{\r... */\n      pop\n      jump\t// out\n        /* \"solidity-learn/error.sol\":244:377  function revertError(uint i)external pure{\r... */\n    tag_11:\n        /* \"solidity-learn/error.sol\":303:305  10 */\n      0x0a\n        /* \"solidity-learn/error.sol\":299:300  i */\n      dup2\n        /* \"solidity-learn/error.sol\":299:305  i < 10 */\n      lt\n        /* \"solidity-learn/error.sol\":296:370  if(i < 10){\r... */\n      iszero\n      tag_17\n      jumpi\n        /* \"solidity-learn/error.sol\":321:358  revert(\"i cannot be greater than 10\") */\n      mload(0x40)\n      0x08c379a000000000000000000000000000000000000000000000000000000000\n      dup2\n      mstore\n      0x04\n      add\n      tag_18\n      swap1\n      tag_19\n      jump\t// in\n    tag_18:\n      mload(0x40)\n      dup1\n      swap2\n      sub\n      swap1\n      revert\n        /* \"solidity-learn/error.sol\":296:370  if(i < 10){\r... */\n    tag_17:\n        /* \"solidity-learn/error.sol\":244:377  function revertError(uint i)external pure{\r... */\n      pop\n      jump\t// out\n        /* \"#utility.yul\":7:146   */\n    tag_21:\n        /* \"#utility.yul\":53:58   */\n      0x00\n        /* \"#utility.yul\":91:97   */\n      dup2\n        /* \"#utility.yul\":78:98   */\n      calldataload\n        /* \"#utility.yul\":69:98   */\n      swap1\n      pop\n        /* \"#utility.yul\":107:140   */\n      tag_23\n        /* \"#utility.yul\":134:139   */\n      dup2\n        /* \"#utility.yul\":107:140   */\n      tag_24\n      jump\t// in\n    tag_23:\n        /* \"#utility.yul\":7:146   */\n      swap3\n      swap2\n      pop\n      pop\n      jump\t// out\n        /* \"#utility.yul\":152:481   */\n    tag_7:\n        /* \"#utility.yul\":211:217   */\n      0x00\n        /* \"#utility.yul\":260:262   */\n      0x20\n        /* \"#utility.yul\":248:257   */\n      dup3\n        /* \"#utility.yul\":239:246   */\n      dup5\n        /* \"#utility.yul\":235:258   */\n      sub\n        /* \"#utility.yul\":231:263   */\n      slt\n        /* \"#utility.yul\":228:347   */\n      iszero\n      tag_26\n      jumpi\n        /* \"#utility.yul\":266:345   */\n      tag_27\n      tag_28\n      jump\t// in\n    tag_27:\n        /* \"#utility.yul\":228:347   */\n    tag_26:\n        /* \"#utility.yul\":386:387   */\n      0x00\n        /* \"#utility.yul\":411:464   */\n      tag_29\n        /* \"#utility.yul\":456:463   */\n      dup5\n        /* \"#utility.yul\":447:453   */\n      dup3\n        /* \"#utility.yul\":436:445   */\n      dup6\n        /* \"#utility.yul\":432:454   */\n      add\n        /* \"#utility.yul\":411:464   */\n      tag_21\n      jump\t// in\n    tag_29:\n        /* \"#utility.yul\":401:464   */\n      swap2\n      pop\n        /* \"#utility.yul\":357:474   */\n      pop\n        /* \"#utility.yul\":152:481   */\n      swap3\n      swap2\n      pop\n      pop\n      jump\t// out\n        /* \"#utility.yul\":487:853   */\n    tag_30:\n        /* \"#utility.yul\":629:632   */\n      0x00\n        /* \"#utility.yul\":650:717   */\n      tag_32\n        /* \"#utility.yul\":714:716   */\n      0x1b\n        /* \"#utility.yul\":709:712   */\n      dup4\n        /* \"#utility.yul\":650:717   */\n      tag_33\n      jump\t// in\n    tag_32:\n        /* \"#utility.yul\":643:717   */\n      swap2\n      pop\n        /* \"#utility.yul\":726:819   */\n      tag_34\n        /* \"#utility.yul\":815:818   */\n      dup3\n        /* \"#utility.yul\":726:819   */\n      tag_35\n      jump\t// in\n    tag_34:\n        /* \"#utility.yul\":844:846   */\n      0x20\n        /* \"#utility.yul\":839:842   */\n      dup3\n        /* \"#utility.yul\":835:847   */\n      add\n        /* \"#utility.yul\":828:847   */\n      swap1\n      pop\n        /* \"#utility.yul\":487:853   */\n      swap2\n      swap1\n      pop\n      jump\t// out\n        /* \"#utility.yul\":859:1225   */\n    tag_36:\n        /* \"#utility.yul\":1001:1004   */\n      0x00\n        /* \"#utility.yul\":1022:1089   */\n      tag_38\n        /* \"#utility.yul\":1086:1088   */\n      0x1b\n        /* \"#utility.yul\":1081:1084   */\n      dup4\n        /* \"#utility.yul\":1022:1089   */\n      tag_33\n      jump\t// in\n    tag_38:\n        /* \"#utility.yul\":1015:1089   */\n      swap2\n      pop\n        /* \"#utility.yul\":1098:1191   */\n      tag_39\n        /* \"#utility.yul\":1187:1190   */\n      dup3\n        /* \"#utility.yul\":1098:1191   */\n      tag_40\n      jump\t// in\n    tag_39:\n        /* \"#utility.yul\":1216:1218   */\n      0x20\n        /* \"#utility.yul\":1211:1214   */\n      dup3\n        /* \"#utility.yul\":1207:1219   */\n      add\n        /* \"#utility.yul\":1200:1219   */\n      swap1\n      pop\n        /* \"#utility.yul\":859:1225   */\n      swap2\n      swap1\n      pop\n      jump\t// out\n        /* \"#utility.yul\":1231:1650   */\n    tag_15:\n        /* \"#utility.yul\":1397:1401   */\n      0x00\n        /* \"#utility.yul\":1435:1437   */\n      0x20\n        /* \"#utility.yul\":1424:1433   */\n      dup3\n        /* \"#utility.yul\":1420:1438   */\n      add\n        /* \"#utility.yul\":1412:1438   */\n      swap1\n      pop\n        /* \"#utility.yul\":1484:1493   */\n      dup2\n        /* \"#utility.yul\":1478:1482   */\n      dup2\n        /* \"#utility.yul\":1474:1494   */\n      sub\n        /* \"#utility.yul\":1470:1471   */\n      0x00\n        /* \"#utility.yul\":1459:1468   */\n      dup4\n        /* \"#utility.yul\":1455:1472   */\n      add\n        /* \"#utility.yul\":1448:1495   */\n      mstore\n        /* \"#utility.yul\":1512:1643   */\n      tag_42\n        /* \"#utility.yul\":1638:1642   */\n      dup2\n        /* \"#utility.yul\":1512:1643   */\n      tag_30\n      jump\t// in\n    tag_42:\n        /* \"#utility.yul\":1504:1643   */\n      swap1\n      pop\n        /* \"#utility.yul\":1231:1650   */\n      swap2\n      swap1\n      pop\n      jump\t// out\n        /* \"#utility.yul\":1656:2075   */\n    tag_19:\n        /* \"#utility.yul\":1822:1826   */\n      0x00\n        /* \"#utility.yul\":1860:1862   */\n      0x20\n        /* \"#utility.yul\":1849:1858   */\n      dup3\n        /* \"#utility.yul\":1845:1863   */\n      add\n        /* \"#utility.yul\":1837:1863   */\n      swap1\n      pop\n        /* \"#utility.yul\":1909:1918   */\n      dup2\n        /* \"#utility.yul\":1903:1907   */\n      dup2\n        /* \"#utility.yul\":1899:1919   */\n      sub\n        /* \"#utility.yul\":1895:1896   */\n      0x00\n        /* \"#utility.yul\":1884:1893   */\n      dup4\n        /* \"#utility.yul\":1880:1897   */\n      add\n        /* \"#utility.yul\":1873:1920   */\n      mstore\n        /* \"#utility.yul\":1937:2068   */\n      tag_44\n        /* \"#utility.yul\":2063:2067   */\n      dup2\n        /* \"#utility.yul\":1937:2068   */\n      tag_36\n      jump\t// in\n    tag_44:\n        /* \"#utility.yul\":1929:2068   */\n      swap1\n      pop\n        /* \"#utility.yul\":1656:2075   */\n      swap2\n      swap1\n      pop\n      jump\t// out\n        /* \"#utility.yul\":2162:2331   */\n    tag_33:\n        /* \"#utility.yul\":2246:2257   */\n      0x00\n        /* \"#utility.yul\":2280:2286   */\n      dup3\n        /* \"#utility.yul\":2275:2278   */\n      dup3\n        /* \"#utility.yul\":2268:2287   */\n      mstore\n        /* \"#utility.yul\":2320:2324   */\n      0x20\n        /* \"#utility.yul\":2315:2318   */\n      dup3\n        /* \"#utility.yul\":2311:2325   */\n      add\n        /* \"#utility.yul\":2296:2325   */\n      swap1\n      pop\n        /* \"#utility.yul\":2162:2331   */\n      swap3\n      swap2\n      pop\n      pop\n      jump\t// out\n        /* \"#utility.yul\":2337:2414   */\n    tag_48:\n        /* \"#utility.yul\":2374:2381   */\n      0x00\n        /* \"#utility.yul\":2403:2408   */\n      dup2\n        /* \"#utility.yul\":2392:2408   */\n      swap1\n      pop\n        /* \"#utility.yul\":2337:2414   */\n      swap2\n      swap1\n      pop\n      jump\t// out\n        /* \"#utility.yul\":2543:2660   */\n    tag_28:\n        /* \"#utility.yul\":2652:2653   */\n      0x00\n        /* \"#utility.yul\":2649:2650   */\n      dup1\n        /* \"#utility.yul\":2642:2654   */\n      revert\n        /* \"#utility.yul\":2666:2843   */\n    tag_35:\n        /* \"#utility.yul\":2806:2835   */\n      0x492063616e6e6f742062652067726561746572207468616e2031300000000000\n        /* \"#utility.yul\":2802:2803   */\n      0x00\n        /* \"#utility.yul\":2794:2800   */\n      dup3\n        /* \"#utility.yul\":2790:2804   */\n      add\n        /* \"#utility.yul\":2783:2836   */\n      mstore\n        /* \"#utility.yul\":2666:2843   */\n      pop\n      jump\t// out\n        /* \"#utility.yul\":2849:3026   */\n    tag_40:\n        /* \"#utility.yul\":2989:3018   */\n      0x692063616e6e6f742062652067726561746572207468616e2031300000000000\n        /* \"#utility.yul\":2985:2986   */\n      0x00\n        /* \"#utility.yul\":2977:2983   */\n      dup3\n        /* \"#utility.yul\":2973:2987   */\n      add\n        /* \"#utility.yul\":2966:3019   */\n      mstore\n        /* \"#utility.yul\":2849:3026   */\n      pop\n      jump\t// out\n        /* \"#utility.yul\":3032:3154   */\n    tag_24:\n        /* \"#utility.yul\":3105:3129   */\n      tag_56\n        /* \"#utility.yul\":3123:3128   */\n      dup2\n        /* \"#utility.yul\":3105:3129   */\n      tag_48\n      jump\t// in\n    tag_56:\n        /* \"#utility.yul\":3098:3103   */\n      dup2\n        /* \"#utility.yul\":3095:3130   */\n      eq\n        /* \"#utility.yul\":3085:3148   */\n      tag_57\n      jumpi\n        /* \"#utility.yul\":3144:3145   */\n      0x00\n        /* \"#utility.yul\":3141:3142   */\n      dup1\n        /* \"#utility.yul\":3134:3146   */\n      revert\n        /* \"#utility.yul\":3085:3148   */\n    tag_57:\n        /* \"#utility.yul\":3032:3154   */\n      pop\n      jump\t// out\n\n    auxdata: 0xa26469706673582212202d863dafa89178fa71ec31fb9ff1495393cceeed40dcb21e69bfd09e00c67d1064736f6c63430008070033\n}\n",
				"bytecode": {
					"linkReferences": {},
					"object": "608060405234801561001057600080fd5b50610287806100206000396000f3fe608060405234801561001057600080fd5b50600436106100365760003560e01c806308ceafde1461003b578063fcf0f4c114610057575b600080fd5b61005560048036038101906100509190610115565b610073565b005b610071600480360381019061006c9190610115565b6100b9565b005b600a81106100b6576040517f08c379a00000000000000000000000000000000000000000000000000000000081526004016100ad90610188565b60405180910390fd5b50565b600a8110156100fd576040517f08c379a00000000000000000000000000000000000000000000000000000000081526004016100f4906101a8565b60405180910390fd5b50565b60008135905061010f8161023a565b92915050565b60006020828403121561012b5761012a6101e3565b5b600061013984828501610100565b91505092915050565b600061014f601b836101c8565b915061015a826101e8565b602082019050919050565b6000610172601b836101c8565b915061017d82610211565b602082019050919050565b600060208201905081810360008301526101a181610142565b9050919050565b600060208201905081810360008301526101c181610165565b9050919050565b600082825260208201905092915050565b6000819050919050565b600080fd5b7f492063616e6e6f742062652067726561746572207468616e2031300000000000600082015250565b7f692063616e6e6f742062652067726561746572207468616e2031300000000000600082015250565b610243816101d9565b811461024e57600080fd5b5056fea26469706673582212202d863dafa89178fa71ec31fb9ff1495393cceeed40dcb21e69bfd09e00c67d1064736f6c63430008070033",
					"opcodes": "PUSH1 0x80 PUSH1 0x40 MSTORE CALLVALUE DUP1 ISZERO PUSH2 0x10 JUMPI PUSH1 0x0 DUP1 REVERT JUMPDEST POP PUSH2 0x287 DUP1 PUSH2 0x20 PUSH1 0x0 CODECOPY PUSH1 0x0 RETURN INVALID PUSH1 0x80 PUSH1 0x40 MSTORE CALLVALUE DUP1 ISZERO PUSH2 0x10 JUMPI PUSH1 0x0 DUP1 REVERT JUMPDEST POP PUSH1 0x4 CALLDATASIZE LT PUSH2 0x36 JUMPI PUSH1 0x0 CALLDATALOAD PUSH1 0xE0 SHR DUP1 PUSH4 0x8CEAFDE EQ PUSH2 0x3B JUMPI DUP1 PUSH4 0xFCF0F4C1 EQ PUSH2 0x57 JUMPI JUMPDEST PUSH1 0x0 DUP1 REVERT JUMPDEST PUSH2 0x55 PUSH1 0x4 DUP1 CALLDATASIZE SUB DUP2 ADD SWAP1 PUSH2 0x50 SWAP2 SWAP1 PUSH2 0x115 JUMP JUMPDEST PUSH2 0x73 JUMP JUMPDEST STOP JUMPDEST PUSH2 0x71 PUSH1 0x4 DUP1 CALLDATASIZE SUB DUP2 ADD SWAP1 PUSH2 0x6C SWAP2 SWAP1 PUSH2 0x115 JUMP JUMPDEST PUSH2 0xB9 JUMP JUMPDEST STOP JUMPDEST PUSH1 0xA DUP2 LT PUSH2 0xB6 JUMPI PUSH1 0x40 MLOAD PUSH32 0x8C379A000000000000000000000000000000000000000000000000000000000 DUP2 MSTORE PUSH1 0x4 ADD PUSH2 0xAD SWAP1 PUSH2 0x188 JUMP JUMPDEST PUSH1 0x40 MLOAD DUP1 SWAP2 SUB SWAP1 REVERT JUMPDEST POP JUMP JUMPDEST PUSH1 0xA DUP2 LT ISZERO PUSH2 0xFD JUMPI PUSH1 0x40 MLOAD PUSH32 0x8C379A000000000000000000000000000000000000000000000000000000000 DUP2 MSTORE PUSH1 0x4 ADD PUSH2 0xF4 SWAP1 PUSH2 0x1A8 JUMP JUMPDEST PUSH1 0x40 MLOAD DUP1 SWAP2 SUB SWAP1 REVERT JUMPDEST POP JUMP JUMPDEST PUSH1 0x0 DUP2 CALLDATALOAD SWAP1 POP PUSH2 0x10F DUP2 PUSH2 0x23A JUMP JUMPDEST SWAP3 SWAP2 POP POP JUMP JUMPDEST PUSH1 0x0 PUSH1 0x20 DUP3 DUP5 SUB SLT ISZERO PUSH2 0x12B JUMPI PUSH2 0x12A PUSH2 0x1E3 JUMP JUMPDEST JUMPDEST PUSH1 0x0 PUSH2 0x139 DUP5 DUP3 DUP6 ADD PUSH2 0x100 JUMP JUMPDEST SWAP2 POP POP SWAP3 SWAP2 POP POP JUMP JUMPDEST PUSH1 0x0 PUSH2 0x14F PUSH1 0x1B DUP4 PUSH2 0x1C8 JUMP JUMPDEST SWAP2 POP PUSH2 0x15A DUP3 PUSH2 0x1E8 JUMP JUMPDEST PUSH1 0x20 DUP3 ADD SWAP1 POP SWAP2 SWAP1 POP JUMP JUMPDEST PUSH1 0x0 PUSH2 0x172 PUSH1 0x1B DUP4 PUSH2 0x1C8 JUMP JUMPDEST SWAP2 POP PUSH2 0x17D DUP3 PUSH2 0x211 JUMP JUMPDEST PUSH1 0x20 DUP3 ADD SWAP1 POP SWAP2 SWAP1 POP JUMP JUMPDEST PUSH1 0x0 PUSH1 0x20 DUP3 ADD SWAP1 POP DUP2 DUP2 SUB PUSH1 0x0 DUP4 ADD MSTORE PUSH2 0x1A1 DUP2 PUSH2 0x142 JUMP JUMPDEST SWAP1 POP SWAP2 SWAP1 POP JUMP JUMPDEST PUSH1 0x0 PUSH1 0x20 DUP3 ADD SWAP1 POP DUP2 DUP2 SUB PUSH1 0x0 DUP4 ADD MSTORE PUSH2 0x1C1 DUP2 PUSH2 0x165 JUMP JUMPDEST SWAP1 POP SWAP2 SWAP1 POP JUMP JUMPDEST PUSH1 0x0 DUP3 DUP3 MSTORE PUSH1 0x20 DUP3 ADD SWAP1 POP SWAP3 SWAP2 POP POP JUMP JUMPDEST PUSH1 0x0 DUP2 SWAP1 POP SWAP2 SWAP1 POP JUMP JUMPDEST PUSH1 0x0 DUP1 REVERT JUMPDEST PUSH32 0x492063616E6E6F742062652067726561746572207468616E2031300000000000 PUSH1 0x0 DUP3 ADD MSTORE POP JUMP JUMPDEST PUSH32 0x692063616E6E6F742062652067726561746572207468616E2031300000000000 PUSH1 0x0 DUP3 ADD MSTORE POP JUMP JUMPDEST PUSH2 0x243 DUP2 PUSH2 0x1D9 JUMP JUMPDEST DUP2 EQ PUSH2 0x24E JUMPI PUSH1 0x0 DUP1 REVERT JUMPDEST POP JUMP INVALID LOG2 PUSH5 0x6970667358 0x22 SLT KECCAK256 0x2D DUP7 RETURNDATASIZE 0xAF 0xA8 SWAP2 PUSH25 0xFA71EC31FB9FF1495393CCEEED40DCB21E69BFD09E00C67D10 PUSH5 0x736F6C6343 STOP ADDMOD SMOD STOP CALLER "
				},
				"gasEstimates": {
					"creation": {
						"codeDepositCost": "129400",
						"executionCost": "177",
						"totalCost": "129577"
					},
					"external": {
						"requireError(uint256)": "694",
						"revertError(uint256)": "719"
					}
				},
				"methodIdentifiers": {
					"requireError(uint256)": "08ceafde",
					"revertError(uint256)": "fcf0f4c1"
				}
			},
			"storageLayout": {
				"storage": [],
				"types": null
			},
			"userdoc": {
				"kind": "user",
				"methods": {},
				"version": 1
			}
		}
	}
}