{
	"solidity-learn/modifier.sol": {
		"modifierTest": {
			"abi": [
				{
					"inputs": [],
					"name": "count",
					"outputs": [
						{
							"internalType": "uint256",
							"name": "",
							"type": "uint256"
						}
					],
					"stateMutability": "view",
					"type": "function"
				},
				{
					"inputs": [],
					"name": "dec",
					"outputs": [],
					"stateMutability": "nonpayable",
					"type": "function"
				},
				{
					"inputs": [
						{
							"internalType": "uint256",
							"name": "x",
							"type": "uint256"
						}
					],
					"name": "inc",
					"outputs": [],
					"stateMutability": "nonpayable",
					"type": "function"
				},
				{
					"inputs": [],
					"name": "paused",
					"outputs": [
						{
							"internalType": "bool",
							"name": "",
							"type": "bool"
						}
					],
					"stateMutability": "view",
					"type": "function"
				},
				{
					"inputs": [
						{
							"internalType": "bool",
							"name": "status",
							"type": "bool"
						}
					],
					"name": "setPaused",
					"outputs": [],
					"stateMutability": "nonpayable",
					"type": "function"
				}
			],
			"devdoc": {
				"kind": "dev",
				"methods": {},
				"version": 1
			},
			"evm": {
				"assembly": "    /* \"solidity-learn/modifier.sol\":57:548  contract modifierTest{\r... */\n  mstore(0x40, 0x80)\n  callvalue\n  dup1\n  iszero\n  tag_1\n  jumpi\n  0x00\n  dup1\n  revert\ntag_1:\n  pop\n  dataSize(sub_0)\n  dup1\n  dataOffset(sub_0)\n  0x00\n  codecopy\n  0x00\n  return\nstop\n\nsub_0: assembly {\n        /* \"solidity-learn/modifier.sol\":57:548  contract modifierTest{\r... */\n      mstore(0x40, 0x80)\n      callvalue\n      dup1\n      iszero\n      tag_1\n      jumpi\n      0x00\n      dup1\n      revert\n    tag_1:\n      pop\n      jumpi(tag_2, lt(calldatasize, 0x04))\n      shr(0xe0, calldataload(0x00))\n      dup1\n      0x06661abd\n      eq\n      tag_3\n      jumpi\n      dup1\n      0x16c38b3c\n      eq\n      tag_4\n      jumpi\n      dup1\n      0x5c975abb\n      eq\n      tag_5\n      jumpi\n      dup1\n      0x812600df\n      eq\n      tag_6\n      jumpi\n      dup1\n      0xb3bcfa82\n      eq\n      tag_7\n      jumpi\n    tag_2:\n      0x00\n      dup1\n      revert\n        /* \"solidity-learn/modifier.sol\":110:127  uint public count */\n    tag_3:\n      tag_8\n      tag_9\n      jump\t// in\n    tag_8:\n      mload(0x40)\n      tag_10\n      swap2\n      swap1\n      tag_11\n      jump\t// in\n    tag_10:\n      mload(0x40)\n      dup1\n      swap2\n      sub\n      swap1\n      return\n        /* \"solidity-learn/modifier.sol\":134:208  function setPaused(bool status)external{\r... */\n    tag_4:\n      tag_12\n      0x04\n      dup1\n      calldatasize\n      sub\n      dup2\n      add\n      swap1\n      tag_13\n      swap2\n      swap1\n      tag_14\n      jump\t// in\n    tag_13:\n      tag_15\n      jump\t// in\n    tag_12:\n      stop\n        /* \"solidity-learn/modifier.sol\":85:103  bool public paused */\n    tag_5:\n      tag_16\n      tag_17\n      jump\t// in\n    tag_16:\n      mload(0x40)\n      tag_18\n      swap2\n      swap1\n      tag_19\n      jump\t// in\n    tag_18:\n      mload(0x40)\n      dup1\n      swap2\n      sub\n      swap1\n      return\n        /* \"solidity-learn/modifier.sol\":393:470  function inc(uint x) external whenNotPaused cap(x) {\r... */\n    tag_6:\n      tag_20\n      0x04\n      dup1\n      calldatasize\n      sub\n      dup2\n      add\n      swap1\n      tag_21\n      swap2\n      swap1\n      tag_22\n      jump\t// in\n    tag_21:\n      tag_23\n      jump\t// in\n    tag_20:\n      stop\n        /* \"solidity-learn/modifier.sol\":477:541  function dec() external whenNotPaused {\r... */\n    tag_7:\n      tag_24\n      tag_25\n      jump\t// in\n    tag_24:\n      stop\n        /* \"solidity-learn/modifier.sol\":110:127  uint public count */\n    tag_9:\n      sload(0x01)\n      dup2\n      jump\t// out\n        /* \"solidity-learn/modifier.sol\":134:208  function setPaused(bool status)external{\r... */\n    tag_15:\n        /* \"solidity-learn/modifier.sol\":194:200  status */\n      dup1\n        /* \"solidity-learn/modifier.sol\":184:190  paused */\n      0x00\n      dup1\n        /* \"solidity-learn/modifier.sol\":184:200  paused =  status */\n      0x0100\n      exp\n      dup2\n      sload\n      dup2\n      0xff\n      mul\n      not\n      and\n      swap1\n      dup4\n      iszero\n      iszero\n      mul\n      or\n      swap1\n      sstore\n      pop\n        /* \"solidity-learn/modifier.sol\":134:208  function setPaused(bool status)external{\r... */\n      pop\n      jump\t// out\n        /* \"solidity-learn/modifier.sol\":85:103  bool public paused */\n    tag_17:\n      0x00\n      dup1\n      sload\n      swap1\n      0x0100\n      exp\n      swap1\n      div\n      0xff\n      and\n      dup2\n      jump\t// out\n        /* \"solidity-learn/modifier.sol\":393:470  function inc(uint x) external whenNotPaused cap(x) {\r... */\n    tag_23:\n        /* \"solidity-learn/modifier.sol\":260:266  paused */\n      0x00\n      dup1\n      sload\n      swap1\n      0x0100\n      exp\n      swap1\n      div\n      0xff\n      and\n        /* \"solidity-learn/modifier.sol\":259:266  !paused */\n      iszero\n        /* \"solidity-learn/modifier.sol\":251:276  require(!paused,\"paused\") */\n      tag_28\n      jumpi\n      mload(0x40)\n      0x08c379a000000000000000000000000000000000000000000000000000000000\n      dup2\n      mstore\n      0x04\n      add\n      tag_29\n      swap1\n      tag_30\n      jump\t// in\n    tag_29:\n      mload(0x40)\n      dup1\n      swap2\n      sub\n      swap1\n      revert\n    tag_28:\n        /* \"solidity-learn/modifier.sol\":441:442  x */\n      dup1\n        /* \"solidity-learn/modifier.sol\":347:349  10 */\n      0x0a\n        /* \"solidity-learn/modifier.sol\":344:346  _x */\n      dup2\n        /* \"solidity-learn/modifier.sol\":344:349  _x<10 */\n      lt\n        /* \"solidity-learn/modifier.sol\":336:365  require(_x<10,\"less than 10\") */\n      tag_32\n      jumpi\n      mload(0x40)\n      0x08c379a000000000000000000000000000000000000000000000000000000000\n      dup2\n      mstore\n      0x04\n      add\n      tag_33\n      swap1\n      tag_34\n      jump\t// in\n    tag_33:\n      mload(0x40)\n      dup1\n      swap2\n      sub\n      swap1\n      revert\n    tag_32:\n        /* \"solidity-learn/modifier.sol\":455:460  count */\n      0x01\n      0x00\n        /* \"solidity-learn/modifier.sol\":455:462  count++ */\n      dup2\n      sload\n      dup1\n      swap3\n      swap2\n      swap1\n      tag_36\n      swap1\n      tag_37\n      jump\t// in\n    tag_36:\n      swap2\n      swap1\n      pop\n      sstore\n      pop\n        /* \"solidity-learn/modifier.sol\":287:288  _ */\n      pop\n        /* \"solidity-learn/modifier.sol\":393:470  function inc(uint x) external whenNotPaused cap(x) {\r... */\n      pop\n      jump\t// out\n        /* \"solidity-learn/modifier.sol\":477:541  function dec() external whenNotPaused {\r... */\n    tag_25:\n        /* \"solidity-learn/modifier.sol\":260:266  paused */\n      0x00\n      dup1\n      sload\n      swap1\n      0x0100\n      exp\n      swap1\n      div\n      0xff\n      and\n        /* \"solidity-learn/modifier.sol\":259:266  !paused */\n      iszero\n        /* \"solidity-learn/modifier.sol\":251:276  require(!paused,\"paused\") */\n      tag_39\n      jumpi\n      mload(0x40)\n      0x08c379a000000000000000000000000000000000000000000000000000000000\n      dup2\n      mstore\n      0x04\n      add\n      tag_40\n      swap1\n      tag_30\n      jump\t// in\n    tag_40:\n      mload(0x40)\n      dup1\n      swap2\n      sub\n      swap1\n      revert\n    tag_39:\n        /* \"solidity-learn/modifier.sol\":526:531  count */\n      0x01\n      0x00\n        /* \"solidity-learn/modifier.sol\":526:533  count++ */\n      dup2\n      sload\n      dup1\n      swap3\n      swap2\n      swap1\n      tag_42\n      swap1\n      tag_37\n      jump\t// in\n    tag_42:\n      swap2\n      swap1\n      pop\n      sstore\n      pop\n        /* \"solidity-learn/modifier.sol\":477:541  function dec() external whenNotPaused {\r... */\n      jump\t// out\n        /* \"#utility.yul\":7:140   */\n    tag_44:\n        /* \"#utility.yul\":50:55   */\n      0x00\n        /* \"#utility.yul\":88:94   */\n      dup2\n        /* \"#utility.yul\":75:95   */\n      calldataload\n        /* \"#utility.yul\":66:95   */\n      swap1\n      pop\n        /* \"#utility.yul\":104:134   */\n      tag_46\n        /* \"#utility.yul\":128:133   */\n      dup2\n        /* \"#utility.yul\":104:134   */\n      tag_47\n      jump\t// in\n    tag_46:\n        /* \"#utility.yul\":7:140   */\n      swap3\n      swap2\n      pop\n      pop\n      jump\t// out\n        /* \"#utility.yul\":146:285   */\n    tag_48:\n        /* \"#utility.yul\":192:197   */\n      0x00\n        /* \"#utility.yul\":230:236   */\n      dup2\n        /* \"#utility.yul\":217:237   */\n      calldataload\n        /* \"#utility.yul\":208:237   */\n      swap1\n      pop\n        /* \"#utility.yul\":246:279   */\n      tag_50\n        /* \"#utility.yul\":273:278   */\n      dup2\n        /* \"#utility.yul\":246:279   */\n      tag_51\n      jump\t// in\n    tag_50:\n        /* \"#utility.yul\":146:285   */\n      swap3\n      swap2\n      pop\n      pop\n      jump\t// out\n        /* \"#utility.yul\":291:614   */\n    tag_14:\n        /* \"#utility.yul\":347:353   */\n      0x00\n        /* \"#utility.yul\":396:398   */\n      0x20\n        /* \"#utility.yul\":384:393   */\n      dup3\n        /* \"#utility.yul\":375:382   */\n      dup5\n        /* \"#utility.yul\":371:394   */\n      sub\n        /* \"#utility.yul\":367:399   */\n      slt\n        /* \"#utility.yul\":364:483   */\n      iszero\n      tag_53\n      jumpi\n        /* \"#utility.yul\":402:481   */\n      tag_54\n      tag_55\n      jump\t// in\n    tag_54:\n        /* \"#utility.yul\":364:483   */\n    tag_53:\n        /* \"#utility.yul\":522:523   */\n      0x00\n        /* \"#utility.yul\":547:597   */\n      tag_56\n        /* \"#utility.yul\":589:596   */\n      dup5\n        /* \"#utility.yul\":580:586   */\n      dup3\n        /* \"#utility.yul\":569:578   */\n      dup6\n        /* \"#utility.yul\":565:587   */\n      add\n        /* \"#utility.yul\":547:597   */\n      tag_44\n      jump\t// in\n    tag_56:\n        /* \"#utility.yul\":537:597   */\n      swap2\n      pop\n        /* \"#utility.yul\":493:607   */\n      pop\n        /* \"#utility.yul\":291:614   */\n      swap3\n      swap2\n      pop\n      pop\n      jump\t// out\n        /* \"#utility.yul\":620:949   */\n    tag_22:\n        /* \"#utility.yul\":679:685   */\n      0x00\n        /* \"#utility.yul\":728:730   */\n      0x20\n        /* \"#utility.yul\":716:725   */\n      dup3\n        /* \"#utility.yul\":707:714   */\n      dup5\n        /* \"#utility.yul\":703:726   */\n      sub\n        /* \"#utility.yul\":699:731   */\n      slt\n        /* \"#utility.yul\":696:815   */\n      iszero\n      tag_58\n      jumpi\n        /* \"#utility.yul\":734:813   */\n      tag_59\n      tag_55\n      jump\t// in\n    tag_59:\n        /* \"#utility.yul\":696:815   */\n    tag_58:\n        /* \"#utility.yul\":854:855   */\n      0x00\n        /* \"#utility.yul\":879:932   */\n      tag_60\n        /* \"#utility.yul\":924:931   */\n      dup5\n        /* \"#utility.yul\":915:921   */\n      dup3\n        /* \"#utility.yul\":904:913   */\n      dup6\n        /* \"#utility.yul\":900:922   */\n      add\n        /* \"#utility.yul\":879:932   */\n      tag_48\n      jump\t// in\n    tag_60:\n        /* \"#utility.yul\":869:932   */\n      swap2\n      pop\n        /* \"#utility.yul\":825:942   */\n      pop\n        /* \"#utility.yul\":620:949   */\n      swap3\n      swap2\n      pop\n      pop\n      jump\t// out\n        /* \"#utility.yul\":955:1064   */\n    tag_61:\n        /* \"#utility.yul\":1036:1057   */\n      tag_63\n        /* \"#utility.yul\":1051:1056   */\n      dup2\n        /* \"#utility.yul\":1036:1057   */\n      tag_64\n      jump\t// in\n    tag_63:\n        /* \"#utility.yul\":1031:1034   */\n      dup3\n        /* \"#utility.yul\":1024:1058   */\n      mstore\n        /* \"#utility.yul\":955:1064   */\n      pop\n      pop\n      jump\t// out\n        /* \"#utility.yul\":1070:1436   */\n    tag_65:\n        /* \"#utility.yul\":1212:1215   */\n      0x00\n        /* \"#utility.yul\":1233:1300   */\n      tag_67\n        /* \"#utility.yul\":1297:1299   */\n      0x0c\n        /* \"#utility.yul\":1292:1295   */\n      dup4\n        /* \"#utility.yul\":1233:1300   */\n      tag_68\n      jump\t// in\n    tag_67:\n        /* \"#utility.yul\":1226:1300   */\n      swap2\n      pop\n        /* \"#utility.yul\":1309:1402   */\n      tag_69\n        /* \"#utility.yul\":1398:1401   */\n      dup3\n        /* \"#utility.yul\":1309:1402   */\n      tag_70\n      jump\t// in\n    tag_69:\n        /* \"#utility.yul\":1427:1429   */\n      0x20\n        /* \"#utility.yul\":1422:1425   */\n      dup3\n        /* \"#utility.yul\":1418:1430   */\n      add\n        /* \"#utility.yul\":1411:1430   */\n      swap1\n      pop\n        /* \"#utility.yul\":1070:1436   */\n      swap2\n      swap1\n      pop\n      jump\t// out\n        /* \"#utility.yul\":1442:1807   */\n    tag_71:\n        /* \"#utility.yul\":1584:1587   */\n      0x00\n        /* \"#utility.yul\":1605:1671   */\n      tag_73\n        /* \"#utility.yul\":1669:1670   */\n      0x06\n        /* \"#utility.yul\":1664:1667   */\n      dup4\n        /* \"#utility.yul\":1605:1671   */\n      tag_68\n      jump\t// in\n    tag_73:\n        /* \"#utility.yul\":1598:1671   */\n      swap2\n      pop\n        /* \"#utility.yul\":1680:1773   */\n      tag_74\n        /* \"#utility.yul\":1769:1772   */\n      dup3\n        /* \"#utility.yul\":1680:1773   */\n      tag_75\n      jump\t// in\n    tag_74:\n        /* \"#utility.yul\":1798:1800   */\n      0x20\n        /* \"#utility.yul\":1793:1796   */\n      dup3\n        /* \"#utility.yul\":1789:1801   */\n      add\n        /* \"#utility.yul\":1782:1801   */\n      swap1\n      pop\n        /* \"#utility.yul\":1442:1807   */\n      swap2\n      swap1\n      pop\n      jump\t// out\n        /* \"#utility.yul\":1813:1931   */\n    tag_76:\n        /* \"#utility.yul\":1900:1924   */\n      tag_78\n        /* \"#utility.yul\":1918:1923   */\n      dup2\n        /* \"#utility.yul\":1900:1924   */\n      tag_79\n      jump\t// in\n    tag_78:\n        /* \"#utility.yul\":1895:1898   */\n      dup3\n        /* \"#utility.yul\":1888:1925   */\n      mstore\n        /* \"#utility.yul\":1813:1931   */\n      pop\n      pop\n      jump\t// out\n        /* \"#utility.yul\":1937:2147   */\n    tag_19:\n        /* \"#utility.yul\":2024:2028   */\n      0x00\n        /* \"#utility.yul\":2062:2064   */\n      0x20\n        /* \"#utility.yul\":2051:2060   */\n      dup3\n        /* \"#utility.yul\":2047:2065   */\n      add\n        /* \"#utility.yul\":2039:2065   */\n      swap1\n      pop\n        /* \"#utility.yul\":2075:2140   */\n      tag_81\n        /* \"#utility.yul\":2137:2138   */\n      0x00\n        /* \"#utility.yul\":2126:2135   */\n      dup4\n        /* \"#utility.yul\":2122:2139   */\n      add\n        /* \"#utility.yul\":2113:2119   */\n      dup5\n        /* \"#utility.yul\":2075:2140   */\n      tag_61\n      jump\t// in\n    tag_81:\n        /* \"#utility.yul\":1937:2147   */\n      swap3\n      swap2\n      pop\n      pop\n      jump\t// out\n        /* \"#utility.yul\":2153:2572   */\n    tag_34:\n        /* \"#utility.yul\":2319:2323   */\n      0x00\n        /* \"#utility.yul\":2357:2359   */\n      0x20\n        /* \"#utility.yul\":2346:2355   */\n      dup3\n        /* \"#utility.yul\":2342:2360   */\n      add\n        /* \"#utility.yul\":2334:2360   */\n      swap1\n      pop\n        /* \"#utility.yul\":2406:2415   */\n      dup2\n        /* \"#utility.yul\":2400:2404   */\n      dup2\n        /* \"#utility.yul\":2396:2416   */\n      sub\n        /* \"#utility.yul\":2392:2393   */\n      0x00\n        /* \"#utility.yul\":2381:2390   */\n      dup4\n        /* \"#utility.yul\":2377:2394   */\n      add\n        /* \"#utility.yul\":2370:2417   */\n      mstore\n        /* \"#utility.yul\":2434:2565   */\n      tag_83\n        /* \"#utility.yul\":2560:2564   */\n      dup2\n        /* \"#utility.yul\":2434:2565   */\n      tag_65\n      jump\t// in\n    tag_83:\n        /* \"#utility.yul\":2426:2565   */\n      swap1\n      pop\n        /* \"#utility.yul\":2153:2572   */\n      swap2\n      swap1\n      pop\n      jump\t// out\n        /* \"#utility.yul\":2578:2997   */\n    tag_30:\n        /* \"#utility.yul\":2744:2748   */\n      0x00\n        /* \"#utility.yul\":2782:2784   */\n      0x20\n        /* \"#utility.yul\":2771:2780   */\n      dup3\n        /* \"#utility.yul\":2767:2785   */\n      add\n        /* \"#utility.yul\":2759:2785   */\n      swap1\n      pop\n        /* \"#utility.yul\":2831:2840   */\n      dup2\n        /* \"#utility.yul\":2825:2829   */\n      dup2\n        /* \"#utility.yul\":2821:2841   */\n      sub\n        /* \"#utility.yul\":2817:2818   */\n      0x00\n        /* \"#utility.yul\":2806:2815   */\n      dup4\n        /* \"#utility.yul\":2802:2819   */\n      add\n        /* \"#utility.yul\":2795:2842   */\n      mstore\n        /* \"#utility.yul\":2859:2990   */\n      tag_85\n        /* \"#utility.yul\":2985:2989   */\n      dup2\n        /* \"#utility.yul\":2859:2990   */\n      tag_71\n      jump\t// in\n    tag_85:\n        /* \"#utility.yul\":2851:2990   */\n      swap1\n      pop\n        /* \"#utility.yul\":2578:2997   */\n      swap2\n      swap1\n      pop\n      jump\t// out\n        /* \"#utility.yul\":3003:3225   */\n    tag_11:\n        /* \"#utility.yul\":3096:3100   */\n      0x00\n        /* \"#utility.yul\":3134:3136   */\n      0x20\n        /* \"#utility.yul\":3123:3132   */\n      dup3\n        /* \"#utility.yul\":3119:3137   */\n      add\n        /* \"#utility.yul\":3111:3137   */\n      swap1\n      pop\n        /* \"#utility.yul\":3147:3218   */\n      tag_87\n        /* \"#utility.yul\":3215:3216   */\n      0x00\n        /* \"#utility.yul\":3204:3213   */\n      dup4\n        /* \"#utility.yul\":3200:3217   */\n      add\n        /* \"#utility.yul\":3191:3197   */\n      dup5\n        /* \"#utility.yul\":3147:3218   */\n      tag_76\n      jump\t// in\n    tag_87:\n        /* \"#utility.yul\":3003:3225   */\n      swap3\n      swap2\n      pop\n      pop\n      jump\t// out\n        /* \"#utility.yul\":3312:3481   */\n    tag_68:\n        /* \"#utility.yul\":3396:3407   */\n      0x00\n        /* \"#utility.yul\":3430:3436   */\n      dup3\n        /* \"#utility.yul\":3425:3428   */\n      dup3\n        /* \"#utility.yul\":3418:3437   */\n      mstore\n        /* \"#utility.yul\":3470:3474   */\n      0x20\n        /* \"#utility.yul\":3465:3468   */\n      dup3\n        /* \"#utility.yul\":3461:3475   */\n      add\n        /* \"#utility.yul\":3446:3475   */\n      swap1\n      pop\n        /* \"#utility.yul\":3312:3481   */\n      swap3\n      swap2\n      pop\n      pop\n      jump\t// out\n        /* \"#utility.yul\":3487:3577   */\n    tag_64:\n        /* \"#utility.yul\":3521:3528   */\n      0x00\n        /* \"#utility.yul\":3564:3569   */\n      dup2\n        /* \"#utility.yul\":3557:3570   */\n      iszero\n        /* \"#utility.yul\":3550:3571   */\n      iszero\n        /* \"#utility.yul\":3539:3571   */\n      swap1\n      pop\n        /* \"#utility.yul\":3487:3577   */\n      swap2\n      swap1\n      pop\n      jump\t// out\n        /* \"#utility.yul\":3583:3660   */\n    tag_79:\n        /* \"#utility.yul\":3620:3627   */\n      0x00\n        /* \"#utility.yul\":3649:3654   */\n      dup2\n        /* \"#utility.yul\":3638:3654   */\n      swap1\n      pop\n        /* \"#utility.yul\":3583:3660   */\n      swap2\n      swap1\n      pop\n      jump\t// out\n        /* \"#utility.yul\":3666:3899   */\n    tag_37:\n        /* \"#utility.yul\":3705:3708   */\n      0x00\n        /* \"#utility.yul\":3728:3752   */\n      tag_94\n        /* \"#utility.yul\":3746:3751   */\n      dup3\n        /* \"#utility.yul\":3728:3752   */\n      tag_79\n      jump\t// in\n    tag_94:\n        /* \"#utility.yul\":3719:3752   */\n      swap2\n      pop\n        /* \"#utility.yul\":3774:3840   */\n      0xffffffffffffffffffffffffffffffffffffffffffffffffffffffffffffffff\n        /* \"#utility.yul\":3767:3772   */\n      dup3\n        /* \"#utility.yul\":3764:3841   */\n      eq\n        /* \"#utility.yul\":3761:3864   */\n      iszero\n      tag_95\n      jumpi\n        /* \"#utility.yul\":3844:3862   */\n      tag_96\n      tag_97\n      jump\t// in\n    tag_96:\n        /* \"#utility.yul\":3761:3864   */\n    tag_95:\n        /* \"#utility.yul\":3891:3892   */\n      0x01\n        /* \"#utility.yul\":3884:3889   */\n      dup3\n        /* \"#utility.yul\":3880:3893   */\n      add\n        /* \"#utility.yul\":3873:3893   */\n      swap1\n      pop\n        /* \"#utility.yul\":3666:3899   */\n      swap2\n      swap1\n      pop\n      jump\t// out\n        /* \"#utility.yul\":3905:4085   */\n    tag_97:\n        /* \"#utility.yul\":3953:4030   */\n      0x4e487b7100000000000000000000000000000000000000000000000000000000\n        /* \"#utility.yul\":3950:3951   */\n      0x00\n        /* \"#utility.yul\":3943:4031   */\n      mstore\n        /* \"#utility.yul\":4050:4054   */\n      0x11\n        /* \"#utility.yul\":4047:4048   */\n      0x04\n        /* \"#utility.yul\":4040:4055   */\n      mstore\n        /* \"#utility.yul\":4074:4078   */\n      0x24\n        /* \"#utility.yul\":4071:4072   */\n      0x00\n        /* \"#utility.yul\":4064:4079   */\n      revert\n        /* \"#utility.yul\":4214:4331   */\n    tag_55:\n        /* \"#utility.yul\":4323:4324   */\n      0x00\n        /* \"#utility.yul\":4320:4321   */\n      dup1\n        /* \"#utility.yul\":4313:4325   */\n      revert\n        /* \"#utility.yul\":4337:4499   */\n    tag_70:\n        /* \"#utility.yul\":4477:4491   */\n      0x6c657373207468616e2031300000000000000000000000000000000000000000\n        /* \"#utility.yul\":4473:4474   */\n      0x00\n        /* \"#utility.yul\":4465:4471   */\n      dup3\n        /* \"#utility.yul\":4461:4475   */\n      add\n        /* \"#utility.yul\":4454:4492   */\n      mstore\n        /* \"#utility.yul\":4337:4499   */\n      pop\n      jump\t// out\n        /* \"#utility.yul\":4505:4661   */\n    tag_75:\n        /* \"#utility.yul\":4645:4653   */\n      0x7061757365640000000000000000000000000000000000000000000000000000\n        /* \"#utility.yul\":4641:4642   */\n      0x00\n        /* \"#utility.yul\":4633:4639   */\n      dup3\n        /* \"#utility.yul\":4629:4643   */\n      add\n        /* \"#utility.yul\":4622:4654   */\n      mstore\n        /* \"#utility.yul\":4505:4661   */\n      pop\n      jump\t// out\n        /* \"#utility.yul\":4667:4783   */\n    tag_47:\n        /* \"#utility.yul\":4737:4758   */\n      tag_105\n        /* \"#utility.yul\":4752:4757   */\n      dup2\n        /* \"#utility.yul\":4737:4758   */\n      tag_64\n      jump\t// in\n    tag_105:\n        /* \"#utility.yul\":4730:4735   */\n      dup2\n        /* \"#utility.yul\":4727:4759   */\n      eq\n        /* \"#utility.yul\":4717:4777   */\n      tag_106\n      jumpi\n        /* \"#utility.yul\":4773:4774   */\n      0x00\n        /* \"#utility.yul\":4770:4771   */\n      dup1\n        /* \"#utility.yul\":4763:4775   */\n      revert\n        /* \"#utility.yul\":4717:4777   */\n    tag_106:\n        /* \"#utility.yul\":4667:4783   */\n      pop\n      jump\t// out\n        /* \"#utility.yul\":4789:4911   */\n    tag_51:\n        /* \"#utility.yul\":4862:4886   */\n      tag_108\n        /* \"#utility.yul\":4880:4885   */\n      dup2\n        /* \"#utility.yul\":4862:4886   */\n      tag_79\n      jump\t// in\n    tag_108:\n        /* \"#utility.yul\":4855:4860   */\n      dup2\n        /* \"#utility.yul\":4852:4887   */\n      eq\n        /* \"#utility.yul\":4842:4905   */\n      tag_109\n      jumpi\n        /* \"#utility.yul\":4901:4902   */\n      0x00\n        /* \"#utility.yul\":4898:4899   */\n      dup1\n        /* \"#utility.yul\":4891:4903   */\n      revert\n        /* \"#utility.yul\":4842:4905   */\n    tag_109:\n        /* \"#utility.yul\":4789:4911   */\n      pop\n      jump\t// out\n\n    auxdata: 0xa2646970667358221220bc482346ce29c6871ab281f44a824d3ff60ae5835052cd58c3e6899e0b712dce64736f6c63430008070033\n}\n",
				"bytecode": {
					"linkReferences": {},
					"object": "608060405234801561001057600080fd5b506104db806100206000396000f3fe608060405234801561001057600080fd5b50600436106100575760003560e01c806306661abd1461005c57806316c38b3c1461007a5780635c975abb14610096578063812600df146100b4578063b3bcfa82146100d0575b600080fd5b6100646100da565b6040516100719190610366565b60405180910390f35b610094600480360381019061008f919061024d565b6100e0565b005b61009e6100fc565b6040516100ab919061030b565b60405180910390f35b6100ce60048036038101906100c9919061027a565b61010d565b005b6100d86101bb565b005b60015481565b806000806101000a81548160ff02191690831515021790555050565b60008054906101000a900460ff1681565b60008054906101000a900460ff161561015b576040517f08c379a000000000000000000000000000000000000000000000000000000000815260040161015290610346565b60405180910390fd5b80600a811061019f576040517f08c379a000000000000000000000000000000000000000000000000000000000815260040161019690610326565b60405180910390fd5b600160008154809291906101b2906103a8565b91905055505050565b60008054906101000a900460ff1615610209576040517f08c379a000000000000000000000000000000000000000000000000000000000815260040161020090610346565b60405180910390fd5b6001600081548092919061021c906103a8565b9190505550565b60008135905061023281610477565b92915050565b6000813590506102478161048e565b92915050565b60006020828403121561026357610262610420565b5b600061027184828501610223565b91505092915050565b6000602082840312156102905761028f610420565b5b600061029e84828501610238565b91505092915050565b6102b081610392565b82525050565b60006102c3600c83610381565b91506102ce82610425565b602082019050919050565b60006102e6600683610381565b91506102f18261044e565b602082019050919050565b6103058161039e565b82525050565b600060208201905061032060008301846102a7565b92915050565b6000602082019050818103600083015261033f816102b6565b9050919050565b6000602082019050818103600083015261035f816102d9565b9050919050565b600060208201905061037b60008301846102fc565b92915050565b600082825260208201905092915050565b60008115159050919050565b6000819050919050565b60006103b38261039e565b91507fffffffffffffffffffffffffffffffffffffffffffffffffffffffffffffffff8214156103e6576103e56103f1565b5b600182019050919050565b7f4e487b7100000000000000000000000000000000000000000000000000000000600052601160045260246000fd5b600080fd5b7f6c657373207468616e2031300000000000000000000000000000000000000000600082015250565b7f7061757365640000000000000000000000000000000000000000000000000000600082015250565b61048081610392565b811461048b57600080fd5b50565b6104978161039e565b81146104a257600080fd5b5056fea2646970667358221220bc482346ce29c6871ab281f44a824d3ff60ae5835052cd58c3e6899e0b712dce64736f6c63430008070033",
					"opcodes": "PUSH1 0x80 PUSH1 0x40 MSTORE CALLVALUE DUP1 ISZERO PUSH2 0x10 JUMPI PUSH1 0x0 DUP1 REVERT JUMPDEST POP PUSH2 0x4DB DUP1 PUSH2 0x20 PUSH1 0x0 CODECOPY PUSH1 0x0 RETURN INVALID PUSH1 0x80 PUSH1 0x40 MSTORE CALLVALUE DUP1 ISZERO PUSH2 0x10 JUMPI PUSH1 0x0 DUP1 REVERT JUMPDEST POP PUSH1 0x4 CALLDATASIZE LT PUSH2 0x57 JUMPI PUSH1 0x0 CALLDATALOAD PUSH1 0xE0 SHR DUP1 PUSH4 0x6661ABD EQ PUSH2 0x5C JUMPI DUP1 PUSH4 0x16C38B3C EQ PUSH2 0x7A JUMPI DUP1 PUSH4 0x5C975ABB EQ PUSH2 0x96 JUMPI DUP1 PUSH4 0x812600DF EQ PUSH2 0xB4 JUMPI DUP1 PUSH4 0xB3BCFA82 EQ PUSH2 0xD0 JUMPI JUMPDEST PUSH1 0x0 DUP1 REVERT JUMPDEST PUSH2 0x64 PUSH2 0xDA JUMP JUMPDEST PUSH1 0x40 MLOAD PUSH2 0x71 SWAP2 SWAP1 PUSH2 0x366 JUMP JUMPDEST PUSH1 0x40 MLOAD DUP1 SWAP2 SUB SWAP1 RETURN JUMPDEST PUSH2 0x94 PUSH1 0x4 DUP1 CALLDATASIZE SUB DUP2 ADD SWAP1 PUSH2 0x8F SWAP2 SWAP1 PUSH2 0x24D JUMP JUMPDEST PUSH2 0xE0 JUMP JUMPDEST STOP JUMPDEST PUSH2 0x9E PUSH2 0xFC JUMP JUMPDEST PUSH1 0x40 MLOAD PUSH2 0xAB SWAP2 SWAP1 PUSH2 0x30B JUMP JUMPDEST PUSH1 0x40 MLOAD DUP1 SWAP2 SUB SWAP1 RETURN JUMPDEST PUSH2 0xCE PUSH1 0x4 DUP1 CALLDATASIZE SUB DUP2 ADD SWAP1 PUSH2 0xC9 SWAP2 SWAP1 PUSH2 0x27A JUMP JUMPDEST PUSH2 0x10D JUMP JUMPDEST STOP JUMPDEST PUSH2 0xD8 PUSH2 0x1BB JUMP JUMPDEST STOP JUMPDEST PUSH1 0x1 SLOAD DUP2 JUMP JUMPDEST DUP1 PUSH1 0x0 DUP1 PUSH2 0x100 EXP DUP2 SLOAD DUP2 PUSH1 0xFF MUL NOT AND SWAP1 DUP4 ISZERO ISZERO MUL OR SWAP1 SSTORE POP POP JUMP JUMPDEST PUSH1 0x0 DUP1 SLOAD SWAP1 PUSH2 0x100 EXP SWAP1 DIV PUSH1 0xFF AND DUP2 JUMP JUMPDEST PUSH1 0x0 DUP1 SLOAD SWAP1 PUSH2 0x100 EXP SWAP1 DIV PUSH1 0xFF AND ISZERO PUSH2 0x15B JUMPI PUSH1 0x40 MLOAD PUSH32 0x8C379A000000000000000000000000000000000000000000000000000000000 DUP2 MSTORE PUSH1 0x4 ADD PUSH2 0x152 SWAP1 PUSH2 0x346 JUMP JUMPDEST PUSH1 0x40 MLOAD DUP1 SWAP2 SUB SWAP1 REVERT JUMPDEST DUP1 PUSH1 0xA DUP2 LT PUSH2 0x19F JUMPI PUSH1 0x40 MLOAD PUSH32 0x8C379A000000000000000000000000000000000000000000000000000000000 DUP2 MSTORE PUSH1 0x4 ADD PUSH2 0x196 SWAP1 PUSH2 0x326 JUMP JUMPDEST PUSH1 0x40 MLOAD DUP1 SWAP2 SUB SWAP1 REVERT JUMPDEST PUSH1 0x1 PUSH1 0x0 DUP2 SLOAD DUP1 SWAP3 SWAP2 SWAP1 PUSH2 0x1B2 SWAP1 PUSH2 0x3A8 JUMP JUMPDEST SWAP2 SWAP1 POP SSTORE POP POP POP JUMP JUMPDEST PUSH1 0x0 DUP1 SLOAD SWAP1 PUSH2 0x100 EXP SWAP1 DIV PUSH1 0xFF AND ISZERO PUSH2 0x209 JUMPI PUSH1 0x40 MLOAD PUSH32 0x8C379A000000000000000000000000000000000000000000000000000000000 DUP2 MSTORE PUSH1 0x4 ADD PUSH2 0x200 SWAP1 PUSH2 0x346 JUMP JUMPDEST PUSH1 0x40 MLOAD DUP1 SWAP2 SUB SWAP1 REVERT JUMPDEST PUSH1 0x1 PUSH1 0x0 DUP2 SLOAD DUP1 SWAP3 SWAP2 SWAP1 PUSH2 0x21C SWAP1 PUSH2 0x3A8 JUMP JUMPDEST SWAP2 SWAP1 POP SSTORE POP JUMP JUMPDEST PUSH1 0x0 DUP2 CALLDATALOAD SWAP1 POP PUSH2 0x232 DUP2 PUSH2 0x477 JUMP JUMPDEST SWAP3 SWAP2 POP POP JUMP JUMPDEST PUSH1 0x0 DUP2 CALLDATALOAD SWAP1 POP PUSH2 0x247 DUP2 PUSH2 0x48E JUMP JUMPDEST SWAP3 SWAP2 POP POP JUMP JUMPDEST PUSH1 0x0 PUSH1 0x20 DUP3 DUP5 SUB SLT ISZERO PUSH2 0x263 JUMPI PUSH2 0x262 PUSH2 0x420 JUMP JUMPDEST JUMPDEST PUSH1 0x0 PUSH2 0x271 DUP5 DUP3 DUP6 ADD PUSH2 0x223 JUMP JUMPDEST SWAP2 POP POP SWAP3 SWAP2 POP POP JUMP JUMPDEST PUSH1 0x0 PUSH1 0x20 DUP3 DUP5 SUB SLT ISZERO PUSH2 0x290 JUMPI PUSH2 0x28F PUSH2 0x420 JUMP JUMPDEST JUMPDEST PUSH1 0x0 PUSH2 0x29E DUP5 DUP3 DUP6 ADD PUSH2 0x238 JUMP JUMPDEST SWAP2 POP POP SWAP3 SWAP2 POP POP JUMP JUMPDEST PUSH2 0x2B0 DUP2 PUSH2 0x392 JUMP JUMPDEST DUP3 MSTORE POP POP JUMP JUMPDEST PUSH1 0x0 PUSH2 0x2C3 PUSH1 0xC DUP4 PUSH2 0x381 JUMP JUMPDEST SWAP2 POP PUSH2 0x2CE DUP3 PUSH2 0x425 JUMP JUMPDEST PUSH1 0x20 DUP3 ADD SWAP1 POP SWAP2 SWAP1 POP JUMP JUMPDEST PUSH1 0x0 PUSH2 0x2E6 PUSH1 0x6 DUP4 PUSH2 0x381 JUMP JUMPDEST SWAP2 POP PUSH2 0x2F1 DUP3 PUSH2 0x44E JUMP JUMPDEST PUSH1 0x20 DUP3 ADD SWAP1 POP SWAP2 SWAP1 POP JUMP JUMPDEST PUSH2 0x305 DUP2 PUSH2 0x39E JUMP JUMPDEST DUP3 MSTORE POP POP JUMP JUMPDEST PUSH1 0x0 PUSH1 0x20 DUP3 ADD SWAP1 POP PUSH2 0x320 PUSH1 0x0 DUP4 ADD DUP5 PUSH2 0x2A7 JUMP JUMPDEST SWAP3 SWAP2 POP POP JUMP JUMPDEST PUSH1 0x0 PUSH1 0x20 DUP3 ADD SWAP1 POP DUP2 DUP2 SUB PUSH1 0x0 DUP4 ADD MSTORE PUSH2 0x33F DUP2 PUSH2 0x2B6 JUMP JUMPDEST SWAP1 POP SWAP2 SWAP1 POP JUMP JUMPDEST PUSH1 0x0 PUSH1 0x20 DUP3 ADD SWAP1 POP DUP2 DUP2 SUB PUSH1 0x0 DUP4 ADD MSTORE PUSH2 0x35F DUP2 PUSH2 0x2D9 JUMP JUMPDEST SWAP1 POP SWAP2 SWAP1 POP JUMP JUMPDEST PUSH1 0x0 PUSH1 0x20 DUP3 ADD SWAP1 POP PUSH2 0x37B PUSH1 0x0 DUP4 ADD DUP5 PUSH2 0x2FC JUMP JUMPDEST SWAP3 SWAP2 POP POP JUMP JUMPDEST PUSH1 0x0 DUP3 DUP3 MSTORE PUSH1 0x20 DUP3 ADD SWAP1 POP SWAP3 SWAP2 POP POP JUMP JUMPDEST PUSH1 0x0 DUP2 ISZERO ISZERO SWAP1 POP SWAP2 SWAP1 POP JUMP JUMPDEST PUSH1 0x0 DUP2 SWAP1 POP SWAP2 SWAP1 POP JUMP JUMPDEST PUSH1 0x0 PUSH2 0x3B3 DUP3 PUSH2 0x39E JUMP JUMPDEST SWAP2 POP PUSH32 0xFFFFFFFFFFFFFFFFFFFFFFFFFFFFFFFFFFFFFFFFFFFFFFFFFFFFFFFFFFFFFFFF DUP3 EQ ISZERO PUSH2 0x3E6 JUMPI PUSH2 0x3E5 PUSH2 0x3F1 JUMP JUMPDEST JUMPDEST PUSH1 0x1 DUP3 ADD SWAP1 POP SWAP2 SWAP1 POP JUMP JUMPDEST PUSH32 0x4E487B7100000000000000000000000000000000000000000000000000000000 PUSH1 0x0 MSTORE PUSH1 0x11 PUSH1 0x4 MSTORE PUSH1 0x24 PUSH1 0x0 REVERT JUMPDEST PUSH1 0x0 DUP1 REVERT JUMPDEST PUSH32 0x6C657373207468616E2031300000000000000000000000000000000000000000 PUSH1 0x0 DUP3 ADD MSTORE POP JUMP JUMPDEST PUSH32 0x7061757365640000000000000000000000000000000000000000000000000000 PUSH1 0x0 DUP3 ADD MSTORE POP JUMP JUMPDEST PUSH2 0x480 DUP2 PUSH2 0x392 JUMP JUMPDEST DUP2 EQ PUSH2 0x48B JUMPI PUSH1 0x0 DUP1 REVERT JUMPDEST POP JUMP JUMPDEST PUSH2 0x497 DUP2 PUSH2 0x39E JUMP JUMPDEST DUP2 EQ PUSH2 0x4A2 JUMPI PUSH1 0x0 DUP1 REVERT JUMPDEST POP JUMP INVALID LOG2 PUSH5 0x6970667358 0x22 SLT KECCAK256 0xBC BASEFEE 0x23 CHAINID 0xCE 0x29 0xC6 DUP8 BYTE 0xB2 DUP2 DELEGATECALL 0x4A DUP3 0x4D EXTCODEHASH 0xF6 EXP 0xE5 DUP4 POP MSTORE 0xCD PC 0xC3 0xE6 DUP10 SWAP15 SIGNEXTEND PUSH18 0x2DCE64736F6C634300080700330000000000 "
				},
				"gasEstimates": {
					"creation": {
						"codeDepositCost": "248600",
						"executionCost": "287",
						"totalCost": "248887"
					},
					"external": {
						"count()": "2407",
						"dec()": "26723",
						"inc(uint256)": "infinite",
						"paused()": "2490",
						"setPaused(bool)": "24679"
					}
				},
				"methodIdentifiers": {
					"count()": "06661abd",
					"dec()": "b3bcfa82",
					"inc(uint256)": "812600df",
					"paused()": "5c975abb",
					"setPaused(bool)": "16c38b3c"
				}
			},
			"storageLayout": {
				"storage": [
					{
						"astId": 3,
						"contract": "solidity-learn/modifier.sol:modifierTest",
						"label": "paused",
						"offset": 0,
						"slot": "0",
						"type": "t_bool"
					},
					{
						"astId": 5,
						"contract": "solidity-learn/modifier.sol:modifierTest",
						"label": "count",
						"offset": 0,
						"slot": "1",
						"type": "t_uint256"
					}
				],
				"types": {
					"t_bool": {
						"encoding": "inplace",
						"label": "bool",
						"numberOfBytes": "1"
					},
					"t_uint256": {
						"encoding": "inplace",
						"label": "uint256",
						"numberOfBytes": "32"
					}
				}
			},
			"userdoc": {
				"kind": "user",
				"methods": {},
				"version": 1
			}
		}
	}
}