{
	"solidity-learn/forandwhileloop.sol": {
		"forandwhile": {
			"abi": [
				{
					"inputs": [],
					"name": "forloop",
					"outputs": [
						{
							"internalType": "uint256",
							"name": "",
							"type": "uint256"
						}
					],
					"stateMutability": "pure",
					"type": "function"
				},
				{
					"inputs": [
						{
							"internalType": "uint256",
							"name": "n",
							"type": "uint256"
						}
					],
					"name": "whileloop",
					"outputs": [
						{
							"internalType": "int256",
							"name": "",
							"type": "int256"
						}
					],
					"stateMutability": "pure",
					"type": "function"
				}
			],
			"devdoc": {
				"kind": "dev",
				"methods": {},
				"version": 1
			},
			"evm": {
				"assembly": "    /* \"solidity-learn/forandwhileloop.sol\":57:424  contract forandwhile{\r... */\n  mstore(0x40, 0x80)\n  callvalue\n  dup1\n  iszero\n  tag_1\n  jumpi\n  0x00\n  dup1\n  revert\ntag_1:\n  pop\n  dataSize(sub_0)\n  dup1\n  dataOffset(sub_0)\n  0x00\n  codecopy\n  0x00\n  return\nstop\n\nsub_0: assembly {\n        /* \"solidity-learn/forandwhileloop.sol\":57:424  contract forandwhile{\r... */\n      mstore(0x40, 0x80)\n      callvalue\n      dup1\n      iszero\n      tag_1\n      jumpi\n      0x00\n      dup1\n      revert\n    tag_1:\n      pop\n      jumpi(tag_2, lt(calldatasize, 0x04))\n      shr(0xe0, calldataload(0x00))\n      dup1\n      0x67b6378e\n      eq\n      tag_3\n      jumpi\n      dup1\n      0xbc68f960\n      eq\n      tag_4\n      jumpi\n    tag_2:\n      0x00\n      dup1\n      revert\n        /* \"solidity-learn/forandwhileloop.sol\":251:421  function whileloop(uint n) external pure returns(int){\r... */\n    tag_3:\n      tag_5\n      0x04\n      dup1\n      calldatasize\n      sub\n      dup2\n      add\n      swap1\n      tag_6\n      swap2\n      swap1\n      tag_7\n      jump\t// in\n    tag_6:\n      tag_8\n      jump\t// in\n    tag_5:\n      mload(0x40)\n      tag_9\n      swap2\n      swap1\n      tag_10\n      jump\t// in\n    tag_9:\n      mload(0x40)\n      dup1\n      swap2\n      sub\n      swap1\n      return\n        /* \"solidity-learn/forandwhileloop.sol\":84:245  function forloop() external pure returns(uint){\r... */\n    tag_4:\n      tag_11\n      tag_12\n      jump\t// in\n    tag_11:\n      mload(0x40)\n      tag_13\n      swap2\n      swap1\n      tag_14\n      jump\t// in\n    tag_13:\n      mload(0x40)\n      dup1\n      swap2\n      sub\n      swap1\n      return\n        /* \"solidity-learn/forandwhileloop.sol\":251:421  function whileloop(uint n) external pure returns(int){\r... */\n    tag_8:\n        /* \"solidity-learn/forandwhileloop.sol\":300:303  int */\n      0x00\n        /* \"solidity-learn/forandwhileloop.sol\":315:321  uint s */\n      dup1\n        /* \"solidity-learn/forandwhileloop.sol\":324:325  0 */\n      0x00\n        /* \"solidity-learn/forandwhileloop.sol\":315:325  uint s = 0 */\n      swap1\n      pop\n        /* \"solidity-learn/forandwhileloop.sol\":336:342  uint i */\n      0x00\n        /* \"solidity-learn/forandwhileloop.sol\":357:414  while(i<n){\r... */\n    tag_16:\n        /* \"solidity-learn/forandwhileloop.sol\":365:366  n */\n      dup4\n        /* \"solidity-learn/forandwhileloop.sol\":363:364  i */\n      dup2\n        /* \"solidity-learn/forandwhileloop.sol\":363:366  i<n */\n      lt\n        /* \"solidity-learn/forandwhileloop.sol\":357:414  while(i<n){\r... */\n      iszero\n      tag_17\n      jumpi\n        /* \"solidity-learn/forandwhileloop.sol\":399:402  i++ */\n      dup1\n      dup1\n      tag_18\n      swap1\n      tag_19\n      jump\t// in\n    tag_18:\n      swap2\n      pop\n        /* \"solidity-learn/forandwhileloop.sol\":382:402  s+=\r... */\n      dup3\n      tag_20\n      swap2\n      swap1\n      tag_21\n      jump\t// in\n    tag_20:\n      swap2\n      pop\n        /* \"solidity-learn/forandwhileloop.sol\":357:414  while(i<n){\r... */\n      jump(tag_16)\n    tag_17:\n        /* \"solidity-learn/forandwhileloop.sol\":304:421  {\r... */\n      pop\n      pop\n        /* \"solidity-learn/forandwhileloop.sol\":251:421  function whileloop(uint n) external pure returns(int){\r... */\n      swap2\n      swap1\n      pop\n      jump\t// out\n        /* \"solidity-learn/forandwhileloop.sol\":84:245  function forloop() external pure returns(uint){\r... */\n    tag_12:\n        /* \"solidity-learn/forandwhileloop.sol\":125:129  uint */\n      0x00\n        /* \"solidity-learn/forandwhileloop.sol\":141:147  uint s */\n      dup1\n        /* \"solidity-learn/forandwhileloop.sol\":150:151  0 */\n      0x00\n        /* \"solidity-learn/forandwhileloop.sol\":141:151  uint s = 0 */\n      swap1\n      pop\n        /* \"solidity-learn/forandwhileloop.sol\":166:172  uint i */\n      0x00\n        /* \"solidity-learn/forandwhileloop.sol\":162:219  for(uint i =0; i<1000;i++){\r... */\n    tag_23:\n        /* \"solidity-learn/forandwhileloop.sol\":179:183  1000 */\n      0x03e8\n        /* \"solidity-learn/forandwhileloop.sol\":177:178  i */\n      dup2\n        /* \"solidity-learn/forandwhileloop.sol\":177:183  i<1000 */\n      lt\n        /* \"solidity-learn/forandwhileloop.sol\":162:219  for(uint i =0; i<1000;i++){\r... */\n      iszero\n      tag_24\n      jumpi\n        /* \"solidity-learn/forandwhileloop.sol\":206:207  i */\n      dup1\n        /* \"solidity-learn/forandwhileloop.sol\":203:207  s+=i */\n      dup3\n      tag_26\n      swap2\n      swap1\n      tag_21\n      jump\t// in\n    tag_26:\n      swap2\n      pop\n        /* \"solidity-learn/forandwhileloop.sol\":184:187  i++ */\n      dup1\n      dup1\n      tag_27\n      swap1\n      tag_19\n      jump\t// in\n    tag_27:\n      swap2\n      pop\n      pop\n        /* \"solidity-learn/forandwhileloop.sol\":162:219  for(uint i =0; i<1000;i++){\r... */\n      jump(tag_23)\n    tag_24:\n      pop\n        /* \"solidity-learn/forandwhileloop.sol\":236:237  s */\n      dup1\n        /* \"solidity-learn/forandwhileloop.sol\":229:237  return s */\n      swap2\n      pop\n      pop\n        /* \"solidity-learn/forandwhileloop.sol\":84:245  function forloop() external pure returns(uint){\r... */\n      swap1\n      jump\t// out\n        /* \"#utility.yul\":7:146   */\n    tag_29:\n        /* \"#utility.yul\":53:58   */\n      0x00\n        /* \"#utility.yul\":91:97   */\n      dup2\n        /* \"#utility.yul\":78:98   */\n      calldataload\n        /* \"#utility.yul\":69:98   */\n      swap1\n      pop\n        /* \"#utility.yul\":107:140   */\n      tag_31\n        /* \"#utility.yul\":134:139   */\n      dup2\n        /* \"#utility.yul\":107:140   */\n      tag_32\n      jump\t// in\n    tag_31:\n        /* \"#utility.yul\":7:146   */\n      swap3\n      swap2\n      pop\n      pop\n      jump\t// out\n        /* \"#utility.yul\":152:481   */\n    tag_7:\n        /* \"#utility.yul\":211:217   */\n      0x00\n        /* \"#utility.yul\":260:262   */\n      0x20\n        /* \"#utility.yul\":248:257   */\n      dup3\n        /* \"#utility.yul\":239:246   */\n      dup5\n        /* \"#utility.yul\":235:258   */\n      sub\n        /* \"#utility.yul\":231:263   */\n      slt\n        /* \"#utility.yul\":228:347   */\n      iszero\n      tag_34\n      jumpi\n        /* \"#utility.yul\":266:345   */\n      tag_35\n      tag_36\n      jump\t// in\n    tag_35:\n        /* \"#utility.yul\":228:347   */\n    tag_34:\n        /* \"#utility.yul\":386:387   */\n      0x00\n        /* \"#utility.yul\":411:464   */\n      tag_37\n        /* \"#utility.yul\":456:463   */\n      dup5\n        /* \"#utility.yul\":447:453   */\n      dup3\n        /* \"#utility.yul\":436:445   */\n      dup6\n        /* \"#utility.yul\":432:454   */\n      add\n        /* \"#utility.yul\":411:464   */\n      tag_29\n      jump\t// in\n    tag_37:\n        /* \"#utility.yul\":401:464   */\n      swap2\n      pop\n        /* \"#utility.yul\":357:474   */\n      pop\n        /* \"#utility.yul\":152:481   */\n      swap3\n      swap2\n      pop\n      pop\n      jump\t// out\n        /* \"#utility.yul\":487:602   */\n    tag_38:\n        /* \"#utility.yul\":572:595   */\n      tag_40\n        /* \"#utility.yul\":589:594   */\n      dup2\n        /* \"#utility.yul\":572:595   */\n      tag_41\n      jump\t// in\n    tag_40:\n        /* \"#utility.yul\":567:570   */\n      dup3\n        /* \"#utility.yul\":560:596   */\n      mstore\n        /* \"#utility.yul\":487:602   */\n      pop\n      pop\n      jump\t// out\n        /* \"#utility.yul\":608:726   */\n    tag_42:\n        /* \"#utility.yul\":695:719   */\n      tag_44\n        /* \"#utility.yul\":713:718   */\n      dup2\n        /* \"#utility.yul\":695:719   */\n      tag_45\n      jump\t// in\n    tag_44:\n        /* \"#utility.yul\":690:693   */\n      dup3\n        /* \"#utility.yul\":683:720   */\n      mstore\n        /* \"#utility.yul\":608:726   */\n      pop\n      pop\n      jump\t// out\n        /* \"#utility.yul\":732:950   */\n    tag_10:\n        /* \"#utility.yul\":823:827   */\n      0x00\n        /* \"#utility.yul\":861:863   */\n      0x20\n        /* \"#utility.yul\":850:859   */\n      dup3\n        /* \"#utility.yul\":846:864   */\n      add\n        /* \"#utility.yul\":838:864   */\n      swap1\n      pop\n        /* \"#utility.yul\":874:943   */\n      tag_47\n        /* \"#utility.yul\":940:941   */\n      0x00\n        /* \"#utility.yul\":929:938   */\n      dup4\n        /* \"#utility.yul\":925:942   */\n      add\n        /* \"#utility.yul\":916:922   */\n      dup5\n        /* \"#utility.yul\":874:943   */\n      tag_38\n      jump\t// in\n    tag_47:\n        /* \"#utility.yul\":732:950   */\n      swap3\n      swap2\n      pop\n      pop\n      jump\t// out\n        /* \"#utility.yul\":956:1178   */\n    tag_14:\n        /* \"#utility.yul\":1049:1053   */\n      0x00\n        /* \"#utility.yul\":1087:1089   */\n      0x20\n        /* \"#utility.yul\":1076:1085   */\n      dup3\n        /* \"#utility.yul\":1072:1090   */\n      add\n        /* \"#utility.yul\":1064:1090   */\n      swap1\n      pop\n        /* \"#utility.yul\":1100:1171   */\n      tag_49\n        /* \"#utility.yul\":1168:1169   */\n      0x00\n        /* \"#utility.yul\":1157:1166   */\n      dup4\n        /* \"#utility.yul\":1153:1170   */\n      add\n        /* \"#utility.yul\":1144:1150   */\n      dup5\n        /* \"#utility.yul\":1100:1171   */\n      tag_42\n      jump\t// in\n    tag_49:\n        /* \"#utility.yul\":956:1178   */\n      swap3\n      swap2\n      pop\n      pop\n      jump\t// out\n        /* \"#utility.yul\":1265:1570   */\n    tag_21:\n        /* \"#utility.yul\":1305:1308   */\n      0x00\n        /* \"#utility.yul\":1324:1344   */\n      tag_53\n        /* \"#utility.yul\":1342:1343   */\n      dup3\n        /* \"#utility.yul\":1324:1344   */\n      tag_45\n      jump\t// in\n    tag_53:\n        /* \"#utility.yul\":1319:1344   */\n      swap2\n      pop\n        /* \"#utility.yul\":1358:1378   */\n      tag_54\n        /* \"#utility.yul\":1376:1377   */\n      dup4\n        /* \"#utility.yul\":1358:1378   */\n      tag_45\n      jump\t// in\n    tag_54:\n        /* \"#utility.yul\":1353:1378   */\n      swap3\n      pop\n        /* \"#utility.yul\":1512:1513   */\n      dup3\n        /* \"#utility.yul\":1444:1510   */\n      0xffffffffffffffffffffffffffffffffffffffffffffffffffffffffffffffff\n        /* \"#utility.yul\":1440:1514   */\n      sub\n        /* \"#utility.yul\":1437:1438   */\n      dup3\n        /* \"#utility.yul\":1434:1515   */\n      gt\n        /* \"#utility.yul\":1431:1538   */\n      iszero\n      tag_55\n      jumpi\n        /* \"#utility.yul\":1518:1536   */\n      tag_56\n      tag_57\n      jump\t// in\n    tag_56:\n        /* \"#utility.yul\":1431:1538   */\n    tag_55:\n        /* \"#utility.yul\":1562:1563   */\n      dup3\n        /* \"#utility.yul\":1559:1560   */\n      dup3\n        /* \"#utility.yul\":1555:1564   */\n      add\n        /* \"#utility.yul\":1548:1564   */\n      swap1\n      pop\n        /* \"#utility.yul\":1265:1570   */\n      swap3\n      swap2\n      pop\n      pop\n      jump\t// out\n        /* \"#utility.yul\":1576:1652   */\n    tag_41:\n        /* \"#utility.yul\":1612:1619   */\n      0x00\n        /* \"#utility.yul\":1641:1646   */\n      dup2\n        /* \"#utility.yul\":1630:1646   */\n      swap1\n      pop\n        /* \"#utility.yul\":1576:1652   */\n      swap2\n      swap1\n      pop\n      jump\t// out\n        /* \"#utility.yul\":1658:1735   */\n    tag_45:\n        /* \"#utility.yul\":1695:1702   */\n      0x00\n        /* \"#utility.yul\":1724:1729   */\n      dup2\n        /* \"#utility.yul\":1713:1729   */\n      swap1\n      pop\n        /* \"#utility.yul\":1658:1735   */\n      swap2\n      swap1\n      pop\n      jump\t// out\n        /* \"#utility.yul\":1741:1974   */\n    tag_19:\n        /* \"#utility.yul\":1780:1783   */\n      0x00\n        /* \"#utility.yul\":1803:1827   */\n      tag_61\n        /* \"#utility.yul\":1821:1826   */\n      dup3\n        /* \"#utility.yul\":1803:1827   */\n      tag_45\n      jump\t// in\n    tag_61:\n        /* \"#utility.yul\":1794:1827   */\n      swap2\n      pop\n        /* \"#utility.yul\":1849:1915   */\n      0xffffffffffffffffffffffffffffffffffffffffffffffffffffffffffffffff\n        /* \"#utility.yul\":1842:1847   */\n      dup3\n        /* \"#utility.yul\":1839:1916   */\n      eq\n        /* \"#utility.yul\":1836:1939   */\n      iszero\n      tag_62\n      jumpi\n        /* \"#utility.yul\":1919:1937   */\n      tag_63\n      tag_57\n      jump\t// in\n    tag_63:\n        /* \"#utility.yul\":1836:1939   */\n    tag_62:\n        /* \"#utility.yul\":1966:1967   */\n      0x01\n        /* \"#utility.yul\":1959:1964   */\n      dup3\n        /* \"#utility.yul\":1955:1968   */\n      add\n        /* \"#utility.yul\":1948:1968   */\n      swap1\n      pop\n        /* \"#utility.yul\":1741:1974   */\n      swap2\n      swap1\n      pop\n      jump\t// out\n        /* \"#utility.yul\":1980:2160   */\n    tag_57:\n        /* \"#utility.yul\":2028:2105   */\n      0x4e487b7100000000000000000000000000000000000000000000000000000000\n        /* \"#utility.yul\":2025:2026   */\n      0x00\n        /* \"#utility.yul\":2018:2106   */\n      mstore\n        /* \"#utility.yul\":2125:2129   */\n      0x11\n        /* \"#utility.yul\":2122:2123   */\n      0x04\n        /* \"#utility.yul\":2115:2130   */\n      mstore\n        /* \"#utility.yul\":2149:2153   */\n      0x24\n        /* \"#utility.yul\":2146:2147   */\n      0x00\n        /* \"#utility.yul\":2139:2154   */\n      revert\n        /* \"#utility.yul\":2289:2406   */\n    tag_36:\n        /* \"#utility.yul\":2398:2399   */\n      0x00\n        /* \"#utility.yul\":2395:2396   */\n      dup1\n        /* \"#utility.yul\":2388:2400   */\n      revert\n        /* \"#utility.yul\":2412:2534   */\n    tag_32:\n        /* \"#utility.yul\":2485:2509   */\n      tag_69\n        /* \"#utility.yul\":2503:2508   */\n      dup2\n        /* \"#utility.yul\":2485:2509   */\n      tag_45\n      jump\t// in\n    tag_69:\n        /* \"#utility.yul\":2478:2483   */\n      dup2\n        /* \"#utility.yul\":2475:2510   */\n      eq\n        /* \"#utility.yul\":2465:2528   */\n      tag_70\n      jumpi\n        /* \"#utility.yul\":2524:2525   */\n      0x00\n        /* \"#utility.yul\":2521:2522   */\n      dup1\n        /* \"#utility.yul\":2514:2526   */\n      revert\n        /* \"#utility.yul\":2465:2528   */\n    tag_70:\n        /* \"#utility.yul\":2412:2534   */\n      pop\n      jump\t// out\n\n    auxdata: 0xa264697066735822122087c9c49d246a1cb2b899f21e0dec55768d367e5b24b120ea96b0853b62c9022d64736f6c63430008070033\n}\n",
				"bytecode": {
					"linkReferences": {},
					"object": "608060405234801561001057600080fd5b506102c8806100206000396000f3fe608060405234801561001057600080fd5b50600436106100365760003560e01c806367b6378e1461003b578063bc68f9601461006b575b600080fd5b61005560048036038101906100509190610113565b610089565b604051610062919061015e565b60405180910390f35b6100736100c1565b6040516100809190610179565b60405180910390f35b6000806000905060005b838110156100ba5780806100a6906101fe565b9150826100b39190610194565b9150610093565b5050919050565b6000806000905060005b6103e88110156100f65780826100e19190610194565b915080806100ee906101fe565b9150506100cb565b508091505090565b60008135905061010d8161027b565b92915050565b60006020828403121561012957610128610276565b5b6000610137848285016100fe565b91505092915050565b610149816101ea565b82525050565b610158816101f4565b82525050565b60006020820190506101736000830184610140565b92915050565b600060208201905061018e600083018461014f565b92915050565b600061019f826101f4565b91506101aa836101f4565b9250827fffffffffffffffffffffffffffffffffffffffffffffffffffffffffffffffff038211156101df576101de610247565b5b828201905092915050565b6000819050919050565b6000819050919050565b6000610209826101f4565b91507fffffffffffffffffffffffffffffffffffffffffffffffffffffffffffffffff82141561023c5761023b610247565b5b600182019050919050565b7f4e487b7100000000000000000000000000000000000000000000000000000000600052601160045260246000fd5b600080fd5b610284816101f4565b811461028f57600080fd5b5056fea264697066735822122087c9c49d246a1cb2b899f21e0dec55768d367e5b24b120ea96b0853b62c9022d64736f6c63430008070033",
					"opcodes": "PUSH1 0x80 PUSH1 0x40 MSTORE CALLVALUE DUP1 ISZERO PUSH2 0x10 JUMPI PUSH1 0x0 DUP1 REVERT JUMPDEST POP PUSH2 0x2C8 DUP1 PUSH2 0x20 PUSH1 0x0 CODECOPY PUSH1 0x0 RETURN INVALID PUSH1 0x80 PUSH1 0x40 MSTORE CALLVALUE DUP1 ISZERO PUSH2 0x10 JUMPI PUSH1 0x0 DUP1 REVERT JUMPDEST POP PUSH1 0x4 CALLDATASIZE LT PUSH2 0x36 JUMPI PUSH1 0x0 CALLDATALOAD PUSH1 0xE0 SHR DUP1 PUSH4 0x67B6378E EQ PUSH2 0x3B JUMPI DUP1 PUSH4 0xBC68F960 EQ PUSH2 0x6B JUMPI JUMPDEST PUSH1 0x0 DUP1 REVERT JUMPDEST PUSH2 0x55 PUSH1 0x4 DUP1 CALLDATASIZE SUB DUP2 ADD SWAP1 PUSH2 0x50 SWAP2 SWAP1 PUSH2 0x113 JUMP JUMPDEST PUSH2 0x89 JUMP JUMPDEST PUSH1 0x40 MLOAD PUSH2 0x62 SWAP2 SWAP1 PUSH2 0x15E JUMP JUMPDEST PUSH1 0x40 MLOAD DUP1 SWAP2 SUB SWAP1 RETURN JUMPDEST PUSH2 0x73 PUSH2 0xC1 JUMP JUMPDEST PUSH1 0x40 MLOAD PUSH2 0x80 SWAP2 SWAP1 PUSH2 0x179 JUMP JUMPDEST PUSH1 0x40 MLOAD DUP1 SWAP2 SUB SWAP1 RETURN JUMPDEST PUSH1 0x0 DUP1 PUSH1 0x0 SWAP1 POP PUSH1 0x0 JUMPDEST DUP4 DUP2 LT ISZERO PUSH2 0xBA JUMPI DUP1 DUP1 PUSH2 0xA6 SWAP1 PUSH2 0x1FE JUMP JUMPDEST SWAP2 POP DUP3 PUSH2 0xB3 SWAP2 SWAP1 PUSH2 0x194 JUMP JUMPDEST SWAP2 POP PUSH2 0x93 JUMP JUMPDEST POP POP SWAP2 SWAP1 POP JUMP JUMPDEST PUSH1 0x0 DUP1 PUSH1 0x0 SWAP1 POP PUSH1 0x0 JUMPDEST PUSH2 0x3E8 DUP2 LT ISZERO PUSH2 0xF6 JUMPI DUP1 DUP3 PUSH2 0xE1 SWAP2 SWAP1 PUSH2 0x194 JUMP JUMPDEST SWAP2 POP DUP1 DUP1 PUSH2 0xEE SWAP1 PUSH2 0x1FE JUMP JUMPDEST SWAP2 POP POP PUSH2 0xCB JUMP JUMPDEST POP DUP1 SWAP2 POP POP SWAP1 JUMP JUMPDEST PUSH1 0x0 DUP2 CALLDATALOAD SWAP1 POP PUSH2 0x10D DUP2 PUSH2 0x27B JUMP JUMPDEST SWAP3 SWAP2 POP POP JUMP JUMPDEST PUSH1 0x0 PUSH1 0x20 DUP3 DUP5 SUB SLT ISZERO PUSH2 0x129 JUMPI PUSH2 0x128 PUSH2 0x276 JUMP JUMPDEST JUMPDEST PUSH1 0x0 PUSH2 0x137 DUP5 DUP3 DUP6 ADD PUSH2 0xFE JUMP JUMPDEST SWAP2 POP POP SWAP3 SWAP2 POP POP JUMP JUMPDEST PUSH2 0x149 DUP2 PUSH2 0x1EA JUMP JUMPDEST DUP3 MSTORE POP POP JUMP JUMPDEST PUSH2 0x158 DUP2 PUSH2 0x1F4 JUMP JUMPDEST DUP3 MSTORE POP POP JUMP JUMPDEST PUSH1 0x0 PUSH1 0x20 DUP3 ADD SWAP1 POP PUSH2 0x173 PUSH1 0x0 DUP4 ADD DUP5 PUSH2 0x140 JUMP JUMPDEST SWAP3 SWAP2 POP POP JUMP JUMPDEST PUSH1 0x0 PUSH1 0x20 DUP3 ADD SWAP1 POP PUSH2 0x18E PUSH1 0x0 DUP4 ADD DUP5 PUSH2 0x14F JUMP JUMPDEST SWAP3 SWAP2 POP POP JUMP JUMPDEST PUSH1 0x0 PUSH2 0x19F DUP3 PUSH2 0x1F4 JUMP JUMPDEST SWAP2 POP PUSH2 0x1AA DUP4 PUSH2 0x1F4 JUMP JUMPDEST SWAP3 POP DUP3 PUSH32 0xFFFFFFFFFFFFFFFFFFFFFFFFFFFFFFFFFFFFFFFFFFFFFFFFFFFFFFFFFFFFFFFF SUB DUP3 GT ISZERO PUSH2 0x1DF JUMPI PUSH2 0x1DE PUSH2 0x247 JUMP JUMPDEST JUMPDEST DUP3 DUP3 ADD SWAP1 POP SWAP3 SWAP2 POP POP JUMP JUMPDEST PUSH1 0x0 DUP2 SWAP1 POP SWAP2 SWAP1 POP JUMP JUMPDEST PUSH1 0x0 DUP2 SWAP1 POP SWAP2 SWAP1 POP JUMP JUMPDEST PUSH1 0x0 PUSH2 0x209 DUP3 PUSH2 0x1F4 JUMP JUMPDEST SWAP2 POP PUSH32 0xFFFFFFFFFFFFFFFFFFFFFFFFFFFFFFFFFFFFFFFFFFFFFFFFFFFFFFFFFFFFFFFF DUP3 EQ ISZERO PUSH2 0x23C JUMPI PUSH2 0x23B PUSH2 0x247 JUMP JUMPDEST JUMPDEST PUSH1 0x1 DUP3 ADD SWAP1 POP SWAP2 SWAP1 POP JUMP JUMPDEST PUSH32 0x4E487B7100000000000000000000000000000000000000000000000000000000 PUSH1 0x0 MSTORE PUSH1 0x11 PUSH1 0x4 MSTORE PUSH1 0x24 PUSH1 0x0 REVERT JUMPDEST PUSH1 0x0 DUP1 REVERT JUMPDEST PUSH2 0x284 DUP2 PUSH2 0x1F4 JUMP JUMPDEST DUP2 EQ PUSH2 0x28F JUMPI PUSH1 0x0 DUP1 REVERT JUMPDEST POP JUMP INVALID LOG2 PUSH5 0x6970667358 0x22 SLT KECCAK256 DUP8 0xC9 0xC4 SWAP14 0x24 PUSH11 0x1CB2B899F21E0DEC55768D CALLDATASIZE PUSH31 0x5B24B120EA96B0853B62C9022D64736F6C6343000807003300000000000000 "
				},
				"gasEstimates": {
					"creation": {
						"codeDepositCost": "142400",
						"executionCost": "190",
						"totalCost": "142590"
					},
					"external": {
						"forloop()": "infinite",
						"whileloop(uint256)": "infinite"
					}
				},
				"methodIdentifiers": {
					"forloop()": "bc68f960",
					"whileloop(uint256)": "67b6378e"
				}
			},
			"storageLayout": {
				"storage": [],
				"types": null
			},
			"userdoc": {
				"kind": "user",
				"methods": {},
				"version": 1
			}
		}
	}
}