{
	"solidity-learn/functionoutputs.sol": {
		"MultipleOutputs": {
			"abi": [
				{
					"inputs": [],
					"name": "destructingAssignment",
					"outputs": [],
					"stateMutability": "pure",
					"type": "function"
				},
				{
					"inputs": [],
					"name": "multipleOutputs",
					"outputs": [
						{
							"internalType": "bool",
							"name": "",
							"type": "bool"
						},
						{
							"internalType": "uint256",
							"name": "",
							"type": "uint256"
						}
					],
					"stateMutability": "pure",
					"type": "function"
				}
			],
			"devdoc": {
				"kind": "dev",
				"methods": {},
				"version": 1
			},
			"evm": {
				"assembly": "    /* \"solidity-learn/functionoutputs.sol\":57:461  contract MultipleOutputs{\r... */\n  mstore(0x40, 0x80)\n  callvalue\n  dup1\n  iszero\n  tag_1\n  jumpi\n  0x00\n  dup1\n  revert\ntag_1:\n  pop\n  dataSize(sub_0)\n  dup1\n  dataOffset(sub_0)\n  0x00\n  codecopy\n  0x00\n  return\nstop\n\nsub_0: assembly {\n        /* \"solidity-learn/functionoutputs.sol\":57:461  contract MultipleOutputs{\r... */\n      mstore(0x40, 0x80)\n      callvalue\n      dup1\n      iszero\n      tag_1\n      jumpi\n      0x00\n      dup1\n      revert\n    tag_1:\n      pop\n      jumpi(tag_2, lt(calldatasize, 0x04))\n      shr(0xe0, calldataload(0x00))\n      dup1\n      0x792803a9\n      eq\n      tag_3\n      jumpi\n      dup1\n      0xd0110e78\n      eq\n      tag_4\n      jumpi\n    tag_2:\n      0x00\n      dup1\n      revert\n        /* \"solidity-learn/functionoutputs.sol\":90:184  function multipleOutputs()external pure returns (bool,uint){\r... */\n    tag_3:\n      tag_5\n      tag_6\n      jump\t// in\n    tag_5:\n      mload(0x40)\n      tag_7\n      swap3\n      swap2\n      swap1\n      tag_8\n      jump\t// in\n    tag_7:\n      mload(0x40)\n      dup1\n      swap2\n      sub\n      swap1\n      return\n        /* \"solidity-learn/functionoutputs.sol\":305:456  function destructingAssignment() external pure  {\r... */\n    tag_4:\n      tag_9\n      tag_10\n      jump\t// in\n    tag_9:\n      stop\n        /* \"solidity-learn/functionoutputs.sol\":90:184  function multipleOutputs()external pure returns (bool,uint){\r... */\n    tag_6:\n        /* \"solidity-learn/functionoutputs.sol\":139:143  bool */\n      0x00\n        /* \"solidity-learn/functionoutputs.sol\":144:148  uint */\n      dup1\n        /* \"solidity-learn/functionoutputs.sol\":168:173  false */\n      0x00\n        /* \"solidity-learn/functionoutputs.sol\":174:175  1 */\n      0x01\n        /* \"solidity-learn/functionoutputs.sol\":160:176  return (false,1) */\n      swap2\n      pop\n      swap2\n      pop\n        /* \"solidity-learn/functionoutputs.sol\":90:184  function multipleOutputs()external pure returns (bool,uint){\r... */\n      swap1\n      swap2\n      jump\t// out\n        /* \"solidity-learn/functionoutputs.sol\":305:456  function destructingAssignment() external pure  {\r... */\n    tag_10:\n        /* \"solidity-learn/functionoutputs.sol\":365:371  bool b */\n      0x00\n        /* \"solidity-learn/functionoutputs.sol\":373:379  uint x */\n      dup1\n        /* \"solidity-learn/functionoutputs.sol\":384:398  namedOutputs() */\n      tag_13\n        /* \"solidity-learn/functionoutputs.sol\":384:396  namedOutputs */\n      tag_14\n        /* \"solidity-learn/functionoutputs.sol\":384:398  namedOutputs() */\n      jump\t// in\n    tag_13:\n        /* \"solidity-learn/functionoutputs.sol\":364:398  (bool b, uint x) =  namedOutputs() */\n      swap2\n      pop\n      swap2\n      pop\n        /* \"solidity-learn/functionoutputs.sol\":412:419  uint _x */\n      0x00\n        /* \"solidity-learn/functionoutputs.sol\":424:438  namedOutputs() */\n      tag_15\n        /* \"solidity-learn/functionoutputs.sol\":424:436  namedOutputs */\n      tag_14\n        /* \"solidity-learn/functionoutputs.sol\":424:438  namedOutputs() */\n      jump\t// in\n    tag_15:\n        /* \"solidity-learn/functionoutputs.sol\":409:438  (, uint _x) =  namedOutputs() */\n      swap2\n      pop\n      pop\n        /* \"solidity-learn/functionoutputs.sol\":353:456  {\r... */\n      pop\n      pop\n      pop\n        /* \"solidity-learn/functionoutputs.sol\":305:456  function destructingAssignment() external pure  {\r... */\n      jump\t// out\n        /* \"solidity-learn/functionoutputs.sol\":192:297  function namedOutputs() internal pure returns (bool b,uint x){\r... */\n    tag_14:\n        /* \"solidity-learn/functionoutputs.sol\":239:245  bool b */\n      0x00\n        /* \"solidity-learn/functionoutputs.sol\":246:252  uint x */\n      dup1\n        /* \"solidity-learn/functionoutputs.sol\":268:273  false */\n      0x00\n        /* \"solidity-learn/functionoutputs.sol\":264:273  b = false */\n      swap2\n      pop\n        /* \"solidity-learn/functionoutputs.sol\":288:289  1 */\n      0x01\n        /* \"solidity-learn/functionoutputs.sol\":284:289  x = 1 */\n      swap1\n      pop\n        /* \"solidity-learn/functionoutputs.sol\":192:297  function namedOutputs() internal pure returns (bool b,uint x){\r... */\n      swap1\n      swap2\n      jump\t// out\n        /* \"#utility.yul\":7:116   */\n    tag_18:\n        /* \"#utility.yul\":88:109   */\n      tag_20\n        /* \"#utility.yul\":103:108   */\n      dup2\n        /* \"#utility.yul\":88:109   */\n      tag_21\n      jump\t// in\n    tag_20:\n        /* \"#utility.yul\":83:86   */\n      dup3\n        /* \"#utility.yul\":76:110   */\n      mstore\n        /* \"#utility.yul\":7:116   */\n      pop\n      pop\n      jump\t// out\n        /* \"#utility.yul\":122:240   */\n    tag_22:\n        /* \"#utility.yul\":209:233   */\n      tag_24\n        /* \"#utility.yul\":227:232   */\n      dup2\n        /* \"#utility.yul\":209:233   */\n      tag_25\n      jump\t// in\n    tag_24:\n        /* \"#utility.yul\":204:207   */\n      dup3\n        /* \"#utility.yul\":197:234   */\n      mstore\n        /* \"#utility.yul\":122:240   */\n      pop\n      pop\n      jump\t// out\n        /* \"#utility.yul\":246:566   */\n    tag_8:\n        /* \"#utility.yul\":361:365   */\n      0x00\n        /* \"#utility.yul\":399:401   */\n      0x40\n        /* \"#utility.yul\":388:397   */\n      dup3\n        /* \"#utility.yul\":384:402   */\n      add\n        /* \"#utility.yul\":376:402   */\n      swap1\n      pop\n        /* \"#utility.yul\":412:477   */\n      tag_27\n        /* \"#utility.yul\":474:475   */\n      0x00\n        /* \"#utility.yul\":463:472   */\n      dup4\n        /* \"#utility.yul\":459:476   */\n      add\n        /* \"#utility.yul\":450:456   */\n      dup6\n        /* \"#utility.yul\":412:477   */\n      tag_18\n      jump\t// in\n    tag_27:\n        /* \"#utility.yul\":487:559   */\n      tag_28\n        /* \"#utility.yul\":555:557   */\n      0x20\n        /* \"#utility.yul\":544:553   */\n      dup4\n        /* \"#utility.yul\":540:558   */\n      add\n        /* \"#utility.yul\":531:537   */\n      dup5\n        /* \"#utility.yul\":487:559   */\n      tag_22\n      jump\t// in\n    tag_28:\n        /* \"#utility.yul\":246:566   */\n      swap4\n      swap3\n      pop\n      pop\n      pop\n      jump\t// out\n        /* \"#utility.yul\":572:662   */\n    tag_21:\n        /* \"#utility.yul\":606:613   */\n      0x00\n        /* \"#utility.yul\":649:654   */\n      dup2\n        /* \"#utility.yul\":642:655   */\n      iszero\n        /* \"#utility.yul\":635:656   */\n      iszero\n        /* \"#utility.yul\":624:656   */\n      swap1\n      pop\n        /* \"#utility.yul\":572:662   */\n      swap2\n      swap1\n      pop\n      jump\t// out\n        /* \"#utility.yul\":668:745   */\n    tag_25:\n        /* \"#utility.yul\":705:712   */\n      0x00\n        /* \"#utility.yul\":734:739   */\n      dup2\n        /* \"#utility.yul\":723:739   */\n      swap1\n      pop\n        /* \"#utility.yul\":668:745   */\n      swap2\n      swap1\n      pop\n      jump\t// out\n\n    auxdata: 0xa264697066735822122053ae1438b311d4a374191619cd25d9b8729296cee2475c4aa616017544146d5364736f6c63430008070033\n}\n",
				"bytecode": {
					"linkReferences": {},
					"object": "608060405234801561001057600080fd5b50610120806100206000396000f3fe6080604052348015600f57600080fd5b506004361060325760003560e01c8063792803a9146037578063d0110e78146052575b600080fd5b603d605a565b604051604992919060af565b60405180910390f35b60586069565b005b60008060006001915091509091565b60008060726086565b915091506000607e6086565b915050505050565b60008060009150600190509091565b609c8160d4565b82525050565b60a98160e0565b82525050565b600060408201905060c260008301856095565b60cd602083018460a2565b9392505050565b60008115159050919050565b600081905091905056fea264697066735822122053ae1438b311d4a374191619cd25d9b8729296cee2475c4aa616017544146d5364736f6c63430008070033",
					"opcodes": "PUSH1 0x80 PUSH1 0x40 MSTORE CALLVALUE DUP1 ISZERO PUSH2 0x10 JUMPI PUSH1 0x0 DUP1 REVERT JUMPDEST POP PUSH2 0x120 DUP1 PUSH2 0x20 PUSH1 0x0 CODECOPY PUSH1 0x0 RETURN INVALID PUSH1 0x80 PUSH1 0x40 MSTORE CALLVALUE DUP1 ISZERO PUSH1 0xF JUMPI PUSH1 0x0 DUP1 REVERT JUMPDEST POP PUSH1 0x4 CALLDATASIZE LT PUSH1 0x32 JUMPI PUSH1 0x0 CALLDATALOAD PUSH1 0xE0 SHR DUP1 PUSH4 0x792803A9 EQ PUSH1 0x37 JUMPI DUP1 PUSH4 0xD0110E78 EQ PUSH1 0x52 JUMPI JUMPDEST PUSH1 0x0 DUP1 REVERT JUMPDEST PUSH1 0x3D PUSH1 0x5A JUMP JUMPDEST PUSH1 0x40 MLOAD PUSH1 0x49 SWAP3 SWAP2 SWAP1 PUSH1 0xAF JUMP JUMPDEST PUSH1 0x40 MLOAD DUP1 SWAP2 SUB SWAP1 RETURN JUMPDEST PUSH1 0x58 PUSH1 0x69 JUMP JUMPDEST STOP JUMPDEST PUSH1 0x0 DUP1 PUSH1 0x0 PUSH1 0x1 SWAP2 POP SWAP2 POP SWAP1 SWAP2 JUMP JUMPDEST PUSH1 0x0 DUP1 PUSH1 0x72 PUSH1 0x86 JUMP JUMPDEST SWAP2 POP SWAP2 POP PUSH1 0x0 PUSH1 0x7E PUSH1 0x86 JUMP JUMPDEST SWAP2 POP POP POP POP POP JUMP JUMPDEST PUSH1 0x0 DUP1 PUSH1 0x0 SWAP2 POP PUSH1 0x1 SWAP1 POP SWAP1 SWAP2 JUMP JUMPDEST PUSH1 0x9C DUP2 PUSH1 0xD4 JUMP JUMPDEST DUP3 MSTORE POP POP JUMP JUMPDEST PUSH1 0xA9 DUP2 PUSH1 0xE0 JUMP JUMPDEST DUP3 MSTORE POP POP JUMP JUMPDEST PUSH1 0x0 PUSH1 0x40 DUP3 ADD SWAP1 POP PUSH1 0xC2 PUSH1 0x0 DUP4 ADD DUP6 PUSH1 0x95 JUMP JUMPDEST PUSH1 0xCD PUSH1 0x20 DUP4 ADD DUP5 PUSH1 0xA2 JUMP JUMPDEST SWAP4 SWAP3 POP POP POP JUMP JUMPDEST PUSH1 0x0 DUP2 ISZERO ISZERO SWAP1 POP SWAP2 SWAP1 POP JUMP JUMPDEST PUSH1 0x0 DUP2 SWAP1 POP SWAP2 SWAP1 POP JUMP INVALID LOG2 PUSH5 0x6970667358 0x22 SLT KECCAK256 MSTORE8 0xAE EQ CODESIZE 0xB3 GT 0xD4 LOG3 PUSH21 0x191619CD25D9B8729296CEE2475C4AA61601754414 PUSH14 0x5364736F6C634300080700330000 "
				},
				"gasEstimates": {
					"creation": {
						"codeDepositCost": "57600",
						"executionCost": "105",
						"totalCost": "57705"
					},
					"external": {
						"destructingAssignment()": "infinite",
						"multipleOutputs()": "435"
					},
					"internal": {
						"namedOutputs()": "37"
					}
				},
				"methodIdentifiers": {
					"destructingAssignment()": "d0110e78",
					"multipleOutputs()": "792803a9"
				}
			},
			"storageLayout": {
				"storage": [],
				"types": null
			},
			"userdoc": {
				"kind": "user",
				"methods": {},
				"version": 1
			}
		}
	}
}