{
	"solidity-learn/mapping.sol": {
		"Mapping": {
			"abi": [
				{
					"inputs": [
						{
							"internalType": "address",
							"name": "",
							"type": "address"
						}
					],
					"name": "balances",
					"outputs": [
						{
							"internalType": "uint256",
							"name": "",
							"type": "uint256"
						}
					],
					"stateMutability": "view",
					"type": "function"
				},
				{
					"inputs": [],
					"name": "example",
					"outputs": [],
					"stateMutability": "nonpayable",
					"type": "function"
				},
				{
					"inputs": [
						{
							"internalType": "address",
							"name": "",
							"type": "address"
						}
					],
					"name": "inserted",
					"outputs": [
						{
							"internalType": "bool",
							"name": "",
							"type": "bool"
						}
					],
					"stateMutability": "view",
					"type": "function"
				}
			],
			"devdoc": {
				"kind": "dev",
				"methods": {},
				"version": 1
			},
			"evm": {
				"assembly": "    /* \"solidity-learn/mapping.sol\":57:295  contract Mapping {\r... */\n  mstore(0x40, 0x80)\n  callvalue\n  dup1\n  iszero\n  tag_1\n  jumpi\n  0x00\n  dup1\n  revert\ntag_1:\n  pop\n  dataSize(sub_0)\n  dup1\n  dataOffset(sub_0)\n  0x00\n  codecopy\n  0x00\n  return\nstop\n\nsub_0: assembly {\n        /* \"solidity-learn/mapping.sol\":57:295  contract Mapping {\r... */\n      mstore(0x40, 0x80)\n      callvalue\n      dup1\n      iszero\n      tag_1\n      jumpi\n      0x00\n      dup1\n      revert\n    tag_1:\n      pop\n      jumpi(tag_2, lt(calldatasize, 0x04))\n      shr(0xe0, calldataload(0x00))\n      dup1\n      0x27e235e3\n      eq\n      tag_3\n      jumpi\n      dup1\n      0x54353f2f\n      eq\n      tag_4\n      jumpi\n      dup1\n      0x7cd380f1\n      eq\n      tag_5\n      jumpi\n    tag_2:\n      0x00\n      dup1\n      revert\n        /* \"solidity-learn/mapping.sol\":81:119  mapping(address=>uint) public balances */\n    tag_3:\n      tag_6\n      0x04\n      dup1\n      calldatasize\n      sub\n      dup2\n      add\n      swap1\n      tag_7\n      swap2\n      swap1\n      tag_8\n      jump\t// in\n    tag_7:\n      tag_9\n      jump\t// in\n    tag_6:\n      mload(0x40)\n      tag_10\n      swap2\n      swap1\n      tag_11\n      jump\t// in\n    tag_10:\n      mload(0x40)\n      dup1\n      swap2\n      sub\n      swap1\n      return\n        /* \"solidity-learn/mapping.sol\":179:290  function example() external {\r... */\n    tag_4:\n      tag_12\n      tag_13\n      jump\t// in\n    tag_12:\n      stop\n        /* \"solidity-learn/mapping.sol\":126:164  mapping(address=>bool) public inserted */\n    tag_5:\n      tag_14\n      0x04\n      dup1\n      calldatasize\n      sub\n      dup2\n      add\n      swap1\n      tag_15\n      swap2\n      swap1\n      tag_8\n      jump\t// in\n    tag_15:\n      tag_16\n      jump\t// in\n    tag_14:\n      mload(0x40)\n      tag_17\n      swap2\n      swap1\n      tag_18\n      jump\t// in\n    tag_17:\n      mload(0x40)\n      dup1\n      swap2\n      sub\n      swap1\n      return\n        /* \"solidity-learn/mapping.sol\":81:119  mapping(address=>uint) public balances */\n    tag_9:\n      mstore(0x20, 0x00)\n      dup1\n      0x00\n      mstore\n      keccak256(0x00, 0x40)\n      0x00\n      swap2\n      pop\n      swap1\n      pop\n      sload\n      dup2\n      jump\t// out\n        /* \"solidity-learn/mapping.sol\":179:290  function example() external {\r... */\n    tag_13:\n        /* \"solidity-learn/mapping.sol\":241:244  123 */\n      0x7b\n        /* \"solidity-learn/mapping.sol\":218:226  balances */\n      0x00\n        /* \"solidity-learn/mapping.sol\":218:238  balances[msg.sender] */\n      dup1\n        /* \"solidity-learn/mapping.sol\":227:237  msg.sender */\n      caller\n        /* \"solidity-learn/mapping.sol\":218:238  balances[msg.sender] */\n      0xffffffffffffffffffffffffffffffffffffffff\n      and\n      0xffffffffffffffffffffffffffffffffffffffff\n      and\n      dup2\n      mstore\n      0x20\n      add\n      swap1\n      dup2\n      mstore\n      0x20\n      add\n      0x00\n      keccak256\n        /* \"solidity-learn/mapping.sol\":218:244  balances[msg.sender] = 123 */\n      dup2\n      swap1\n      sstore\n      pop\n        /* \"solidity-learn/mapping.sol\":262:270  balances */\n      0x00\n        /* \"solidity-learn/mapping.sol\":262:282  balances[msg.sender] */\n      dup1\n        /* \"solidity-learn/mapping.sol\":271:281  msg.sender */\n      caller\n        /* \"solidity-learn/mapping.sol\":262:282  balances[msg.sender] */\n      0xffffffffffffffffffffffffffffffffffffffff\n      and\n      0xffffffffffffffffffffffffffffffffffffffff\n      and\n      dup2\n      mstore\n      0x20\n      add\n      swap1\n      dup2\n      mstore\n      0x20\n      add\n      0x00\n      keccak256\n        /* \"solidity-learn/mapping.sol\":255:282  delete balances[msg.sender] */\n      0x00\n      swap1\n      sstore\n        /* \"solidity-learn/mapping.sol\":179:290  function example() external {\r... */\n      jump\t// out\n        /* \"solidity-learn/mapping.sol\":126:164  mapping(address=>bool) public inserted */\n    tag_16:\n      mstore(0x20, 0x01)\n      dup1\n      0x00\n      mstore\n      keccak256(0x00, 0x40)\n      0x00\n      swap2\n      pop\n      sload\n      swap1\n      0x0100\n      exp\n      swap1\n      div\n      0xff\n      and\n      dup2\n      jump\t// out\n        /* \"#utility.yul\":7:146   */\n    tag_21:\n        /* \"#utility.yul\":53:58   */\n      0x00\n        /* \"#utility.yul\":91:97   */\n      dup2\n        /* \"#utility.yul\":78:98   */\n      calldataload\n        /* \"#utility.yul\":69:98   */\n      swap1\n      pop\n        /* \"#utility.yul\":107:140   */\n      tag_23\n        /* \"#utility.yul\":134:139   */\n      dup2\n        /* \"#utility.yul\":107:140   */\n      tag_24\n      jump\t// in\n    tag_23:\n        /* \"#utility.yul\":7:146   */\n      swap3\n      swap2\n      pop\n      pop\n      jump\t// out\n        /* \"#utility.yul\":152:481   */\n    tag_8:\n        /* \"#utility.yul\":211:217   */\n      0x00\n        /* \"#utility.yul\":260:262   */\n      0x20\n        /* \"#utility.yul\":248:257   */\n      dup3\n        /* \"#utility.yul\":239:246   */\n      dup5\n        /* \"#utility.yul\":235:258   */\n      sub\n        /* \"#utility.yul\":231:263   */\n      slt\n        /* \"#utility.yul\":228:347   */\n      iszero\n      tag_26\n      jumpi\n        /* \"#utility.yul\":266:345   */\n      tag_27\n      tag_28\n      jump\t// in\n    tag_27:\n        /* \"#utility.yul\":228:347   */\n    tag_26:\n        /* \"#utility.yul\":386:387   */\n      0x00\n        /* \"#utility.yul\":411:464   */\n      tag_29\n        /* \"#utility.yul\":456:463   */\n      dup5\n        /* \"#utility.yul\":447:453   */\n      dup3\n        /* \"#utility.yul\":436:445   */\n      dup6\n        /* \"#utility.yul\":432:454   */\n      add\n        /* \"#utility.yul\":411:464   */\n      tag_21\n      jump\t// in\n    tag_29:\n        /* \"#utility.yul\":401:464   */\n      swap2\n      pop\n        /* \"#utility.yul\":357:474   */\n      pop\n        /* \"#utility.yul\":152:481   */\n      swap3\n      swap2\n      pop\n      pop\n      jump\t// out\n        /* \"#utility.yul\":487:596   */\n    tag_30:\n        /* \"#utility.yul\":568:589   */\n      tag_32\n        /* \"#utility.yul\":583:588   */\n      dup2\n        /* \"#utility.yul\":568:589   */\n      tag_33\n      jump\t// in\n    tag_32:\n        /* \"#utility.yul\":563:566   */\n      dup3\n        /* \"#utility.yul\":556:590   */\n      mstore\n        /* \"#utility.yul\":487:596   */\n      pop\n      pop\n      jump\t// out\n        /* \"#utility.yul\":602:720   */\n    tag_34:\n        /* \"#utility.yul\":689:713   */\n      tag_36\n        /* \"#utility.yul\":707:712   */\n      dup2\n        /* \"#utility.yul\":689:713   */\n      tag_37\n      jump\t// in\n    tag_36:\n        /* \"#utility.yul\":684:687   */\n      dup3\n        /* \"#utility.yul\":677:714   */\n      mstore\n        /* \"#utility.yul\":602:720   */\n      pop\n      pop\n      jump\t// out\n        /* \"#utility.yul\":726:936   */\n    tag_18:\n        /* \"#utility.yul\":813:817   */\n      0x00\n        /* \"#utility.yul\":851:853   */\n      0x20\n        /* \"#utility.yul\":840:849   */\n      dup3\n        /* \"#utility.yul\":836:854   */\n      add\n        /* \"#utility.yul\":828:854   */\n      swap1\n      pop\n        /* \"#utility.yul\":864:929   */\n      tag_39\n        /* \"#utility.yul\":926:927   */\n      0x00\n        /* \"#utility.yul\":915:924   */\n      dup4\n        /* \"#utility.yul\":911:928   */\n      add\n        /* \"#utility.yul\":902:908   */\n      dup5\n        /* \"#utility.yul\":864:929   */\n      tag_30\n      jump\t// in\n    tag_39:\n        /* \"#utility.yul\":726:936   */\n      swap3\n      swap2\n      pop\n      pop\n      jump\t// out\n        /* \"#utility.yul\":942:1164   */\n    tag_11:\n        /* \"#utility.yul\":1035:1039   */\n      0x00\n        /* \"#utility.yul\":1073:1075   */\n      0x20\n        /* \"#utility.yul\":1062:1071   */\n      dup3\n        /* \"#utility.yul\":1058:1076   */\n      add\n        /* \"#utility.yul\":1050:1076   */\n      swap1\n      pop\n        /* \"#utility.yul\":1086:1157   */\n      tag_41\n        /* \"#utility.yul\":1154:1155   */\n      0x00\n        /* \"#utility.yul\":1143:1152   */\n      dup4\n        /* \"#utility.yul\":1139:1156   */\n      add\n        /* \"#utility.yul\":1130:1136   */\n      dup5\n        /* \"#utility.yul\":1086:1157   */\n      tag_34\n      jump\t// in\n    tag_41:\n        /* \"#utility.yul\":942:1164   */\n      swap3\n      swap2\n      pop\n      pop\n      jump\t// out\n        /* \"#utility.yul\":1251:1347   */\n    tag_44:\n        /* \"#utility.yul\":1288:1295   */\n      0x00\n        /* \"#utility.yul\":1317:1341   */\n      tag_46\n        /* \"#utility.yul\":1335:1340   */\n      dup3\n        /* \"#utility.yul\":1317:1341   */\n      tag_47\n      jump\t// in\n    tag_46:\n        /* \"#utility.yul\":1306:1341   */\n      swap1\n      pop\n        /* \"#utility.yul\":1251:1347   */\n      swap2\n      swap1\n      pop\n      jump\t// out\n        /* \"#utility.yul\":1353:1443   */\n    tag_33:\n        /* \"#utility.yul\":1387:1394   */\n      0x00\n        /* \"#utility.yul\":1430:1435   */\n      dup2\n        /* \"#utility.yul\":1423:1436   */\n      iszero\n        /* \"#utility.yul\":1416:1437   */\n      iszero\n        /* \"#utility.yul\":1405:1437   */\n      swap1\n      pop\n        /* \"#utility.yul\":1353:1443   */\n      swap2\n      swap1\n      pop\n      jump\t// out\n        /* \"#utility.yul\":1449:1575   */\n    tag_47:\n        /* \"#utility.yul\":1486:1493   */\n      0x00\n        /* \"#utility.yul\":1526:1568   */\n      0xffffffffffffffffffffffffffffffffffffffff\n        /* \"#utility.yul\":1519:1524   */\n      dup3\n        /* \"#utility.yul\":1515:1569   */\n      and\n        /* \"#utility.yul\":1504:1569   */\n      swap1\n      pop\n        /* \"#utility.yul\":1449:1575   */\n      swap2\n      swap1\n      pop\n      jump\t// out\n        /* \"#utility.yul\":1581:1658   */\n    tag_37:\n        /* \"#utility.yul\":1618:1625   */\n      0x00\n        /* \"#utility.yul\":1647:1652   */\n      dup2\n        /* \"#utility.yul\":1636:1652   */\n      swap1\n      pop\n        /* \"#utility.yul\":1581:1658   */\n      swap2\n      swap1\n      pop\n      jump\t// out\n        /* \"#utility.yul\":1787:1904   */\n    tag_28:\n        /* \"#utility.yul\":1896:1897   */\n      0x00\n        /* \"#utility.yul\":1893:1894   */\n      dup1\n        /* \"#utility.yul\":1886:1898   */\n      revert\n        /* \"#utility.yul\":1910:2032   */\n    tag_24:\n        /* \"#utility.yul\":1983:2007   */\n      tag_55\n        /* \"#utility.yul\":2001:2006   */\n      dup2\n        /* \"#utility.yul\":1983:2007   */\n      tag_44\n      jump\t// in\n    tag_55:\n        /* \"#utility.yul\":1976:1981   */\n      dup2\n        /* \"#utility.yul\":1973:2008   */\n      eq\n        /* \"#utility.yul\":1963:2026   */\n      tag_56\n      jumpi\n        /* \"#utility.yul\":2022:2023   */\n      0x00\n        /* \"#utility.yul\":2019:2020   */\n      dup1\n        /* \"#utility.yul\":2012:2024   */\n      revert\n        /* \"#utility.yul\":1963:2026   */\n    tag_56:\n        /* \"#utility.yul\":1910:2032   */\n      pop\n      jump\t// out\n\n    auxdata: 0xa2646970667358221220a14a459eda5e760a0f6dda3ec19dcbe84e829d24b8251dd241d146a62be12b7064736f6c63430008070033\n}\n",
				"bytecode": {
					"linkReferences": {},
					"object": "608060405234801561001057600080fd5b506102a0806100206000396000f3fe608060405234801561001057600080fd5b50600436106100415760003560e01c806327e235e31461004657806354353f2f146100765780637cd380f114610080575b600080fd5b610060600480360381019061005b9190610185565b6100b0565b60405161006d91906101eb565b60405180910390f35b61007e6100c8565b005b61009a60048036038101906100959190610185565b610150565b6040516100a791906101d0565b60405180910390f35b60006020528060005260406000206000915090505481565b607b6000803373ffffffffffffffffffffffffffffffffffffffff1673ffffffffffffffffffffffffffffffffffffffff168152602001908152602001600020819055506000803373ffffffffffffffffffffffffffffffffffffffff1673ffffffffffffffffffffffffffffffffffffffff16815260200190815260200160002060009055565b60016020528060005260406000206000915054906101000a900460ff1681565b60008135905061017f81610253565b92915050565b60006020828403121561019b5761019a61024e565b5b60006101a984828501610170565b91505092915050565b6101bb81610218565b82525050565b6101ca81610244565b82525050565b60006020820190506101e560008301846101b2565b92915050565b600060208201905061020060008301846101c1565b92915050565b600061021182610224565b9050919050565b60008115159050919050565b600073ffffffffffffffffffffffffffffffffffffffff82169050919050565b6000819050919050565b600080fd5b61025c81610206565b811461026757600080fd5b5056fea2646970667358221220a14a459eda5e760a0f6dda3ec19dcbe84e829d24b8251dd241d146a62be12b7064736f6c63430008070033",
					"opcodes": "PUSH1 0x80 PUSH1 0x40 MSTORE CALLVALUE DUP1 ISZERO PUSH2 0x10 JUMPI PUSH1 0x0 DUP1 REVERT JUMPDEST POP PUSH2 0x2A0 DUP1 PUSH2 0x20 PUSH1 0x0 CODECOPY PUSH1 0x0 RETURN INVALID PUSH1 0x80 PUSH1 0x40 MSTORE CALLVALUE DUP1 ISZERO PUSH2 0x10 JUMPI PUSH1 0x0 DUP1 REVERT JUMPDEST POP PUSH1 0x4 CALLDATASIZE LT PUSH2 0x41 JUMPI PUSH1 0x0 CALLDATALOAD PUSH1 0xE0 SHR DUP1 PUSH4 0x27E235E3 EQ PUSH2 0x46 JUMPI DUP1 PUSH4 0x54353F2F EQ PUSH2 0x76 JUMPI DUP1 PUSH4 0x7CD380F1 EQ PUSH2 0x80 JUMPI JUMPDEST PUSH1 0x0 DUP1 REVERT JUMPDEST PUSH2 0x60 PUSH1 0x4 DUP1 CALLDATASIZE SUB DUP2 ADD SWAP1 PUSH2 0x5B SWAP2 SWAP1 PUSH2 0x185 JUMP JUMPDEST PUSH2 0xB0 JUMP JUMPDEST PUSH1 0x40 MLOAD PUSH2 0x6D SWAP2 SWAP1 PUSH2 0x1EB JUMP JUMPDEST PUSH1 0x40 MLOAD DUP1 SWAP2 SUB SWAP1 RETURN JUMPDEST PUSH2 0x7E PUSH2 0xC8 JUMP JUMPDEST STOP JUMPDEST PUSH2 0x9A PUSH1 0x4 DUP1 CALLDATASIZE SUB DUP2 ADD SWAP1 PUSH2 0x95 SWAP2 SWAP1 PUSH2 0x185 JUMP JUMPDEST PUSH2 0x150 JUMP JUMPDEST PUSH1 0x40 MLOAD PUSH2 0xA7 SWAP2 SWAP1 PUSH2 0x1D0 JUMP JUMPDEST PUSH1 0x40 MLOAD DUP1 SWAP2 SUB SWAP1 RETURN JUMPDEST PUSH1 0x0 PUSH1 0x20 MSTORE DUP1 PUSH1 0x0 MSTORE PUSH1 0x40 PUSH1 0x0 KECCAK256 PUSH1 0x0 SWAP2 POP SWAP1 POP SLOAD DUP2 JUMP JUMPDEST PUSH1 0x7B PUSH1 0x0 DUP1 CALLER PUSH20 0xFFFFFFFFFFFFFFFFFFFFFFFFFFFFFFFFFFFFFFFF AND PUSH20 0xFFFFFFFFFFFFFFFFFFFFFFFFFFFFFFFFFFFFFFFF AND DUP2 MSTORE PUSH1 0x20 ADD SWAP1 DUP2 MSTORE PUSH1 0x20 ADD PUSH1 0x0 KECCAK256 DUP2 SWAP1 SSTORE POP PUSH1 0x0 DUP1 CALLER PUSH20 0xFFFFFFFFFFFFFFFFFFFFFFFFFFFFFFFFFFFFFFFF AND PUSH20 0xFFFFFFFFFFFFFFFFFFFFFFFFFFFFFFFFFFFFFFFF AND DUP2 MSTORE PUSH1 0x20 ADD SWAP1 DUP2 MSTORE PUSH1 0x20 ADD PUSH1 0x0 KECCAK256 PUSH1 0x0 SWAP1 SSTORE JUMP JUMPDEST PUSH1 0x1 PUSH1 0x20 MSTORE DUP1 PUSH1 0x0 MSTORE PUSH1 0x40 PUSH1 0x0 KECCAK256 PUSH1 0x0 SWAP2 POP SLOAD SWAP1 PUSH2 0x100 EXP SWAP1 DIV PUSH1 0xFF AND DUP2 JUMP JUMPDEST PUSH1 0x0 DUP2 CALLDATALOAD SWAP1 POP PUSH2 0x17F DUP2 PUSH2 0x253 JUMP JUMPDEST SWAP3 SWAP2 POP POP JUMP JUMPDEST PUSH1 0x0 PUSH1 0x20 DUP3 DUP5 SUB SLT ISZERO PUSH2 0x19B JUMPI PUSH2 0x19A PUSH2 0x24E JUMP JUMPDEST JUMPDEST PUSH1 0x0 PUSH2 0x1A9 DUP5 DUP3 DUP6 ADD PUSH2 0x170 JUMP JUMPDEST SWAP2 POP POP SWAP3 SWAP2 POP POP JUMP JUMPDEST PUSH2 0x1BB DUP2 PUSH2 0x218 JUMP JUMPDEST DUP3 MSTORE POP POP JUMP JUMPDEST PUSH2 0x1CA DUP2 PUSH2 0x244 JUMP JUMPDEST DUP3 MSTORE POP POP JUMP JUMPDEST PUSH1 0x0 PUSH1 0x20 DUP3 ADD SWAP1 POP PUSH2 0x1E5 PUSH1 0x0 DUP4 ADD DUP5 PUSH2 0x1B2 JUMP JUMPDEST SWAP3 SWAP2 POP POP JUMP JUMPDEST PUSH1 0x0 PUSH1 0x20 DUP3 ADD SWAP1 POP PUSH2 0x200 PUSH1 0x0 DUP4 ADD DUP5 PUSH2 0x1C1 JUMP JUMPDEST SWAP3 SWAP2 POP POP JUMP JUMPDEST PUSH1 0x0 PUSH2 0x211 DUP3 PUSH2 0x224 JUMP JUMPDEST SWAP1 POP SWAP2 SWAP1 POP JUMP JUMPDEST PUSH1 0x0 DUP2 ISZERO ISZERO SWAP1 POP SWAP2 SWAP1 POP JUMP JUMPDEST PUSH1 0x0 PUSH20 0xFFFFFFFFFFFFFFFFFFFFFFFFFFFFFFFFFFFFFFFF DUP3 AND SWAP1 POP SWAP2 SWAP1 POP JUMP JUMPDEST PUSH1 0x0 DUP2 SWAP1 POP SWAP2 SWAP1 POP JUMP JUMPDEST PUSH1 0x0 DUP1 REVERT JUMPDEST PUSH2 0x25C DUP2 PUSH2 0x206 JUMP JUMPDEST DUP2 EQ PUSH2 0x267 JUMPI PUSH1 0x0 DUP1 REVERT JUMPDEST POP JUMP INVALID LOG2 PUSH5 0x6970667358 0x22 SLT KECCAK256 LOG1 0x4A GASLIMIT SWAP15 0xDA 0x5E PUSH23 0xA0F6DDA3EC19DCBE84E829D24B8251DD241D146A62BE1 0x2B PUSH17 0x64736F6C63430008070033000000000000 "
				},
				"gasEstimates": {
					"creation": {
						"codeDepositCost": "134400",
						"executionCost": "177",
						"totalCost": "134577"
					},
					"external": {
						"balances(address)": "2792",
						"example()": "27445",
						"inserted(address)": "2867"
					}
				},
				"methodIdentifiers": {
					"balances(address)": "27e235e3",
					"example()": "54353f2f",
					"inserted(address)": "7cd380f1"
				}
			},
			"storageLayout": {
				"storage": [
					{
						"astId": 5,
						"contract": "solidity-learn/mapping.sol:Mapping",
						"label": "balances",
						"offset": 0,
						"slot": "0",
						"type": "t_mapping(t_address,t_uint256)"
					},
					{
						"astId": 9,
						"contract": "solidity-learn/mapping.sol:Mapping",
						"label": "inserted",
						"offset": 0,
						"slot": "1",
						"type": "t_mapping(t_address,t_bool)"
					}
				],
				"types": {
					"t_address": {
						"encoding": "inplace",
						"label": "address",
						"numberOfBytes": "20"
					},
					"t_bool": {
						"encoding": "inplace",
						"label": "bool",
						"numberOfBytes": "1"
					},
					"t_mapping(t_address,t_bool)": {
						"encoding": "mapping",
						"key": "t_address",
						"label": "mapping(address => bool)",
						"numberOfBytes": "32",
						"value": "t_bool"
					},
					"t_mapping(t_address,t_uint256)": {
						"encoding": "mapping",
						"key": "t_address",
						"label": "mapping(address => uint256)",
						"numberOfBytes": "32",
						"value": "t_uint256"
					},
					"t_uint256": {
						"encoding": "inplace",
						"label": "uint256",
						"numberOfBytes": "32"
					}
				}
			},
			"userdoc": {
				"kind": "user",
				"methods": {},
				"version": 1
			}
		}
	}
}