{
	"solidity-learn/functionoutputs.sol": {
		"MultipleOutputs": {
			"abi": [
				{
					"inputs": [],
					"name": "multipleOutputs",
					"outputs": [
						{
							"internalType": "bool",
							"name": "",
							"type": "bool"
						},
						{
							"internalType": "uint256",
							"name": "",
							"type": "uint256"
						}
					],
					"stateMutability": "pure",
					"type": "function"
				},
				{
					"inputs": [],
					"name": "namedOutputs",
					"outputs": [
						{
							"internalType": "bool",
							"name": "b",
							"type": "bool"
						},
						{
							"internalType": "uint256",
							"name": "x",
							"type": "uint256"
						}
					],
					"stateMutability": "pure",
					"type": "function"
				}
			],
			"devdoc": {
				"kind": "dev",
				"methods": {},
				"version": 1
			},
			"evm": {
				"assembly": "    /* \"solidity-learn/functionoutputs.sol\":57:307  contract MultipleOutputs{\r... */\n  mstore(0x40, 0x80)\n  callvalue\n  dup1\n  iszero\n  tag_1\n  jumpi\n  0x00\n  dup1\n  revert\ntag_1:\n  pop\n  dataSize(sub_0)\n  dup1\n  dataOffset(sub_0)\n  0x00\n  codecopy\n  0x00\n  return\nstop\n\nsub_0: assembly {\n        /* \"solidity-learn/functionoutputs.sol\":57:307  contract MultipleOutputs{\r... */\n      mstore(0x40, 0x80)\n      callvalue\n      dup1\n      iszero\n      tag_1\n      jumpi\n      0x00\n      dup1\n      revert\n    tag_1:\n      pop\n      jumpi(tag_2, lt(calldatasize, 0x04))\n      shr(0xe0, calldataload(0x00))\n      dup1\n      0x792803a9\n      eq\n      tag_3\n      jumpi\n      dup1\n      0x7970a189\n      eq\n      tag_4\n      jumpi\n    tag_2:\n      0x00\n      dup1\n      revert\n        /* \"solidity-learn/functionoutputs.sol\":90:184  function multipleOutputs()external pure returns (bool,uint){\r... */\n    tag_3:\n      tag_5\n      tag_6\n      jump\t// in\n    tag_5:\n      mload(0x40)\n      tag_7\n      swap3\n      swap2\n      swap1\n      tag_8\n      jump\t// in\n    tag_7:\n      mload(0x40)\n      dup1\n      swap2\n      sub\n      swap1\n      return\n        /* \"solidity-learn/functionoutputs.sol\":192:302  function namedOutputs() external pure returns (bool b,uint x){\r... */\n    tag_4:\n      tag_9\n      tag_10\n      jump\t// in\n    tag_9:\n      mload(0x40)\n      tag_11\n      swap3\n      swap2\n      swap1\n      tag_8\n      jump\t// in\n    tag_11:\n      mload(0x40)\n      dup1\n      swap2\n      sub\n      swap1\n      return\n        /* \"solidity-learn/functionoutputs.sol\":90:184  function multipleOutputs()external pure returns (bool,uint){\r... */\n    tag_6:\n        /* \"solidity-learn/functionoutputs.sol\":139:143  bool */\n      0x00\n        /* \"solidity-learn/functionoutputs.sol\":144:148  uint */\n      dup1\n        /* \"solidity-learn/functionoutputs.sol\":168:173  false */\n      0x00\n        /* \"solidity-learn/functionoutputs.sol\":174:175  1 */\n      0x01\n        /* \"solidity-learn/functionoutputs.sol\":160:176  return (false,1) */\n      swap2\n      pop\n      swap2\n      pop\n        /* \"solidity-learn/functionoutputs.sol\":90:184  function multipleOutputs()external pure returns (bool,uint){\r... */\n      swap1\n      swap2\n      jump\t// out\n        /* \"solidity-learn/functionoutputs.sol\":192:302  function namedOutputs() external pure returns (bool b,uint x){\r... */\n    tag_10:\n        /* \"solidity-learn/functionoutputs.sol\":239:245  bool b */\n      0x00\n        /* \"solidity-learn/functionoutputs.sol\":246:252  uint x */\n      dup1\n        /* \"solidity-learn/functionoutputs.sol\":268:273  false */\n      0x00\n        /* \"solidity-learn/functionoutputs.sol\":264:273  b = false */\n      swap2\n      pop\n        /* \"solidity-learn/functionoutputs.sol\":284:290  uint x */\n      0x00\n        /* \"solidity-learn/functionoutputs.sol\":293:294  1 */\n      0x01\n        /* \"solidity-learn/functionoutputs.sol\":284:294  uint x = 1 */\n      swap1\n      pop\n        /* \"solidity-learn/functionoutputs.sol\":253:302  {\r... */\n      pop\n        /* \"solidity-learn/functionoutputs.sol\":192:302  function namedOutputs() external pure returns (bool b,uint x){\r... */\n      swap1\n      swap2\n      jump\t// out\n        /* \"#utility.yul\":7:116   */\n    tag_15:\n        /* \"#utility.yul\":88:109   */\n      tag_17\n        /* \"#utility.yul\":103:108   */\n      dup2\n        /* \"#utility.yul\":88:109   */\n      tag_18\n      jump\t// in\n    tag_17:\n        /* \"#utility.yul\":83:86   */\n      dup3\n        /* \"#utility.yul\":76:110   */\n      mstore\n        /* \"#utility.yul\":7:116   */\n      pop\n      pop\n      jump\t// out\n        /* \"#utility.yul\":122:240   */\n    tag_19:\n        /* \"#utility.yul\":209:233   */\n      tag_21\n        /* \"#utility.yul\":227:232   */\n      dup2\n        /* \"#utility.yul\":209:233   */\n      tag_22\n      jump\t// in\n    tag_21:\n        /* \"#utility.yul\":204:207   */\n      dup3\n        /* \"#utility.yul\":197:234   */\n      mstore\n        /* \"#utility.yul\":122:240   */\n      pop\n      pop\n      jump\t// out\n        /* \"#utility.yul\":246:566   */\n    tag_8:\n        /* \"#utility.yul\":361:365   */\n      0x00\n        /* \"#utility.yul\":399:401   */\n      0x40\n        /* \"#utility.yul\":388:397   */\n      dup3\n        /* \"#utility.yul\":384:402   */\n      add\n        /* \"#utility.yul\":376:402   */\n      swap1\n      pop\n        /* \"#utility.yul\":412:477   */\n      tag_24\n        /* \"#utility.yul\":474:475   */\n      0x00\n        /* \"#utility.yul\":463:472   */\n      dup4\n        /* \"#utility.yul\":459:476   */\n      add\n        /* \"#utility.yul\":450:456   */\n      dup6\n        /* \"#utility.yul\":412:477   */\n      tag_15\n      jump\t// in\n    tag_24:\n        /* \"#utility.yul\":487:559   */\n      tag_25\n        /* \"#utility.yul\":555:557   */\n      0x20\n        /* \"#utility.yul\":544:553   */\n      dup4\n        /* \"#utility.yul\":540:558   */\n      add\n        /* \"#utility.yul\":531:537   */\n      dup5\n        /* \"#utility.yul\":487:559   */\n      tag_19\n      jump\t// in\n    tag_25:\n        /* \"#utility.yul\":246:566   */\n      swap4\n      swap3\n      pop\n      pop\n      pop\n      jump\t// out\n        /* \"#utility.yul\":572:662   */\n    tag_18:\n        /* \"#utility.yul\":606:613   */\n      0x00\n        /* \"#utility.yul\":649:654   */\n      dup2\n        /* \"#utility.yul\":642:655   */\n      iszero\n        /* \"#utility.yul\":635:656   */\n      iszero\n        /* \"#utility.yul\":624:656   */\n      swap1\n      pop\n        /* \"#utility.yul\":572:662   */\n      swap2\n      swap1\n      pop\n      jump\t// out\n        /* \"#utility.yul\":668:745   */\n    tag_22:\n        /* \"#utility.yul\":705:712   */\n      0x00\n        /* \"#utility.yul\":734:739   */\n      dup2\n        /* \"#utility.yul\":723:739   */\n      swap1\n      pop\n        /* \"#utility.yul\":668:745   */\n      swap2\n      swap1\n      pop\n      jump\t// out\n\n    auxdata: 0xa2646970667358221220f8e0e212d1fc11b01813d9506fd604dbdab9f09676f9c0bd8c91f2896255963164736f6c63430008070033\n}\n",
				"bytecode": {
					"linkReferences": {},
					"object": "608060405234801561001057600080fd5b50610119806100206000396000f3fe6080604052348015600f57600080fd5b506004361060325760003560e01c8063792803a91460375780637970a189146052575b600080fd5b603d606d565b604051604992919060a8565b60405180910390f35b6058607c565b604051606492919060a8565b60405180910390f35b60008060006001915091509091565b60008060009150600060019050509091565b60958160cd565b82525050565b60a28160d9565b82525050565b600060408201905060bb6000830185608e565b60c66020830184609b565b9392505050565b60008115159050919050565b600081905091905056fea2646970667358221220f8e0e212d1fc11b01813d9506fd604dbdab9f09676f9c0bd8c91f2896255963164736f6c63430008070033",
					"opcodes": "PUSH1 0x80 PUSH1 0x40 MSTORE CALLVALUE DUP1 ISZERO PUSH2 0x10 JUMPI PUSH1 0x0 DUP1 REVERT JUMPDEST POP PUSH2 0x119 DUP1 PUSH2 0x20 PUSH1 0x0 CODECOPY PUSH1 0x0 RETURN INVALID PUSH1 0x80 PUSH1 0x40 MSTORE CALLVALUE DUP1 ISZERO PUSH1 0xF JUMPI PUSH1 0x0 DUP1 REVERT JUMPDEST POP PUSH1 0x4 CALLDATASIZE LT PUSH1 0x32 JUMPI PUSH1 0x0 CALLDATALOAD PUSH1 0xE0 SHR DUP1 PUSH4 0x792803A9 EQ PUSH1 0x37 JUMPI DUP1 PUSH4 0x7970A189 EQ PUSH1 0x52 JUMPI JUMPDEST PUSH1 0x0 DUP1 REVERT JUMPDEST PUSH1 0x3D PUSH1 0x6D JUMP JUMPDEST PUSH1 0x40 MLOAD PUSH1 0x49 SWAP3 SWAP2 SWAP1 PUSH1 0xA8 JUMP JUMPDEST PUSH1 0x40 MLOAD DUP1 SWAP2 SUB SWAP1 RETURN JUMPDEST PUSH1 0x58 PUSH1 0x7C JUMP JUMPDEST PUSH1 0x40 MLOAD PUSH1 0x64 SWAP3 SWAP2 SWAP1 PUSH1 0xA8 JUMP JUMPDEST PUSH1 0x40 MLOAD DUP1 SWAP2 SUB SWAP1 RETURN JUMPDEST PUSH1 0x0 DUP1 PUSH1 0x0 PUSH1 0x1 SWAP2 POP SWAP2 POP SWAP1 SWAP2 JUMP JUMPDEST PUSH1 0x0 DUP1 PUSH1 0x0 SWAP2 POP PUSH1 0x0 PUSH1 0x1 SWAP1 POP POP SWAP1 SWAP2 JUMP JUMPDEST PUSH1 0x95 DUP2 PUSH1 0xCD JUMP JUMPDEST DUP3 MSTORE POP POP JUMP JUMPDEST PUSH1 0xA2 DUP2 PUSH1 0xD9 JUMP JUMPDEST DUP3 MSTORE POP POP JUMP JUMPDEST PUSH1 0x0 PUSH1 0x40 DUP3 ADD SWAP1 POP PUSH1 0xBB PUSH1 0x0 DUP4 ADD DUP6 PUSH1 0x8E JUMP JUMPDEST PUSH1 0xC6 PUSH1 0x20 DUP4 ADD DUP5 PUSH1 0x9B JUMP JUMPDEST SWAP4 SWAP3 POP POP POP JUMP JUMPDEST PUSH1 0x0 DUP2 ISZERO ISZERO SWAP1 POP SWAP2 SWAP1 POP JUMP JUMPDEST PUSH1 0x0 DUP2 SWAP1 POP SWAP2 SWAP1 POP JUMP INVALID LOG2 PUSH5 0x6970667358 0x22 SLT KECCAK256 0xF8 0xE0 0xE2 SLT 0xD1 0xFC GT 0xB0 XOR SGT 0xD9 POP PUSH16 0xD604DBDAB9F09676F9C0BD8C91F28962 SSTORE SWAP7 BALANCE PUSH5 0x736F6C6343 STOP ADDMOD SMOD STOP CALLER "
				},
				"gasEstimates": {
					"creation": {
						"codeDepositCost": "56200",
						"executionCost": "105",
						"totalCost": "56305"
					},
					"external": {
						"multipleOutputs()": "435",
						"namedOutputs()": "462"
					}
				},
				"methodIdentifiers": {
					"multipleOutputs()": "792803a9",
					"namedOutputs()": "7970a189"
				}
			},
			"storageLayout": {
				"storage": [],
				"types": null
			},
			"userdoc": {
				"kind": "user",
				"methods": {},
				"version": 1
			}
		}
	}
}