{
	"solidity-learn/forandwhileloop.sol": {
		"forandwhile": {
			"abi": [
				{
					"inputs": [],
					"name": "forloop",
					"outputs": [
						{
							"internalType": "uint256",
							"name": "",
							"type": "uint256"
						}
					],
					"stateMutability": "pure",
					"type": "function"
				},
				{
					"inputs": [],
					"name": "whileloop",
					"outputs": [
						{
							"internalType": "int256",
							"name": "",
							"type": "int256"
						}
					],
					"stateMutability": "pure",
					"type": "function"
				}
			],
			"devdoc": {
				"kind": "dev",
				"methods": {},
				"version": 1
			},
			"evm": {
				"assembly": "    /* \"solidity-learn/forandwhileloop.sol\":57:319  contract forandwhile{\r... */\n  mstore(0x40, 0x80)\n  callvalue\n  dup1\n  iszero\n  tag_1\n  jumpi\n  0x00\n  dup1\n  revert\ntag_1:\n  pop\n  dataSize(sub_0)\n  dup1\n  dataOffset(sub_0)\n  0x00\n  codecopy\n  0x00\n  return\nstop\n\nsub_0: assembly {\n        /* \"solidity-learn/forandwhileloop.sol\":57:319  contract forandwhile{\r... */\n      mstore(0x40, 0x80)\n      callvalue\n      dup1\n      iszero\n      tag_1\n      jumpi\n      0x00\n      dup1\n      revert\n    tag_1:\n      pop\n      jumpi(tag_2, lt(calldatasize, 0x04))\n      shr(0xe0, calldataload(0x00))\n      dup1\n      0x4c999463\n      eq\n      tag_3\n      jumpi\n      dup1\n      0xbc68f960\n      eq\n      tag_4\n      jumpi\n    tag_2:\n      0x00\n      dup1\n      revert\n        /* \"solidity-learn/forandwhileloop.sol\":251:316  function whileloop() external pure returns(int){\r... */\n    tag_3:\n      tag_5\n      tag_6\n      jump\t// in\n    tag_5:\n      mload(0x40)\n      tag_7\n      swap2\n      swap1\n      tag_8\n      jump\t// in\n    tag_7:\n      mload(0x40)\n      dup1\n      swap2\n      sub\n      swap1\n      return\n        /* \"solidity-learn/forandwhileloop.sol\":84:245  function forloop() external pure returns(uint){\r... */\n    tag_4:\n      tag_9\n      tag_10\n      jump\t// in\n    tag_9:\n      mload(0x40)\n      tag_11\n      swap2\n      swap1\n      tag_12\n      jump\t// in\n    tag_11:\n      mload(0x40)\n      dup1\n      swap2\n      sub\n      swap1\n      return\n        /* \"solidity-learn/forandwhileloop.sol\":251:316  function whileloop() external pure returns(int){\r... */\n    tag_6:\n        /* \"solidity-learn/forandwhileloop.sol\":294:297  int */\n      0x00\n        /* \"solidity-learn/forandwhileloop.sol\":251:316  function whileloop() external pure returns(int){\r... */\n      swap1\n      jump\t// out\n        /* \"solidity-learn/forandwhileloop.sol\":84:245  function forloop() external pure returns(uint){\r... */\n    tag_10:\n        /* \"solidity-learn/forandwhileloop.sol\":125:129  uint */\n      0x00\n        /* \"solidity-learn/forandwhileloop.sol\":141:147  uint s */\n      dup1\n        /* \"solidity-learn/forandwhileloop.sol\":150:151  0 */\n      0x00\n        /* \"solidity-learn/forandwhileloop.sol\":141:151  uint s = 0 */\n      swap1\n      pop\n        /* \"solidity-learn/forandwhileloop.sol\":166:172  uint i */\n      0x00\n        /* \"solidity-learn/forandwhileloop.sol\":162:219  for(uint i =0; i<1000;i++){\r... */\n    tag_15:\n        /* \"solidity-learn/forandwhileloop.sol\":179:183  1000 */\n      0x03e8\n        /* \"solidity-learn/forandwhileloop.sol\":177:178  i */\n      dup2\n        /* \"solidity-learn/forandwhileloop.sol\":177:183  i<1000 */\n      lt\n        /* \"solidity-learn/forandwhileloop.sol\":162:219  for(uint i =0; i<1000;i++){\r... */\n      iszero\n      tag_16\n      jumpi\n        /* \"solidity-learn/forandwhileloop.sol\":206:207  i */\n      dup1\n        /* \"solidity-learn/forandwhileloop.sol\":203:207  s+=i */\n      dup3\n      tag_18\n      swap2\n      swap1\n      tag_19\n      jump\t// in\n    tag_18:\n      swap2\n      pop\n        /* \"solidity-learn/forandwhileloop.sol\":184:187  i++ */\n      dup1\n      dup1\n      tag_20\n      swap1\n      tag_21\n      jump\t// in\n    tag_20:\n      swap2\n      pop\n      pop\n        /* \"solidity-learn/forandwhileloop.sol\":162:219  for(uint i =0; i<1000;i++){\r... */\n      jump(tag_15)\n    tag_16:\n      pop\n        /* \"solidity-learn/forandwhileloop.sol\":236:237  s */\n      dup1\n        /* \"solidity-learn/forandwhileloop.sol\":229:237  return s */\n      swap2\n      pop\n      pop\n        /* \"solidity-learn/forandwhileloop.sol\":84:245  function forloop() external pure returns(uint){\r... */\n      swap1\n      jump\t// out\n        /* \"#utility.yul\":7:122   */\n    tag_23:\n        /* \"#utility.yul\":92:115   */\n      tag_25\n        /* \"#utility.yul\":109:114   */\n      dup2\n        /* \"#utility.yul\":92:115   */\n      tag_26\n      jump\t// in\n    tag_25:\n        /* \"#utility.yul\":87:90   */\n      dup3\n        /* \"#utility.yul\":80:116   */\n      mstore\n        /* \"#utility.yul\":7:122   */\n      pop\n      pop\n      jump\t// out\n        /* \"#utility.yul\":128:246   */\n    tag_27:\n        /* \"#utility.yul\":215:239   */\n      tag_29\n        /* \"#utility.yul\":233:238   */\n      dup2\n        /* \"#utility.yul\":215:239   */\n      tag_30\n      jump\t// in\n    tag_29:\n        /* \"#utility.yul\":210:213   */\n      dup3\n        /* \"#utility.yul\":203:240   */\n      mstore\n        /* \"#utility.yul\":128:246   */\n      pop\n      pop\n      jump\t// out\n        /* \"#utility.yul\":252:470   */\n    tag_8:\n        /* \"#utility.yul\":343:347   */\n      0x00\n        /* \"#utility.yul\":381:383   */\n      0x20\n        /* \"#utility.yul\":370:379   */\n      dup3\n        /* \"#utility.yul\":366:384   */\n      add\n        /* \"#utility.yul\":358:384   */\n      swap1\n      pop\n        /* \"#utility.yul\":394:463   */\n      tag_32\n        /* \"#utility.yul\":460:461   */\n      0x00\n        /* \"#utility.yul\":449:458   */\n      dup4\n        /* \"#utility.yul\":445:462   */\n      add\n        /* \"#utility.yul\":436:442   */\n      dup5\n        /* \"#utility.yul\":394:463   */\n      tag_23\n      jump\t// in\n    tag_32:\n        /* \"#utility.yul\":252:470   */\n      swap3\n      swap2\n      pop\n      pop\n      jump\t// out\n        /* \"#utility.yul\":476:698   */\n    tag_12:\n        /* \"#utility.yul\":569:573   */\n      0x00\n        /* \"#utility.yul\":607:609   */\n      0x20\n        /* \"#utility.yul\":596:605   */\n      dup3\n        /* \"#utility.yul\":592:610   */\n      add\n        /* \"#utility.yul\":584:610   */\n      swap1\n      pop\n        /* \"#utility.yul\":620:691   */\n      tag_34\n        /* \"#utility.yul\":688:689   */\n      0x00\n        /* \"#utility.yul\":677:686   */\n      dup4\n        /* \"#utility.yul\":673:690   */\n      add\n        /* \"#utility.yul\":664:670   */\n      dup5\n        /* \"#utility.yul\":620:691   */\n      tag_27\n      jump\t// in\n    tag_34:\n        /* \"#utility.yul\":476:698   */\n      swap3\n      swap2\n      pop\n      pop\n      jump\t// out\n        /* \"#utility.yul\":704:1009   */\n    tag_19:\n        /* \"#utility.yul\":744:747   */\n      0x00\n        /* \"#utility.yul\":763:783   */\n      tag_36\n        /* \"#utility.yul\":781:782   */\n      dup3\n        /* \"#utility.yul\":763:783   */\n      tag_30\n      jump\t// in\n    tag_36:\n        /* \"#utility.yul\":758:783   */\n      swap2\n      pop\n        /* \"#utility.yul\":797:817   */\n      tag_37\n        /* \"#utility.yul\":815:816   */\n      dup4\n        /* \"#utility.yul\":797:817   */\n      tag_30\n      jump\t// in\n    tag_37:\n        /* \"#utility.yul\":792:817   */\n      swap3\n      pop\n        /* \"#utility.yul\":951:952   */\n      dup3\n        /* \"#utility.yul\":883:949   */\n      0xffffffffffffffffffffffffffffffffffffffffffffffffffffffffffffffff\n        /* \"#utility.yul\":879:953   */\n      sub\n        /* \"#utility.yul\":876:877   */\n      dup3\n        /* \"#utility.yul\":873:954   */\n      gt\n        /* \"#utility.yul\":870:977   */\n      iszero\n      tag_38\n      jumpi\n        /* \"#utility.yul\":957:975   */\n      tag_39\n      tag_40\n      jump\t// in\n    tag_39:\n        /* \"#utility.yul\":870:977   */\n    tag_38:\n        /* \"#utility.yul\":1001:1002   */\n      dup3\n        /* \"#utility.yul\":998:999   */\n      dup3\n        /* \"#utility.yul\":994:1003   */\n      add\n        /* \"#utility.yul\":987:1003   */\n      swap1\n      pop\n        /* \"#utility.yul\":704:1009   */\n      swap3\n      swap2\n      pop\n      pop\n      jump\t// out\n        /* \"#utility.yul\":1015:1091   */\n    tag_26:\n        /* \"#utility.yul\":1051:1058   */\n      0x00\n        /* \"#utility.yul\":1080:1085   */\n      dup2\n        /* \"#utility.yul\":1069:1085   */\n      swap1\n      pop\n        /* \"#utility.yul\":1015:1091   */\n      swap2\n      swap1\n      pop\n      jump\t// out\n        /* \"#utility.yul\":1097:1174   */\n    tag_30:\n        /* \"#utility.yul\":1134:1141   */\n      0x00\n        /* \"#utility.yul\":1163:1168   */\n      dup2\n        /* \"#utility.yul\":1152:1168   */\n      swap1\n      pop\n        /* \"#utility.yul\":1097:1174   */\n      swap2\n      swap1\n      pop\n      jump\t// out\n        /* \"#utility.yul\":1180:1413   */\n    tag_21:\n        /* \"#utility.yul\":1219:1222   */\n      0x00\n        /* \"#utility.yul\":1242:1266   */\n      tag_44\n        /* \"#utility.yul\":1260:1265   */\n      dup3\n        /* \"#utility.yul\":1242:1266   */\n      tag_30\n      jump\t// in\n    tag_44:\n        /* \"#utility.yul\":1233:1266   */\n      swap2\n      pop\n        /* \"#utility.yul\":1288:1354   */\n      0xffffffffffffffffffffffffffffffffffffffffffffffffffffffffffffffff\n        /* \"#utility.yul\":1281:1286   */\n      dup3\n        /* \"#utility.yul\":1278:1355   */\n      eq\n        /* \"#utility.yul\":1275:1378   */\n      iszero\n      tag_45\n      jumpi\n        /* \"#utility.yul\":1358:1376   */\n      tag_46\n      tag_40\n      jump\t// in\n    tag_46:\n        /* \"#utility.yul\":1275:1378   */\n    tag_45:\n        /* \"#utility.yul\":1405:1406   */\n      0x01\n        /* \"#utility.yul\":1398:1403   */\n      dup3\n        /* \"#utility.yul\":1394:1407   */\n      add\n        /* \"#utility.yul\":1387:1407   */\n      swap1\n      pop\n        /* \"#utility.yul\":1180:1413   */\n      swap2\n      swap1\n      pop\n      jump\t// out\n        /* \"#utility.yul\":1419:1599   */\n    tag_40:\n        /* \"#utility.yul\":1467:1544   */\n      0x4e487b7100000000000000000000000000000000000000000000000000000000\n        /* \"#utility.yul\":1464:1465   */\n      0x00\n        /* \"#utility.yul\":1457:1545   */\n      mstore\n        /* \"#utility.yul\":1564:1568   */\n      0x11\n        /* \"#utility.yul\":1561:1562   */\n      0x04\n        /* \"#utility.yul\":1554:1569   */\n      mstore\n        /* \"#utility.yul\":1588:1592   */\n      0x24\n        /* \"#utility.yul\":1585:1586   */\n      0x00\n        /* \"#utility.yul\":1578:1593   */\n      revert\n\n    auxdata: 0xa2646970667358221220075462b3aa324e67d433fdb4a8b989be3c82c9db5c9b19fedb202b2eacd6d55964736f6c63430008070033\n}\n",
				"bytecode": {
					"linkReferences": {},
					"object": "608060405234801561001057600080fd5b50610225806100206000396000f3fe608060405234801561001057600080fd5b50600436106100365760003560e01c80634c9994631461003b578063bc68f96014610059575b600080fd5b610043610077565b60405161005091906100d7565b60405180910390f35b61006161007c565b60405161006e91906100f2565b60405180910390f35b600090565b6000806000905060005b6103e88110156100b157808261009c919061010d565b915080806100a990610177565b915050610086565b508091505090565b6100c281610163565b82525050565b6100d18161016d565b82525050565b60006020820190506100ec60008301846100b9565b92915050565b600060208201905061010760008301846100c8565b92915050565b60006101188261016d565b91506101238361016d565b9250827fffffffffffffffffffffffffffffffffffffffffffffffffffffffffffffffff03821115610158576101576101c0565b5b828201905092915050565b6000819050919050565b6000819050919050565b60006101828261016d565b91507fffffffffffffffffffffffffffffffffffffffffffffffffffffffffffffffff8214156101b5576101b46101c0565b5b600182019050919050565b7f4e487b7100000000000000000000000000000000000000000000000000000000600052601160045260246000fdfea2646970667358221220075462b3aa324e67d433fdb4a8b989be3c82c9db5c9b19fedb202b2eacd6d55964736f6c63430008070033",
					"opcodes": "PUSH1 0x80 PUSH1 0x40 MSTORE CALLVALUE DUP1 ISZERO PUSH2 0x10 JUMPI PUSH1 0x0 DUP1 REVERT JUMPDEST POP PUSH2 0x225 DUP1 PUSH2 0x20 PUSH1 0x0 CODECOPY PUSH1 0x0 RETURN INVALID PUSH1 0x80 PUSH1 0x40 MSTORE CALLVALUE DUP1 ISZERO PUSH2 0x10 JUMPI PUSH1 0x0 DUP1 REVERT JUMPDEST POP PUSH1 0x4 CALLDATASIZE LT PUSH2 0x36 JUMPI PUSH1 0x0 CALLDATALOAD PUSH1 0xE0 SHR DUP1 PUSH4 0x4C999463 EQ PUSH2 0x3B JUMPI DUP1 PUSH4 0xBC68F960 EQ PUSH2 0x59 JUMPI JUMPDEST PUSH1 0x0 DUP1 REVERT JUMPDEST PUSH2 0x43 PUSH2 0x77 JUMP JUMPDEST PUSH1 0x40 MLOAD PUSH2 0x50 SWAP2 SWAP1 PUSH2 0xD7 JUMP JUMPDEST PUSH1 0x40 MLOAD DUP1 SWAP2 SUB SWAP1 RETURN JUMPDEST PUSH2 0x61 PUSH2 0x7C JUMP JUMPDEST PUSH1 0x40 MLOAD PUSH2 0x6E SWAP2 SWAP1 PUSH2 0xF2 JUMP JUMPDEST PUSH1 0x40 MLOAD DUP1 SWAP2 SUB SWAP1 RETURN JUMPDEST PUSH1 0x0 SWAP1 JUMP JUMPDEST PUSH1 0x0 DUP1 PUSH1 0x0 SWAP1 POP PUSH1 0x0 JUMPDEST PUSH2 0x3E8 DUP2 LT ISZERO PUSH2 0xB1 JUMPI DUP1 DUP3 PUSH2 0x9C SWAP2 SWAP1 PUSH2 0x10D JUMP JUMPDEST SWAP2 POP DUP1 DUP1 PUSH2 0xA9 SWAP1 PUSH2 0x177 JUMP JUMPDEST SWAP2 POP POP PUSH2 0x86 JUMP JUMPDEST POP DUP1 SWAP2 POP POP SWAP1 JUMP JUMPDEST PUSH2 0xC2 DUP2 PUSH2 0x163 JUMP JUMPDEST DUP3 MSTORE POP POP JUMP JUMPDEST PUSH2 0xD1 DUP2 PUSH2 0x16D JUMP JUMPDEST DUP3 MSTORE POP POP JUMP JUMPDEST PUSH1 0x0 PUSH1 0x20 DUP3 ADD SWAP1 POP PUSH2 0xEC PUSH1 0x0 DUP4 ADD DUP5 PUSH2 0xB9 JUMP JUMPDEST SWAP3 SWAP2 POP POP JUMP JUMPDEST PUSH1 0x0 PUSH1 0x20 DUP3 ADD SWAP1 POP PUSH2 0x107 PUSH1 0x0 DUP4 ADD DUP5 PUSH2 0xC8 JUMP JUMPDEST SWAP3 SWAP2 POP POP JUMP JUMPDEST PUSH1 0x0 PUSH2 0x118 DUP3 PUSH2 0x16D JUMP JUMPDEST SWAP2 POP PUSH2 0x123 DUP4 PUSH2 0x16D JUMP JUMPDEST SWAP3 POP DUP3 PUSH32 0xFFFFFFFFFFFFFFFFFFFFFFFFFFFFFFFFFFFFFFFFFFFFFFFFFFFFFFFFFFFFFFFF SUB DUP3 GT ISZERO PUSH2 0x158 JUMPI PUSH2 0x157 PUSH2 0x1C0 JUMP JUMPDEST JUMPDEST DUP3 DUP3 ADD SWAP1 POP SWAP3 SWAP2 POP POP JUMP JUMPDEST PUSH1 0x0 DUP2 SWAP1 POP SWAP2 SWAP1 POP JUMP JUMPDEST PUSH1 0x0 DUP2 SWAP1 POP SWAP2 SWAP1 POP JUMP JUMPDEST PUSH1 0x0 PUSH2 0x182 DUP3 PUSH2 0x16D JUMP JUMPDEST SWAP2 POP PUSH32 0xFFFFFFFFFFFFFFFFFFFFFFFFFFFFFFFFFFFFFFFFFFFFFFFFFFFFFFFFFFFFFFFF DUP3 EQ ISZERO PUSH2 0x1B5 JUMPI PUSH2 0x1B4 PUSH2 0x1C0 JUMP JUMPDEST JUMPDEST PUSH1 0x1 DUP3 ADD SWAP1 POP SWAP2 SWAP1 POP JUMP JUMPDEST PUSH32 0x4E487B7100000000000000000000000000000000000000000000000000000000 PUSH1 0x0 MSTORE PUSH1 0x11 PUSH1 0x4 MSTORE PUSH1 0x24 PUSH1 0x0 REVERT INVALID LOG2 PUSH5 0x6970667358 0x22 SLT KECCAK256 SMOD SLOAD PUSH3 0xB3AA32 0x4E PUSH8 0xD433FDB4A8B989BE EXTCODECOPY DUP3 0xC9 0xDB 0x5C SWAP12 NOT INVALID 0xDB KECCAK256 0x2B 0x2E 0xAC 0xD6 0xD5 MSIZE PUSH5 0x736F6C6343 STOP ADDMOD SMOD STOP CALLER "
				},
				"gasEstimates": {
					"creation": {
						"codeDepositCost": "109800",
						"executionCost": "159",
						"totalCost": "109959"
					},
					"external": {
						"forloop()": "infinite",
						"whileloop()": "307"
					}
				},
				"methodIdentifiers": {
					"forloop()": "bc68f960",
					"whileloop()": "4c999463"
				}
			},
			"storageLayout": {
				"storage": [],
				"types": null
			},
			"userdoc": {
				"kind": "user",
				"methods": {},
				"version": 1
			}
		}
	}
}