{
	"solidity-learn/error.sol": {
		"ErrorContract": {
			"abi": [
				{
					"inputs": [],
					"name": "accedentalUpdate",
					"outputs": [],
					"stateMutability": "nonpayable",
					"type": "function"
				},
				{
					"inputs": [],
					"name": "assertError",
					"outputs": [],
					"stateMutability": "view",
					"type": "function"
				},
				{
					"inputs": [],
					"name": "num",
					"outputs": [
						{
							"internalType": "uint256",
							"name": "",
							"type": "uint256"
						}
					],
					"stateMutability": "view",
					"type": "function"
				},
				{
					"inputs": [
						{
							"internalType": "uint256",
							"name": "i",
							"type": "uint256"
						}
					],
					"name": "requireError",
					"outputs": [],
					"stateMutability": "pure",
					"type": "function"
				},
				{
					"inputs": [
						{
							"internalType": "uint256",
							"name": "i",
							"type": "uint256"
						}
					],
					"name": "revertError",
					"outputs": [],
					"stateMutability": "pure",
					"type": "function"
				}
			],
			"devdoc": {
				"kind": "dev",
				"methods": {},
				"version": 1
			},
			"evm": {
				"assembly": "    /* \"solidity-learn/error.sol\":57:555  contract ErrorContract{\r... */\n  mstore(0x40, 0x80)\n    /* \"solidity-learn/error.sol\":403:406  123 */\n  0x7b\n    /* \"solidity-learn/error.sol\":385:406  uint public num = 123 */\n  0x00\n  sstore\n    /* \"solidity-learn/error.sol\":57:555  contract ErrorContract{\r... */\n  callvalue\n  dup1\n  iszero\n  tag_1\n  jumpi\n  0x00\n  dup1\n  revert\ntag_1:\n  pop\n  dataSize(sub_0)\n  dup1\n  dataOffset(sub_0)\n  0x00\n  codecopy\n  0x00\n  return\nstop\n\nsub_0: assembly {\n        /* \"solidity-learn/error.sol\":57:555  contract ErrorContract{\r... */\n      mstore(0x40, 0x80)\n      callvalue\n      dup1\n      iszero\n      tag_1\n      jumpi\n      0x00\n      dup1\n      revert\n    tag_1:\n      pop\n      jumpi(tag_2, lt(calldatasize, 0x04))\n      shr(0xe0, calldataload(0x00))\n      dup1\n      0x08ceafde\n      eq\n      tag_3\n      jumpi\n      dup1\n      0x4e70b1dc\n      eq\n      tag_4\n      jumpi\n      dup1\n      0x9856c37a\n      eq\n      tag_5\n      jumpi\n      dup1\n      0xcbaff5f9\n      eq\n      tag_6\n      jumpi\n      dup1\n      0xfcf0f4c1\n      eq\n      tag_7\n      jumpi\n    tag_2:\n      0x00\n      dup1\n      revert\n        /* \"solidity-learn/error.sol\":129:236  function requireError(uint i) external pure{\r... */\n    tag_3:\n      tag_8\n      0x04\n      dup1\n      calldatasize\n      sub\n      dup2\n      add\n      swap1\n      tag_9\n      swap2\n      swap1\n      tag_10\n      jump\t// in\n    tag_9:\n      tag_11\n      jump\t// in\n    tag_8:\n      stop\n        /* \"solidity-learn/error.sol\":385:406  uint public num = 123 */\n    tag_4:\n      tag_12\n      tag_13\n      jump\t// in\n    tag_12:\n      mload(0x40)\n      tag_14\n      swap2\n      swap1\n      tag_15\n      jump\t// in\n    tag_14:\n      mload(0x40)\n      dup1\n      swap2\n      sub\n      swap1\n      return\n        /* \"solidity-learn/error.sol\":491:552  function accedentalUpdate() external {\r... */\n    tag_5:\n      tag_16\n      tag_17\n      jump\t// in\n    tag_16:\n      stop\n        /* \"solidity-learn/error.sol\":413:485  function assertError()external view{\r... */\n    tag_6:\n      tag_18\n      tag_19\n      jump\t// in\n    tag_18:\n      stop\n        /* \"solidity-learn/error.sol\":244:377  function revertError(uint i)external pure{\r... */\n    tag_7:\n      tag_20\n      0x04\n      dup1\n      calldatasize\n      sub\n      dup2\n      add\n      swap1\n      tag_21\n      swap2\n      swap1\n      tag_10\n      jump\t// in\n    tag_21:\n      tag_22\n      jump\t// in\n    tag_20:\n      stop\n        /* \"solidity-learn/error.sol\":129:236  function requireError(uint i) external pure{\r... */\n    tag_11:\n        /* \"solidity-learn/error.sol\":195:197  10 */\n      0x0a\n        /* \"solidity-learn/error.sol\":191:192  i */\n      dup2\n        /* \"solidity-learn/error.sol\":191:197  i < 10 */\n      lt\n        /* \"solidity-learn/error.sol\":183:228  require(i < 10,\"I cannot be greater than 10\") */\n      tag_24\n      jumpi\n      mload(0x40)\n      0x08c379a000000000000000000000000000000000000000000000000000000000\n      dup2\n      mstore\n      0x04\n      add\n      tag_25\n      swap1\n      tag_26\n      jump\t// in\n    tag_25:\n      mload(0x40)\n      dup1\n      swap2\n      sub\n      swap1\n      revert\n    tag_24:\n        /* \"solidity-learn/error.sol\":129:236  function requireError(uint i) external pure{\r... */\n      pop\n      jump\t// out\n        /* \"solidity-learn/error.sol\":385:406  uint public num = 123 */\n    tag_13:\n      sload(0x00)\n      dup2\n      jump\t// out\n        /* \"solidity-learn/error.sol\":491:552  function accedentalUpdate() external {\r... */\n    tag_17:\n        /* \"solidity-learn/error.sol\":539:542  num */\n      0x00\n      dup1\n        /* \"solidity-learn/error.sol\":539:544  num++ */\n      dup2\n      sload\n      dup1\n      swap3\n      swap2\n      swap1\n      tag_28\n      swap1\n      tag_29\n      jump\t// in\n    tag_28:\n      swap2\n      swap1\n      pop\n      sstore\n      pop\n        /* \"solidity-learn/error.sol\":491:552  function accedentalUpdate() external {\r... */\n      jump\t// out\n        /* \"solidity-learn/error.sol\":413:485  function assertError()external view{\r... */\n    tag_19:\n        /* \"solidity-learn/error.sol\":473:476  123 */\n      0x7b\n        /* \"solidity-learn/error.sol\":466:469  num */\n      sload(0x00)\n        /* \"solidity-learn/error.sol\":466:476  num == 123 */\n      eq\n        /* \"solidity-learn/error.sol\":459:477  assert(num == 123) */\n      tag_31\n      jumpi\n      tag_32\n      tag_33\n      jump\t// in\n    tag_32:\n    tag_31:\n        /* \"solidity-learn/error.sol\":413:485  function assertError()external view{\r... */\n      jump\t// out\n        /* \"solidity-learn/error.sol\":244:377  function revertError(uint i)external pure{\r... */\n    tag_22:\n        /* \"solidity-learn/error.sol\":303:305  10 */\n      0x0a\n        /* \"solidity-learn/error.sol\":299:300  i */\n      dup2\n        /* \"solidity-learn/error.sol\":299:305  i < 10 */\n      lt\n        /* \"solidity-learn/error.sol\":296:370  if(i < 10){\r... */\n      iszero\n      tag_35\n      jumpi\n        /* \"solidity-learn/error.sol\":321:358  revert(\"i cannot be greater than 10\") */\n      mload(0x40)\n      0x08c379a000000000000000000000000000000000000000000000000000000000\n      dup2\n      mstore\n      0x04\n      add\n      tag_36\n      swap1\n      tag_37\n      jump\t// in\n    tag_36:\n      mload(0x40)\n      dup1\n      swap2\n      sub\n      swap1\n      revert\n        /* \"solidity-learn/error.sol\":296:370  if(i < 10){\r... */\n    tag_35:\n        /* \"solidity-learn/error.sol\":244:377  function revertError(uint i)external pure{\r... */\n      pop\n      jump\t// out\n        /* \"#utility.yul\":7:146   */\n    tag_39:\n        /* \"#utility.yul\":53:58   */\n      0x00\n        /* \"#utility.yul\":91:97   */\n      dup2\n        /* \"#utility.yul\":78:98   */\n      calldataload\n        /* \"#utility.yul\":69:98   */\n      swap1\n      pop\n        /* \"#utility.yul\":107:140   */\n      tag_41\n        /* \"#utility.yul\":134:139   */\n      dup2\n        /* \"#utility.yul\":107:140   */\n      tag_42\n      jump\t// in\n    tag_41:\n        /* \"#utility.yul\":7:146   */\n      swap3\n      swap2\n      pop\n      pop\n      jump\t// out\n        /* \"#utility.yul\":152:481   */\n    tag_10:\n        /* \"#utility.yul\":211:217   */\n      0x00\n        /* \"#utility.yul\":260:262   */\n      0x20\n        /* \"#utility.yul\":248:257   */\n      dup3\n        /* \"#utility.yul\":239:246   */\n      dup5\n        /* \"#utility.yul\":235:258   */\n      sub\n        /* \"#utility.yul\":231:263   */\n      slt\n        /* \"#utility.yul\":228:347   */\n      iszero\n      tag_44\n      jumpi\n        /* \"#utility.yul\":266:345   */\n      tag_45\n      tag_46\n      jump\t// in\n    tag_45:\n        /* \"#utility.yul\":228:347   */\n    tag_44:\n        /* \"#utility.yul\":386:387   */\n      0x00\n        /* \"#utility.yul\":411:464   */\n      tag_47\n        /* \"#utility.yul\":456:463   */\n      dup5\n        /* \"#utility.yul\":447:453   */\n      dup3\n        /* \"#utility.yul\":436:445   */\n      dup6\n        /* \"#utility.yul\":432:454   */\n      add\n        /* \"#utility.yul\":411:464   */\n      tag_39\n      jump\t// in\n    tag_47:\n        /* \"#utility.yul\":401:464   */\n      swap2\n      pop\n        /* \"#utility.yul\":357:474   */\n      pop\n        /* \"#utility.yul\":152:481   */\n      swap3\n      swap2\n      pop\n      pop\n      jump\t// out\n        /* \"#utility.yul\":487:853   */\n    tag_48:\n        /* \"#utility.yul\":629:632   */\n      0x00\n        /* \"#utility.yul\":650:717   */\n      tag_50\n        /* \"#utility.yul\":714:716   */\n      0x1b\n        /* \"#utility.yul\":709:712   */\n      dup4\n        /* \"#utility.yul\":650:717   */\n      tag_51\n      jump\t// in\n    tag_50:\n        /* \"#utility.yul\":643:717   */\n      swap2\n      pop\n        /* \"#utility.yul\":726:819   */\n      tag_52\n        /* \"#utility.yul\":815:818   */\n      dup3\n        /* \"#utility.yul\":726:819   */\n      tag_53\n      jump\t// in\n    tag_52:\n        /* \"#utility.yul\":844:846   */\n      0x20\n        /* \"#utility.yul\":839:842   */\n      dup3\n        /* \"#utility.yul\":835:847   */\n      add\n        /* \"#utility.yul\":828:847   */\n      swap1\n      pop\n        /* \"#utility.yul\":487:853   */\n      swap2\n      swap1\n      pop\n      jump\t// out\n        /* \"#utility.yul\":859:1225   */\n    tag_54:\n        /* \"#utility.yul\":1001:1004   */\n      0x00\n        /* \"#utility.yul\":1022:1089   */\n      tag_56\n        /* \"#utility.yul\":1086:1088   */\n      0x1b\n        /* \"#utility.yul\":1081:1084   */\n      dup4\n        /* \"#utility.yul\":1022:1089   */\n      tag_51\n      jump\t// in\n    tag_56:\n        /* \"#utility.yul\":1015:1089   */\n      swap2\n      pop\n        /* \"#utility.yul\":1098:1191   */\n      tag_57\n        /* \"#utility.yul\":1187:1190   */\n      dup3\n        /* \"#utility.yul\":1098:1191   */\n      tag_58\n      jump\t// in\n    tag_57:\n        /* \"#utility.yul\":1216:1218   */\n      0x20\n        /* \"#utility.yul\":1211:1214   */\n      dup3\n        /* \"#utility.yul\":1207:1219   */\n      add\n        /* \"#utility.yul\":1200:1219   */\n      swap1\n      pop\n        /* \"#utility.yul\":859:1225   */\n      swap2\n      swap1\n      pop\n      jump\t// out\n        /* \"#utility.yul\":1231:1349   */\n    tag_59:\n        /* \"#utility.yul\":1318:1342   */\n      tag_61\n        /* \"#utility.yul\":1336:1341   */\n      dup2\n        /* \"#utility.yul\":1318:1342   */\n      tag_62\n      jump\t// in\n    tag_61:\n        /* \"#utility.yul\":1313:1316   */\n      dup3\n        /* \"#utility.yul\":1306:1343   */\n      mstore\n        /* \"#utility.yul\":1231:1349   */\n      pop\n      pop\n      jump\t// out\n        /* \"#utility.yul\":1355:1774   */\n    tag_26:\n        /* \"#utility.yul\":1521:1525   */\n      0x00\n        /* \"#utility.yul\":1559:1561   */\n      0x20\n        /* \"#utility.yul\":1548:1557   */\n      dup3\n        /* \"#utility.yul\":1544:1562   */\n      add\n        /* \"#utility.yul\":1536:1562   */\n      swap1\n      pop\n        /* \"#utility.yul\":1608:1617   */\n      dup2\n        /* \"#utility.yul\":1602:1606   */\n      dup2\n        /* \"#utility.yul\":1598:1618   */\n      sub\n        /* \"#utility.yul\":1594:1595   */\n      0x00\n        /* \"#utility.yul\":1583:1592   */\n      dup4\n        /* \"#utility.yul\":1579:1596   */\n      add\n        /* \"#utility.yul\":1572:1619   */\n      mstore\n        /* \"#utility.yul\":1636:1767   */\n      tag_64\n        /* \"#utility.yul\":1762:1766   */\n      dup2\n        /* \"#utility.yul\":1636:1767   */\n      tag_48\n      jump\t// in\n    tag_64:\n        /* \"#utility.yul\":1628:1767   */\n      swap1\n      pop\n        /* \"#utility.yul\":1355:1774   */\n      swap2\n      swap1\n      pop\n      jump\t// out\n        /* \"#utility.yul\":1780:2199   */\n    tag_37:\n        /* \"#utility.yul\":1946:1950   */\n      0x00\n        /* \"#utility.yul\":1984:1986   */\n      0x20\n        /* \"#utility.yul\":1973:1982   */\n      dup3\n        /* \"#utility.yul\":1969:1987   */\n      add\n        /* \"#utility.yul\":1961:1987   */\n      swap1\n      pop\n        /* \"#utility.yul\":2033:2042   */\n      dup2\n        /* \"#utility.yul\":2027:2031   */\n      dup2\n        /* \"#utility.yul\":2023:2043   */\n      sub\n        /* \"#utility.yul\":2019:2020   */\n      0x00\n        /* \"#utility.yul\":2008:2017   */\n      dup4\n        /* \"#utility.yul\":2004:2021   */\n      add\n        /* \"#utility.yul\":1997:2044   */\n      mstore\n        /* \"#utility.yul\":2061:2192   */\n      tag_66\n        /* \"#utility.yul\":2187:2191   */\n      dup2\n        /* \"#utility.yul\":2061:2192   */\n      tag_54\n      jump\t// in\n    tag_66:\n        /* \"#utility.yul\":2053:2192   */\n      swap1\n      pop\n        /* \"#utility.yul\":1780:2199   */\n      swap2\n      swap1\n      pop\n      jump\t// out\n        /* \"#utility.yul\":2205:2427   */\n    tag_15:\n        /* \"#utility.yul\":2298:2302   */\n      0x00\n        /* \"#utility.yul\":2336:2338   */\n      0x20\n        /* \"#utility.yul\":2325:2334   */\n      dup3\n        /* \"#utility.yul\":2321:2339   */\n      add\n        /* \"#utility.yul\":2313:2339   */\n      swap1\n      pop\n        /* \"#utility.yul\":2349:2420   */\n      tag_68\n        /* \"#utility.yul\":2417:2418   */\n      0x00\n        /* \"#utility.yul\":2406:2415   */\n      dup4\n        /* \"#utility.yul\":2402:2419   */\n      add\n        /* \"#utility.yul\":2393:2399   */\n      dup5\n        /* \"#utility.yul\":2349:2420   */\n      tag_59\n      jump\t// in\n    tag_68:\n        /* \"#utility.yul\":2205:2427   */\n      swap3\n      swap2\n      pop\n      pop\n      jump\t// out\n        /* \"#utility.yul\":2514:2683   */\n    tag_51:\n        /* \"#utility.yul\":2598:2609   */\n      0x00\n        /* \"#utility.yul\":2632:2638   */\n      dup3\n        /* \"#utility.yul\":2627:2630   */\n      dup3\n        /* \"#utility.yul\":2620:2639   */\n      mstore\n        /* \"#utility.yul\":2672:2676   */\n      0x20\n        /* \"#utility.yul\":2667:2670   */\n      dup3\n        /* \"#utility.yul\":2663:2677   */\n      add\n        /* \"#utility.yul\":2648:2677   */\n      swap1\n      pop\n        /* \"#utility.yul\":2514:2683   */\n      swap3\n      swap2\n      pop\n      pop\n      jump\t// out\n        /* \"#utility.yul\":2689:2766   */\n    tag_62:\n        /* \"#utility.yul\":2726:2733   */\n      0x00\n        /* \"#utility.yul\":2755:2760   */\n      dup2\n        /* \"#utility.yul\":2744:2760   */\n      swap1\n      pop\n        /* \"#utility.yul\":2689:2766   */\n      swap2\n      swap1\n      pop\n      jump\t// out\n        /* \"#utility.yul\":2772:3005   */\n    tag_29:\n        /* \"#utility.yul\":2811:2814   */\n      0x00\n        /* \"#utility.yul\":2834:2858   */\n      tag_74\n        /* \"#utility.yul\":2852:2857   */\n      dup3\n        /* \"#utility.yul\":2834:2858   */\n      tag_62\n      jump\t// in\n    tag_74:\n        /* \"#utility.yul\":2825:2858   */\n      swap2\n      pop\n        /* \"#utility.yul\":2880:2946   */\n      0xffffffffffffffffffffffffffffffffffffffffffffffffffffffffffffffff\n        /* \"#utility.yul\":2873:2878   */\n      dup3\n        /* \"#utility.yul\":2870:2947   */\n      eq\n        /* \"#utility.yul\":2867:2970   */\n      iszero\n      tag_75\n      jumpi\n        /* \"#utility.yul\":2950:2968   */\n      tag_76\n      tag_77\n      jump\t// in\n    tag_76:\n        /* \"#utility.yul\":2867:2970   */\n    tag_75:\n        /* \"#utility.yul\":2997:2998   */\n      0x01\n        /* \"#utility.yul\":2990:2995   */\n      dup3\n        /* \"#utility.yul\":2986:2999   */\n      add\n        /* \"#utility.yul\":2979:2999   */\n      swap1\n      pop\n        /* \"#utility.yul\":2772:3005   */\n      swap2\n      swap1\n      pop\n      jump\t// out\n        /* \"#utility.yul\":3011:3191   */\n    tag_33:\n        /* \"#utility.yul\":3059:3136   */\n      0x4e487b7100000000000000000000000000000000000000000000000000000000\n        /* \"#utility.yul\":3056:3057   */\n      0x00\n        /* \"#utility.yul\":3049:3137   */\n      mstore\n        /* \"#utility.yul\":3156:3160   */\n      0x01\n        /* \"#utility.yul\":3153:3154   */\n      0x04\n        /* \"#utility.yul\":3146:3161   */\n      mstore\n        /* \"#utility.yul\":3180:3184   */\n      0x24\n        /* \"#utility.yul\":3177:3178   */\n      0x00\n        /* \"#utility.yul\":3170:3185   */\n      revert\n        /* \"#utility.yul\":3197:3377   */\n    tag_77:\n        /* \"#utility.yul\":3245:3322   */\n      0x4e487b7100000000000000000000000000000000000000000000000000000000\n        /* \"#utility.yul\":3242:3243   */\n      0x00\n        /* \"#utility.yul\":3235:3323   */\n      mstore\n        /* \"#utility.yul\":3342:3346   */\n      0x11\n        /* \"#utility.yul\":3339:3340   */\n      0x04\n        /* \"#utility.yul\":3332:3347   */\n      mstore\n        /* \"#utility.yul\":3366:3370   */\n      0x24\n        /* \"#utility.yul\":3363:3364   */\n      0x00\n        /* \"#utility.yul\":3356:3371   */\n      revert\n        /* \"#utility.yul\":3506:3623   */\n    tag_46:\n        /* \"#utility.yul\":3615:3616   */\n      0x00\n        /* \"#utility.yul\":3612:3613   */\n      dup1\n        /* \"#utility.yul\":3605:3617   */\n      revert\n        /* \"#utility.yul\":3629:3806   */\n    tag_53:\n        /* \"#utility.yul\":3769:3798   */\n      0x492063616e6e6f742062652067726561746572207468616e2031300000000000\n        /* \"#utility.yul\":3765:3766   */\n      0x00\n        /* \"#utility.yul\":3757:3763   */\n      dup3\n        /* \"#utility.yul\":3753:3767   */\n      add\n        /* \"#utility.yul\":3746:3799   */\n      mstore\n        /* \"#utility.yul\":3629:3806   */\n      pop\n      jump\t// out\n        /* \"#utility.yul\":3812:3989   */\n    tag_58:\n        /* \"#utility.yul\":3952:3981   */\n      0x692063616e6e6f742062652067726561746572207468616e2031300000000000\n        /* \"#utility.yul\":3948:3949   */\n      0x00\n        /* \"#utility.yul\":3940:3946   */\n      dup3\n        /* \"#utility.yul\":3936:3950   */\n      add\n        /* \"#utility.yul\":3929:3982   */\n      mstore\n        /* \"#utility.yul\":3812:3989   */\n      pop\n      jump\t// out\n        /* \"#utility.yul\":3995:4117   */\n    tag_42:\n        /* \"#utility.yul\":4068:4092   */\n      tag_86\n        /* \"#utility.yul\":4086:4091   */\n      dup2\n        /* \"#utility.yul\":4068:4092   */\n      tag_62\n      jump\t// in\n    tag_86:\n        /* \"#utility.yul\":4061:4066   */\n      dup2\n        /* \"#utility.yul\":4058:4093   */\n      eq\n        /* \"#utility.yul\":4048:4111   */\n      tag_87\n      jumpi\n        /* \"#utility.yul\":4107:4108   */\n      0x00\n        /* \"#utility.yul\":4104:4105   */\n      dup1\n        /* \"#utility.yul\":4097:4109   */\n      revert\n        /* \"#utility.yul\":4048:4111   */\n    tag_87:\n        /* \"#utility.yul\":3995:4117   */\n      pop\n      jump\t// out\n\n    auxdata: 0xa2646970667358221220ef1791ede9ea189f4900bcd84cee0df40b6581109679aae3030aa994758feb1264736f6c63430008070033\n}\n",
				"bytecode": {
					"linkReferences": {},
					"object": "6080604052607b60005534801561001557600080fd5b506103df806100256000396000f3fe608060405234801561001057600080fd5b50600436106100575760003560e01c806308ceafde1461005c5780634e70b1dc146100785780639856c37a14610096578063cbaff5f9146100a0578063fcf0f4c1146100aa575b600080fd5b6100766004803603810190610071919061019c565b6100c6565b005b61008061010c565b60405161008d919061025e565b60405180910390f35b61009e610112565b005b6100a861012b565b005b6100c460048036038101906100bf919061019c565b610140565b005b600a8110610109576040517f08c379a00000000000000000000000000000000000000000000000000000000081526004016101009061021e565b60405180910390fd5b50565b60005481565b60008081548092919061012490610294565b9190505550565b607b6000541461013e5761013d6102dd565b5b565b600a811015610184576040517f08c379a000000000000000000000000000000000000000000000000000000000815260040161017b9061023e565b60405180910390fd5b50565b60008135905061019681610392565b92915050565b6000602082840312156101b2576101b161033b565b5b60006101c084828501610187565b91505092915050565b60006101d6601b83610279565b91506101e182610340565b602082019050919050565b60006101f9601b83610279565b915061020482610369565b602082019050919050565b6102188161028a565b82525050565b60006020820190508181036000830152610237816101c9565b9050919050565b60006020820190508181036000830152610257816101ec565b9050919050565b6000602082019050610273600083018461020f565b92915050565b600082825260208201905092915050565b6000819050919050565b600061029f8261028a565b91507fffffffffffffffffffffffffffffffffffffffffffffffffffffffffffffffff8214156102d2576102d161030c565b5b600182019050919050565b7f4e487b7100000000000000000000000000000000000000000000000000000000600052600160045260246000fd5b7f4e487b7100000000000000000000000000000000000000000000000000000000600052601160045260246000fd5b600080fd5b7f492063616e6e6f742062652067726561746572207468616e2031300000000000600082015250565b7f692063616e6e6f742062652067726561746572207468616e2031300000000000600082015250565b61039b8161028a565b81146103a657600080fd5b5056fea2646970667358221220ef1791ede9ea189f4900bcd84cee0df40b6581109679aae3030aa994758feb1264736f6c63430008070033",
					"opcodes": "PUSH1 0x80 PUSH1 0x40 MSTORE PUSH1 0x7B PUSH1 0x0 SSTORE CALLVALUE DUP1 ISZERO PUSH2 0x15 JUMPI PUSH1 0x0 DUP1 REVERT JUMPDEST POP PUSH2 0x3DF DUP1 PUSH2 0x25 PUSH1 0x0 CODECOPY PUSH1 0x0 RETURN INVALID PUSH1 0x80 PUSH1 0x40 MSTORE CALLVALUE DUP1 ISZERO PUSH2 0x10 JUMPI PUSH1 0x0 DUP1 REVERT JUMPDEST POP PUSH1 0x4 CALLDATASIZE LT PUSH2 0x57 JUMPI PUSH1 0x0 CALLDATALOAD PUSH1 0xE0 SHR DUP1 PUSH4 0x8CEAFDE EQ PUSH2 0x5C JUMPI DUP1 PUSH4 0x4E70B1DC EQ PUSH2 0x78 JUMPI DUP1 PUSH4 0x9856C37A EQ PUSH2 0x96 JUMPI DUP1 PUSH4 0xCBAFF5F9 EQ PUSH2 0xA0 JUMPI DUP1 PUSH4 0xFCF0F4C1 EQ PUSH2 0xAA JUMPI JUMPDEST PUSH1 0x0 DUP1 REVERT JUMPDEST PUSH2 0x76 PUSH1 0x4 DUP1 CALLDATASIZE SUB DUP2 ADD SWAP1 PUSH2 0x71 SWAP2 SWAP1 PUSH2 0x19C JUMP JUMPDEST PUSH2 0xC6 JUMP JUMPDEST STOP JUMPDEST PUSH2 0x80 PUSH2 0x10C JUMP JUMPDEST PUSH1 0x40 MLOAD PUSH2 0x8D SWAP2 SWAP1 PUSH2 0x25E JUMP JUMPDEST PUSH1 0x40 MLOAD DUP1 SWAP2 SUB SWAP1 RETURN JUMPDEST PUSH2 0x9E PUSH2 0x112 JUMP JUMPDEST STOP JUMPDEST PUSH2 0xA8 PUSH2 0x12B JUMP JUMPDEST STOP JUMPDEST PUSH2 0xC4 PUSH1 0x4 DUP1 CALLDATASIZE SUB DUP2 ADD SWAP1 PUSH2 0xBF SWAP2 SWAP1 PUSH2 0x19C JUMP JUMPDEST PUSH2 0x140 JUMP JUMPDEST STOP JUMPDEST PUSH1 0xA DUP2 LT PUSH2 0x109 JUMPI PUSH1 0x40 MLOAD PUSH32 0x8C379A000000000000000000000000000000000000000000000000000000000 DUP2 MSTORE PUSH1 0x4 ADD PUSH2 0x100 SWAP1 PUSH2 0x21E JUMP JUMPDEST PUSH1 0x40 MLOAD DUP1 SWAP2 SUB SWAP1 REVERT JUMPDEST POP JUMP JUMPDEST PUSH1 0x0 SLOAD DUP2 JUMP JUMPDEST PUSH1 0x0 DUP1 DUP2 SLOAD DUP1 SWAP3 SWAP2 SWAP1 PUSH2 0x124 SWAP1 PUSH2 0x294 JUMP JUMPDEST SWAP2 SWAP1 POP SSTORE POP JUMP JUMPDEST PUSH1 0x7B PUSH1 0x0 SLOAD EQ PUSH2 0x13E JUMPI PUSH2 0x13D PUSH2 0x2DD JUMP JUMPDEST JUMPDEST JUMP JUMPDEST PUSH1 0xA DUP2 LT ISZERO PUSH2 0x184 JUMPI PUSH1 0x40 MLOAD PUSH32 0x8C379A000000000000000000000000000000000000000000000000000000000 DUP2 MSTORE PUSH1 0x4 ADD PUSH2 0x17B SWAP1 PUSH2 0x23E JUMP JUMPDEST PUSH1 0x40 MLOAD DUP1 SWAP2 SUB SWAP1 REVERT JUMPDEST POP JUMP JUMPDEST PUSH1 0x0 DUP2 CALLDATALOAD SWAP1 POP PUSH2 0x196 DUP2 PUSH2 0x392 JUMP JUMPDEST SWAP3 SWAP2 POP POP JUMP JUMPDEST PUSH1 0x0 PUSH1 0x20 DUP3 DUP5 SUB SLT ISZERO PUSH2 0x1B2 JUMPI PUSH2 0x1B1 PUSH2 0x33B JUMP JUMPDEST JUMPDEST PUSH1 0x0 PUSH2 0x1C0 DUP5 DUP3 DUP6 ADD PUSH2 0x187 JUMP JUMPDEST SWAP2 POP POP SWAP3 SWAP2 POP POP JUMP JUMPDEST PUSH1 0x0 PUSH2 0x1D6 PUSH1 0x1B DUP4 PUSH2 0x279 JUMP JUMPDEST SWAP2 POP PUSH2 0x1E1 DUP3 PUSH2 0x340 JUMP JUMPDEST PUSH1 0x20 DUP3 ADD SWAP1 POP SWAP2 SWAP1 POP JUMP JUMPDEST PUSH1 0x0 PUSH2 0x1F9 PUSH1 0x1B DUP4 PUSH2 0x279 JUMP JUMPDEST SWAP2 POP PUSH2 0x204 DUP3 PUSH2 0x369 JUMP JUMPDEST PUSH1 0x20 DUP3 ADD SWAP1 POP SWAP2 SWAP1 POP JUMP JUMPDEST PUSH2 0x218 DUP2 PUSH2 0x28A JUMP JUMPDEST DUP3 MSTORE POP POP JUMP JUMPDEST PUSH1 0x0 PUSH1 0x20 DUP3 ADD SWAP1 POP DUP2 DUP2 SUB PUSH1 0x0 DUP4 ADD MSTORE PUSH2 0x237 DUP2 PUSH2 0x1C9 JUMP JUMPDEST SWAP1 POP SWAP2 SWAP1 POP JUMP JUMPDEST PUSH1 0x0 PUSH1 0x20 DUP3 ADD SWAP1 POP DUP2 DUP2 SUB PUSH1 0x0 DUP4 ADD MSTORE PUSH2 0x257 DUP2 PUSH2 0x1EC JUMP JUMPDEST SWAP1 POP SWAP2 SWAP1 POP JUMP JUMPDEST PUSH1 0x0 PUSH1 0x20 DUP3 ADD SWAP1 POP PUSH2 0x273 PUSH1 0x0 DUP4 ADD DUP5 PUSH2 0x20F JUMP JUMPDEST SWAP3 SWAP2 POP POP JUMP JUMPDEST PUSH1 0x0 DUP3 DUP3 MSTORE PUSH1 0x20 DUP3 ADD SWAP1 POP SWAP3 SWAP2 POP POP JUMP JUMPDEST PUSH1 0x0 DUP2 SWAP1 POP SWAP2 SWAP1 POP JUMP JUMPDEST PUSH1 0x0 PUSH2 0x29F DUP3 PUSH2 0x28A JUMP JUMPDEST SWAP2 POP PUSH32 0xFFFFFFFFFFFFFFFFFFFFFFFFFFFFFFFFFFFFFFFFFFFFFFFFFFFFFFFFFFFFFFFF DUP3 EQ ISZERO PUSH2 0x2D2 JUMPI PUSH2 0x2D1 PUSH2 0x30C JUMP JUMPDEST JUMPDEST PUSH1 0x1 DUP3 ADD SWAP1 POP SWAP2 SWAP1 POP JUMP JUMPDEST PUSH32 0x4E487B7100000000000000000000000000000000000000000000000000000000 PUSH1 0x0 MSTORE PUSH1 0x1 PUSH1 0x4 MSTORE PUSH1 0x24 PUSH1 0x0 REVERT JUMPDEST PUSH32 0x4E487B7100000000000000000000000000000000000000000000000000000000 PUSH1 0x0 MSTORE PUSH1 0x11 PUSH1 0x4 MSTORE PUSH1 0x24 PUSH1 0x0 REVERT JUMPDEST PUSH1 0x0 DUP1 REVERT JUMPDEST PUSH32 0x492063616E6E6F742062652067726561746572207468616E2031300000000000 PUSH1 0x0 DUP3 ADD MSTORE POP JUMP JUMPDEST PUSH32 0x692063616E6E6F742062652067726561746572207468616E2031300000000000 PUSH1 0x0 DUP3 ADD MSTORE POP JUMP JUMPDEST PUSH2 0x39B DUP2 PUSH2 0x28A JUMP JUMPDEST DUP2 EQ PUSH2 0x3A6 JUMPI PUSH1 0x0 DUP1 REVERT JUMPDEST POP JUMP INVALID LOG2 PUSH5 0x6970667358 0x22 SLT KECCAK256 0xEF OR SWAP2 0xED 0xE9 0xEA XOR SWAP16 0x49 STOP 0xBC 0xD8 0x4C 0xEE 0xD DELEGATECALL SIGNEXTEND PUSH6 0x81109679AAE3 SUB EXP 0xA9 SWAP5 PUSH22 0x8FEB1264736F6C634300080700330000000000000000 "
				},
				"gasEstimates": {
					"creation": {
						"codeDepositCost": "198200",
						"executionCost": "22344",
						"totalCost": "220544"
					},
					"external": {
						"accedentalUpdate()": "24526",
						"assertError()": "2340",
						"num()": "2429",
						"requireError(uint256)": "694",
						"revertError(uint256)": "785"
					}
				},
				"methodIdentifiers": {
					"accedentalUpdate()": "9856c37a",
					"assertError()": "cbaff5f9",
					"num()": "4e70b1dc",
					"requireError(uint256)": "08ceafde",
					"revertError(uint256)": "fcf0f4c1"
				}
			},
			"storageLayout": {
				"storage": [
					{
						"astId": 32,
						"contract": "solidity-learn/error.sol:ErrorContract",
						"label": "num",
						"offset": 0,
						"slot": "0",
						"type": "t_uint256"
					}
				],
				"types": {
					"t_uint256": {
						"encoding": "inplace",
						"label": "uint256",
						"numberOfBytes": "32"
					}
				}
			},
			"userdoc": {
				"kind": "user",
				"methods": {},
				"version": 1
			}
		}
	}
}