{
	"data": {
		"bytecode": {
			"linkReferences": {},
			"object": "6080604052607b60005534801561001557600080fd5b506104ae806100256000396000f3fe608060405234801561001057600080fd5b50600436106100575760003560e01c806308ceafde1461005c5780632509f77c146100785780634e70b1dc146100945780639856c37a146100b2578063fcf0f4c1146100bc575b600080fd5b61007660048036038101906100719190610201565b6100d8565b005b610092600480360381019061008d9190610201565b61011e565b005b61009c610169565b6040516100a991906102fb565b60405180910390f35b6100ba61016f565b005b6100d660048036038101906100d19190610201565b610190565b005b600a811061011b576040517f08c379a0000000000000000000000000000000000000000000000000000000008152600401610112906102bb565b60405180910390fd5b50565b600a8110156101665733816040517fe2399bb800000000000000000000000000000000000000000000000000000000815260040161015d929190610292565b60405180910390fd5b50565b60005481565b60008081548092919061018190610363565b919050555061018e6101d7565b565b600a8110156101d4576040517f08c379a00000000000000000000000000000000000000000000000000000000081526004016101cb906102db565b60405180910390fd5b50565b607b600054146101ea576101e96103ac565b5b565b6000813590506101fb81610461565b92915050565b6000602082840312156102175761021661040a565b5b6000610225848285016101ec565b91505092915050565b61023781610327565b82525050565b600061024a601b83610316565b91506102558261040f565b602082019050919050565b600061026d601b83610316565b915061027882610438565b602082019050919050565b61028c81610359565b82525050565b60006040820190506102a7600083018561022e565b6102b46020830184610283565b9392505050565b600060208201905081810360008301526102d48161023d565b9050919050565b600060208201905081810360008301526102f481610260565b9050919050565b60006020820190506103106000830184610283565b92915050565b600082825260208201905092915050565b600061033282610339565b9050919050565b600073ffffffffffffffffffffffffffffffffffffffff82169050919050565b6000819050919050565b600061036e82610359565b91507fffffffffffffffffffffffffffffffffffffffffffffffffffffffffffffffff8214156103a1576103a06103db565b5b600182019050919050565b7f4e487b7100000000000000000000000000000000000000000000000000000000600052600160045260246000fd5b7f4e487b7100000000000000000000000000000000000000000000000000000000600052601160045260246000fd5b600080fd5b7f492063616e6e6f742062652067726561746572207468616e2031300000000000600082015250565b7f692063616e6e6f742062652067726561746572207468616e2031300000000000600082015250565b61046a81610359565b811461047557600080fd5b5056fea264697066735822122051a02370348baa8d9a2e1103557de8370f43460f19386994c44101d88758baa864736f6c63430008070033",
			"opcodes": "PUSH1 0x80 PUSH1 0x40 MSTORE PUSH1 0x7B PUSH1 0x0 SSTORE CALLVALUE DUP1 ISZERO PUSH2 0x15 JUMPI PUSH1 0x0 DUP1 REVERT JUMPDEST POP PUSH2 0x4AE DUP1 PUSH2 0x25 PUSH1 0x0 CODECOPY PUSH1 0x0 RETURN INVALID PUSH1 0x80 PUSH1 0x40 MSTORE CALLVALUE DUP1 ISZERO PUSH2 0x10 JUMPI PUSH1 0x0 DUP1 REVERT JUMPDEST POP PUSH1 0x4 CALLDATASIZE LT PUSH2 0x57 JUMPI PUSH1 0x0 CALLDATALOAD PUSH1 0xE0 SHR DUP1 PUSH4 0x8CEAFDE EQ PUSH2 0x5C JUMPI DUP1 PUSH4 0x2509F77C EQ PUSH2 0x78 JUMPI DUP1 PUSH4 0x4E70B1DC EQ PUSH2 0x94 JUMPI DUP1 PUSH4 0x9856C37A EQ PUSH2 0xB2 JUMPI DUP1 PUSH4 0xFCF0F4C1 EQ PUSH2 0xBC JUMPI JUMPDEST PUSH1 0x0 DUP1 REVERT JUMPDEST PUSH2 0x76 PUSH1 0x4 DUP1 CALLDATASIZE SUB DUP2 ADD SWAP1 PUSH2 0x71 SWAP2 SWAP1 PUSH2 0x201 JUMP JUMPDEST PUSH2 0xD8 JUMP JUMPDEST STOP JUMPDEST PUSH2 0x92 PUSH1 0x4 DUP1 CALLDATASIZE SUB DUP2 ADD SWAP1 PUSH2 0x8D SWAP2 SWAP1 PUSH2 0x201 JUMP JUMPDEST PUSH2 0x11E JUMP JUMPDEST STOP JUMPDEST PUSH2 0x9C PUSH2 0x169 JUMP JUMPDEST PUSH1 0x40 MLOAD PUSH2 0xA9 SWAP2 SWAP1 PUSH2 0x2FB JUMP JUMPDEST PUSH1 0x40 MLOAD DUP1 SWAP2 SUB SWAP1 RETURN JUMPDEST PUSH2 0xBA PUSH2 0x16F JUMP JUMPDEST STOP JUMPDEST PUSH2 0xD6 PUSH1 0x4 DUP1 CALLDATASIZE SUB DUP2 ADD SWAP1 PUSH2 0xD1 SWAP2 SWAP1 PUSH2 0x201 JUMP JUMPDEST PUSH2 0x190 JUMP JUMPDEST STOP JUMPDEST PUSH1 0xA DUP2 LT PUSH2 0x11B JUMPI PUSH1 0x40 MLOAD PUSH32 0x8C379A000000000000000000000000000000000000000000000000000000000 DUP2 MSTORE PUSH1 0x4 ADD PUSH2 0x112 SWAP1 PUSH2 0x2BB JUMP JUMPDEST PUSH1 0x40 MLOAD DUP1 SWAP2 SUB SWAP1 REVERT JUMPDEST POP JUMP JUMPDEST PUSH1 0xA DUP2 LT ISZERO PUSH2 0x166 JUMPI CALLER DUP2 PUSH1 0x40 MLOAD PUSH32 0xE2399BB800000000000000000000000000000000000000000000000000000000 DUP2 MSTORE PUSH1 0x4 ADD PUSH2 0x15D SWAP3 SWAP2 SWAP1 PUSH2 0x292 JUMP JUMPDEST PUSH1 0x40 MLOAD DUP1 SWAP2 SUB SWAP1 REVERT JUMPDEST POP JUMP JUMPDEST PUSH1 0x0 SLOAD DUP2 JUMP JUMPDEST PUSH1 0x0 DUP1 DUP2 SLOAD DUP1 SWAP3 SWAP2 SWAP1 PUSH2 0x181 SWAP1 PUSH2 0x363 JUMP JUMPDEST SWAP2 SWAP1 POP SSTORE POP PUSH2 0x18E PUSH2 0x1D7 JUMP JUMPDEST JUMP JUMPDEST PUSH1 0xA DUP2 LT ISZERO PUSH2 0x1D4 JUMPI PUSH1 0x40 MLOAD PUSH32 0x8C379A000000000000000000000000000000000000000000000000000000000 DUP2 MSTORE PUSH1 0x4 ADD PUSH2 0x1CB SWAP1 PUSH2 0x2DB JUMP JUMPDEST PUSH1 0x40 MLOAD DUP1 SWAP2 SUB SWAP1 REVERT JUMPDEST POP JUMP JUMPDEST PUSH1 0x7B PUSH1 0x0 SLOAD EQ PUSH2 0x1EA JUMPI PUSH2 0x1E9 PUSH2 0x3AC JUMP JUMPDEST JUMPDEST JUMP JUMPDEST PUSH1 0x0 DUP2 CALLDATALOAD SWAP1 POP PUSH2 0x1FB DUP2 PUSH2 0x461 JUMP JUMPDEST SWAP3 SWAP2 POP POP JUMP JUMPDEST PUSH1 0x0 PUSH1 0x20 DUP3 DUP5 SUB SLT ISZERO PUSH2 0x217 JUMPI PUSH2 0x216 PUSH2 0x40A JUMP JUMPDEST JUMPDEST PUSH1 0x0 PUSH2 0x225 DUP5 DUP3 DUP6 ADD PUSH2 0x1EC JUMP JUMPDEST SWAP2 POP POP SWAP3 SWAP2 POP POP JUMP JUMPDEST PUSH2 0x237 DUP2 PUSH2 0x327 JUMP JUMPDEST DUP3 MSTORE POP POP JUMP JUMPDEST PUSH1 0x0 PUSH2 0x24A PUSH1 0x1B DUP4 PUSH2 0x316 JUMP JUMPDEST SWAP2 POP PUSH2 0x255 DUP3 PUSH2 0x40F JUMP JUMPDEST PUSH1 0x20 DUP3 ADD SWAP1 POP SWAP2 SWAP1 POP JUMP JUMPDEST PUSH1 0x0 PUSH2 0x26D PUSH1 0x1B DUP4 PUSH2 0x316 JUMP JUMPDEST SWAP2 POP PUSH2 0x278 DUP3 PUSH2 0x438 JUMP JUMPDEST PUSH1 0x20 DUP3 ADD SWAP1 POP SWAP2 SWAP1 POP JUMP JUMPDEST PUSH2 0x28C DUP2 PUSH2 0x359 JUMP JUMPDEST DUP3 MSTORE POP POP JUMP JUMPDEST PUSH1 0x0 PUSH1 0x40 DUP3 ADD SWAP1 POP PUSH2 0x2A7 PUSH1 0x0 DUP4 ADD DUP6 PUSH2 0x22E JUMP JUMPDEST PUSH2 0x2B4 PUSH1 0x20 DUP4 ADD DUP5 PUSH2 0x283 JUMP JUMPDEST SWAP4 SWAP3 POP POP POP JUMP JUMPDEST PUSH1 0x0 PUSH1 0x20 DUP3 ADD SWAP1 POP DUP2 DUP2 SUB PUSH1 0x0 DUP4 ADD MSTORE PUSH2 0x2D4 DUP2 PUSH2 0x23D JUMP JUMPDEST SWAP1 POP SWAP2 SWAP1 POP JUMP JUMPDEST PUSH1 0x0 PUSH1 0x20 DUP3 ADD SWAP1 POP DUP2 DUP2 SUB PUSH1 0x0 DUP4 ADD MSTORE PUSH2 0x2F4 DUP2 PUSH2 0x260 JUMP JUMPDEST SWAP1 POP SWAP2 SWAP1 POP JUMP JUMPDEST PUSH1 0x0 PUSH1 0x20 DUP3 ADD SWAP1 POP PUSH2 0x310 PUSH1 0x0 DUP4 ADD DUP5 PUSH2 0x283 JUMP JUMPDEST SWAP3 SWAP2 POP POP JUMP JUMPDEST PUSH1 0x0 DUP3 DUP3 MSTORE PUSH1 0x20 DUP3 ADD SWAP1 POP SWAP3 SWAP2 POP POP JUMP JUMPDEST PUSH1 0x0 PUSH2 0x332 DUP3 PUSH2 0x339 JUMP JUMPDEST SWAP1 POP SWAP2 SWAP1 POP JUMP JUMPDEST PUSH1 0x0 PUSH20 0xFFFFFFFFFFFFFFFFFFFFFFFFFFFFFFFFFFFFFFFF DUP3 AND SWAP1 POP SWAP2 SWAP1 POP JUMP JUMPDEST PUSH1 0x0 DUP2 SWAP1 POP SWAP2 SWAP1 POP JUMP JUMPDEST PUSH1 0x0 PUSH2 0x36E DUP3 PUSH2 0x359 JUMP JUMPDEST SWAP2 POP PUSH32 0xFFFFFFFFFFFFFFFFFFFFFFFFFFFFFFFFFFFFFFFFFFFFFFFFFFFFFFFFFFFFFFFF DUP3 EQ ISZERO PUSH2 0x3A1 JUMPI PUSH2 0x3A0 PUSH2 0x3DB JUMP JUMPDEST JUMPDEST PUSH1 0x1 DUP3 ADD SWAP1 POP SWAP2 SWAP1 POP JUMP JUMPDEST PUSH32 0x4E487B7100000000000000000000000000000000000000000000000000000000 PUSH1 0x0 MSTORE PUSH1 0x1 PUSH1 0x4 MSTORE PUSH1 0x24 PUSH1 0x0 REVERT JUMPDEST PUSH32 0x4E487B7100000000000000000000000000000000000000000000000000000000 PUSH1 0x0 MSTORE PUSH1 0x11 PUSH1 0x4 MSTORE PUSH1 0x24 PUSH1 0x0 REVERT JUMPDEST PUSH1 0x0 DUP1 REVERT JUMPDEST PUSH32 0x492063616E6E6F742062652067726561746572207468616E2031300000000000 PUSH1 0x0 DUP3 ADD MSTORE POP JUMP JUMPDEST PUSH32 0x692063616E6E6F742062652067726561746572207468616E2031300000000000 PUSH1 0x0 DUP3 ADD MSTORE POP JUMP JUMPDEST PUSH2 0x46A DUP2 PUSH2 0x359 JUMP JUMPDEST DUP2 EQ PUSH2 0x475 JUMPI PUSH1 0x0 DUP1 REVERT JUMPDEST POP JUMP INVALID LOG2 PUSH5 0x6970667358 0x22 SLT KECCAK256 MLOAD LOG0 0x23 PUSH17 0x348BAA8D9A2E1103557DE8370F43460F19 CODESIZE PUSH10 0x94C44101D88758BAA864 PUSH20 0x6F6C634300080700330000000000000000000000 "
		},
		"gasEstimates": {
			"creation": {
				"codeDepositCost": "239600",
				"executionCost": "22387",
				"totalCost": "261987"
			},
			"external": {
				"accedentalUpdate()": "26715",
				"customError(uint256)": "infinite",
				"num()": "2451",
				"requireError(uint256)": "694",
				"revertError(uint256)": "785"
			},
			"internal": {
				"assertError()": "2168"
			}
		},
		"methodIdentifiers": {
			"accedentalUpdate()": "9856c37a",
			"customError(uint256)": "2509f77c",
			"num()": "4e70b1dc",
			"requireError(uint256)": "08ceafde",
			"revertError(uint256)": "fcf0f4c1"
		}
	},
	"abi": [
		{
			"inputs": [
				{
					"internalType": "address",
					"name": "",
					"type": "address"
				},
				{
					"internalType": "uint256",
					"name": "",
					"type": "uint256"
				}
			],
			"name": "MyError",
			"type": "error"
		},
		{
			"inputs": [],
			"name": "accedentalUpdate",
			"outputs": [],
			"stateMutability": "nonpayable",
			"type": "function"
		},
		{
			"inputs": [
				{
					"internalType": "uint256",
					"name": "i",
					"type": "uint256"
				}
			],
			"name": "customError",
			"outputs": [],
			"stateMutability": "view",
			"type": "function"
		},
		{
			"inputs": [],
			"name": "num",
			"outputs": [
				{
					"internalType": "uint256",
					"name": "",
					"type": "uint256"
				}
			],
			"stateMutability": "view",
			"type": "function"
		},
		{
			"inputs": [
				{
					"internalType": "uint256",
					"name": "i",
					"type": "uint256"
				}
			],
			"name": "requireError",
			"outputs": [],
			"stateMutability": "pure",
			"type": "function"
		},
		{
			"inputs": [
				{
					"internalType": "uint256",
					"name": "i",
					"type": "uint256"
				}
			],
			"name": "revertError",
			"outputs": [],
			"stateMutability": "pure",
			"type": "function"
		}
	]
}